{
	"contracts/FundMe.sol": {
		"FundMe": {
			"abi": [
				{
					"inputs": [
						{
							"internalType": "address",
							"name": "",
							"type": "address"
						}
					],
					"name": "Amount",
					"outputs": [
						{
							"internalType": "uint256",
							"name": "",
							"type": "uint256"
						}
					],
					"stateMutability": "view",
					"type": "function"
				},
				{
					"inputs": [],
					"name": "fund",
					"outputs": [],
					"stateMutability": "payable",
					"type": "function"
				},
				{
					"inputs": [
						{
							"internalType": "uint256",
							"name": "",
							"type": "uint256"
						}
					],
					"name": "funders",
					"outputs": [
						{
							"internalType": "address",
							"name": "",
							"type": "address"
						}
					],
					"stateMutability": "view",
					"type": "function"
				},
				{
					"inputs": [],
					"name": "minUsd",
					"outputs": [
						{
							"internalType": "uint256",
							"name": "",
							"type": "uint256"
						}
					],
					"stateMutability": "view",
					"type": "function"
				},
				{
					"inputs": [],
					"name": "withdraw",
					"outputs": [],
					"stateMutability": "nonpayable",
					"type": "function"
				}
			],
			"devdoc": {
				"kind": "dev",
				"methods": {},
				"version": 1
			},
			"evm": {
				"assembly": "    /* \"contracts/FundMe.sol\":191:1251  contract FundMe{... */\n  mstore(0x40, 0x80)\n    /* \"contracts/FundMe.sol\":280:289  50 * 1e18 */\n  0x02b5e3af16b1880000\n    /* \"contracts/FundMe.sol\":256:289  uint256 public minUsd = 50 * 1e18 */\n  0x00\n  sstore\n    /* \"contracts/FundMe.sol\":191:1251  contract FundMe{... */\n  callvalue\n  dup1\n  iszero\n  tag_1\n  jumpi\n  0x00\n  dup1\n  revert\ntag_1:\n  pop\n  dataSize(sub_0)\n  dup1\n  dataOffset(sub_0)\n  0x00\n  codecopy\n  0x00\n  return\nstop\n\nsub_0: assembly {\n        /* \"contracts/FundMe.sol\":191:1251  contract FundMe{... */\n      mstore(0x40, 0x80)\n      jumpi(tag_1, lt(calldatasize, 0x04))\n      shr(0xe0, calldataload(0x00))\n      dup1\n      0x3ccfd60b\n      eq\n      tag_2\n      jumpi\n      dup1\n      0x51b80e41\n      eq\n      tag_3\n      jumpi\n      dup1\n      0x600a6ef6\n      eq\n      tag_4\n      jumpi\n      dup1\n      0xb60d4288\n      eq\n      tag_5\n      jumpi\n      dup1\n      0xdc0d3dff\n      eq\n      tag_6\n      jumpi\n    tag_1:\n      0x00\n      dup1\n      revert\n        /* \"contracts/FundMe.sol\":610:1248  function withdraw() public {... */\n    tag_2:\n      callvalue\n      dup1\n      iszero\n      tag_7\n      jumpi\n      0x00\n      dup1\n      revert\n    tag_7:\n      pop\n      tag_8\n      tag_9\n      jump\t// in\n    tag_8:\n      stop\n        /* \"contracts/FundMe.sol\":256:289  uint256 public minUsd = 50 * 1e18 */\n    tag_3:\n      callvalue\n      dup1\n      iszero\n      tag_10\n      jumpi\n      0x00\n      dup1\n      revert\n    tag_10:\n      pop\n      tag_11\n      tag_12\n      jump\t// in\n    tag_11:\n      mload(0x40)\n      tag_13\n      swap2\n      swap1\n      tag_14\n      jump\t// in\n    tag_13:\n      mload(0x40)\n      dup1\n      swap2\n      sub\n      swap1\n      return\n        /* \"contracts/FundMe.sol\":329:370  mapping(address => uint256) public Amount */\n    tag_4:\n      callvalue\n      dup1\n      iszero\n      tag_15\n      jumpi\n      0x00\n      dup1\n      revert\n    tag_15:\n      pop\n      tag_16\n      0x04\n      dup1\n      calldatasize\n      sub\n      dup2\n      add\n      swap1\n      tag_17\n      swap2\n      swap1\n      tag_18\n      jump\t// in\n    tag_17:\n      tag_19\n      jump\t// in\n    tag_16:\n      mload(0x40)\n      tag_20\n      swap2\n      swap1\n      tag_14\n      jump\t// in\n    tag_20:\n      mload(0x40)\n      dup1\n      swap2\n      sub\n      swap1\n      return\n        /* \"contracts/FundMe.sol\":379:596  function fund() public payable{... */\n    tag_5:\n      tag_21\n      tag_22\n      jump\t// in\n    tag_21:\n      stop\n        /* \"contracts/FundMe.sol\":298:322  address[] public funders */\n    tag_6:\n      callvalue\n      dup1\n      iszero\n      tag_23\n      jumpi\n      0x00\n      dup1\n      revert\n    tag_23:\n      pop\n      tag_24\n      0x04\n      dup1\n      calldatasize\n      sub\n      dup2\n      add\n      swap1\n      tag_25\n      swap2\n      swap1\n      tag_26\n      jump\t// in\n    tag_25:\n      tag_27\n      jump\t// in\n    tag_24:\n      mload(0x40)\n      tag_28\n      swap2\n      swap1\n      tag_29\n      jump\t// in\n    tag_28:\n      mload(0x40)\n      dup1\n      swap2\n      sub\n      swap1\n      return\n        /* \"contracts/FundMe.sol\":610:1248  function withdraw() public {... */\n    tag_9:\n        /* \"contracts/FundMe.sol\":654:667  uint256 index */\n      0x00\n        /* \"contracts/FundMe.sol\":650:794  for(uint256 index=0; index < funders.length; index++){... */\n    tag_31:\n        /* \"contracts/FundMe.sol\":679:686  funders */\n      0x01\n        /* \"contracts/FundMe.sol\":679:693  funders.length */\n      dup1\n      sload\n      swap1\n      pop\n        /* \"contracts/FundMe.sol\":671:676  index */\n      dup2\n        /* \"contracts/FundMe.sol\":671:693  index < funders.length */\n      lt\n        /* \"contracts/FundMe.sol\":650:794  for(uint256 index=0; index < funders.length; index++){... */\n      iszero\n      tag_32\n      jumpi\n        /* \"contracts/FundMe.sol\":718:732  address funder */\n      0x00\n        /* \"contracts/FundMe.sol\":735:742  funders */\n      0x01\n        /* \"contracts/FundMe.sol\":743:748  index */\n      dup3\n        /* \"contracts/FundMe.sol\":735:749  funders[index] */\n      dup2\n      sload\n      dup2\n      lt\n      tag_34\n      jumpi\n      tag_35\n      tag_36\n      jump\t// in\n    tag_35:\n    tag_34:\n      swap1\n      0x00\n      mstore\n      keccak256(0x00, 0x20)\n      add\n      0x00\n      swap1\n      sload\n      swap1\n      0x0100\n      exp\n      swap1\n      div\n      0xffffffffffffffffffffffffffffffffffffffff\n      and\n        /* \"contracts/FundMe.sol\":718:749  address funder = funders[index] */\n      swap1\n      pop\n        /* \"contracts/FundMe.sol\":781:782  0 */\n      0x00\n        /* \"contracts/FundMe.sol\":764:770  Amount */\n      0x02\n        /* \"contracts/FundMe.sol\":764:778  Amount[funder] */\n      0x00\n        /* \"contracts/FundMe.sol\":771:777  funder */\n      dup4\n        /* \"contracts/FundMe.sol\":764:778  Amount[funder] */\n      0xffffffffffffffffffffffffffffffffffffffff\n      and\n      0xffffffffffffffffffffffffffffffffffffffff\n      and\n      dup2\n      mstore\n      0x20\n      add\n      swap1\n      dup2\n      mstore\n      0x20\n      add\n      0x00\n      keccak256\n        /* \"contracts/FundMe.sol\":764:782  Amount[funder] = 0 */\n      dup2\n      swap1\n      sstore\n      pop\n        /* \"contracts/FundMe.sol\":703:794  {... */\n      pop\n        /* \"contracts/FundMe.sol\":695:702  index++ */\n      dup1\n      dup1\n      tag_38\n      swap1\n      tag_39\n      jump\t// in\n    tag_38:\n      swap2\n      pop\n      pop\n        /* \"contracts/FundMe.sol\":650:794  for(uint256 index=0; index < funders.length; index++){... */\n      jump(tag_31)\n    tag_32:\n      pop\n        /* \"contracts/FundMe.sol\":828:829  0 */\n      0x00\n        /* \"contracts/FundMe.sol\":814:830  new address[](0) */\n      0xffffffffffffffff\n      dup2\n      gt\n      iszero\n      tag_40\n      jumpi\n      tag_41\n      tag_42\n      jump\t// in\n    tag_41:\n    tag_40:\n      mload(0x40)\n      swap1\n      dup1\n      dup3\n      mstore\n      dup1\n      0x20\n      mul\n      0x20\n      add\n      dup3\n      add\n      0x40\n      mstore\n      dup1\n      iszero\n      tag_43\n      jumpi\n      dup2\n      0x20\n      add\n      0x20\n      dup3\n      mul\n      dup1\n      calldatasize\n      dup4\n      calldatacopy\n      dup1\n      dup3\n      add\n      swap2\n      pop\n      pop\n      swap1\n      pop\n    tag_43:\n      pop\n        /* \"contracts/FundMe.sol\":804:811  funders */\n      0x01\n        /* \"contracts/FundMe.sol\":804:830  funders = new address[](0) */\n      swap1\n      dup1\n      mload\n      swap1\n      0x20\n      add\n      swap1\n      tag_44\n      swap3\n      swap2\n      swap1\n      tag_45\n      jump\t// in\n    tag_44:\n      pop\n        /* \"contracts/FundMe.sol\":1109:1121  bool success */\n      0x00\n        /* \"contracts/FundMe.sol\":1134:1144  msg.sender */\n      caller\n        /* \"contracts/FundMe.sol\":1126:1150  payable(msg.sender).call */\n      0xffffffffffffffffffffffffffffffffffffffff\n      and\n        /* \"contracts/FundMe.sol\":1158:1179  address(this).balance */\n      selfbalance\n        /* \"contracts/FundMe.sol\":1126:1184  payable(msg.sender).call{value: address(this).balance}(\"\") */\n      mload(0x40)\n      tag_46\n      swap1\n      tag_47\n      jump\t// in\n    tag_46:\n      0x00\n      mload(0x40)\n      dup1\n      dup4\n      sub\n      dup2\n      dup6\n      dup8\n      gas\n      call\n      swap3\n      pop\n      pop\n      pop\n      returndatasize\n      dup1\n      0x00\n      dup2\n      eq\n      tag_50\n      jumpi\n      mload(0x40)\n      swap2\n      pop\n      and(add(returndatasize, 0x3f), not(0x1f))\n      dup3\n      add\n      0x40\n      mstore\n      returndatasize\n      dup3\n      mstore\n      returndatasize\n      0x00\n      0x20\n      dup5\n      add\n      returndatacopy\n      jump(tag_49)\n    tag_50:\n      0x60\n      swap2\n      pop\n    tag_49:\n      pop\n        /* \"contracts/FundMe.sol\":1108:1184  (bool success,) = payable(msg.sender).call{value: address(this).balance}(\"\") */\n      pop\n      swap1\n      pop\n        /* \"contracts/FundMe.sol\":1203:1210  success */\n      dup1\n        /* \"contracts/FundMe.sol\":1195:1225  require(success,\"Call Failed\") */\n      tag_51\n      jumpi\n      mload(0x40)\n      0x08c379a000000000000000000000000000000000000000000000000000000000\n      dup2\n      mstore\n      0x04\n      add\n      tag_52\n      swap1\n      tag_53\n      jump\t// in\n    tag_52:\n      mload(0x40)\n      dup1\n      swap2\n      sub\n      swap1\n      revert\n    tag_51:\n        /* \"contracts/FundMe.sol\":637:1248  {... */\n      pop\n        /* \"contracts/FundMe.sol\":610:1248  function withdraw() public {... */\n      jump\t// out\n        /* \"contracts/FundMe.sol\":256:289  uint256 public minUsd = 50 * 1e18 */\n    tag_12:\n      sload(0x00)\n      dup2\n      jump\t// out\n        /* \"contracts/FundMe.sol\":329:370  mapping(address => uint256) public Amount */\n    tag_19:\n      mstore(0x20, 0x02)\n      dup1\n      0x00\n      mstore\n      keccak256(0x00, 0x40)\n      0x00\n      swap2\n      pop\n      swap1\n      pop\n      sload\n      dup2\n      jump\t// out\n        /* \"contracts/FundMe.sol\":379:596  function fund() public payable{... */\n    tag_22:\n        /* \"contracts/FundMe.sol\":466:472  minUsd */\n      sload(0x00)\n        /* \"contracts/FundMe.sol\":433:462  msg.value.getConversionRate() */\n      tag_55\n        /* \"contracts/FundMe.sol\":433:442  msg.value */\n      callvalue\n        /* \"contracts/FundMe.sol\":433:460  msg.value.getConversionRate */\n      tag_56\n        /* \"contracts/FundMe.sol\":433:462  msg.value.getConversionRate() */\n      jump\t// in\n    tag_55:\n        /* \"contracts/FundMe.sol\":433:472  msg.value.getConversionRate() >= minUsd */\n      lt\n      iszero\n        /* \"contracts/FundMe.sol\":425:487  require(msg.value.getConversionRate() >= minUsd, \"Not enough\") */\n      tag_57\n      jumpi\n      mload(0x40)\n      0x08c379a000000000000000000000000000000000000000000000000000000000\n      dup2\n      mstore\n      0x04\n      add\n      tag_58\n      swap1\n      tag_59\n      jump\t// in\n    tag_58:\n      mload(0x40)\n      dup1\n      swap2\n      sub\n      swap1\n      revert\n    tag_57:\n        /* \"contracts/FundMe.sol\":521:528  funders */\n      0x01\n        /* \"contracts/FundMe.sol\":534:544  msg.sender */\n      caller\n        /* \"contracts/FundMe.sol\":521:545  funders.push(msg.sender) */\n      swap1\n      dup1\n      0x01\n      dup2\n      sload\n      add\n      dup1\n      dup3\n      sstore\n      dup1\n      swap2\n      pop\n      pop\n      0x01\n      swap1\n      sub\n      swap1\n      0x00\n      mstore\n      keccak256(0x00, 0x20)\n      add\n      0x00\n      swap1\n      swap2\n      swap1\n      swap2\n      swap1\n      swap2\n      0x0100\n      exp\n      dup2\n      sload\n      dup2\n      0xffffffffffffffffffffffffffffffffffffffff\n      mul\n      not\n      and\n      swap1\n      dup4\n      0xffffffffffffffffffffffffffffffffffffffff\n      and\n      mul\n      or\n      swap1\n      sstore\n      pop\n        /* \"contracts/FundMe.sol\":578:587  msg.value */\n      callvalue\n        /* \"contracts/FundMe.sol\":556:562  Amount */\n      0x02\n        /* \"contracts/FundMe.sol\":556:574  Amount[msg.sender] */\n      0x00\n        /* \"contracts/FundMe.sol\":563:573  msg.sender */\n      caller\n        /* \"contracts/FundMe.sol\":556:574  Amount[msg.sender] */\n      0xffffffffffffffffffffffffffffffffffffffff\n      and\n      0xffffffffffffffffffffffffffffffffffffffff\n      and\n      dup2\n      mstore\n      0x20\n      add\n      swap1\n      dup2\n      mstore\n      0x20\n      add\n      0x00\n      keccak256\n      0x00\n        /* \"contracts/FundMe.sol\":556:587  Amount[msg.sender] += msg.value */\n      dup3\n      dup3\n      sload\n      tag_61\n      swap2\n      swap1\n      tag_62\n      jump\t// in\n    tag_61:\n      swap3\n      pop\n      pop\n      dup2\n      swap1\n      sstore\n      pop\n        /* \"contracts/FundMe.sol\":379:596  function fund() public payable{... */\n      jump\t// out\n        /* \"contracts/FundMe.sol\":298:322  address[] public funders */\n    tag_27:\n      0x01\n      dup2\n      dup2\n      sload\n      dup2\n      lt\n      tag_63\n      jumpi\n      0x00\n      dup1\n      revert\n    tag_63:\n      swap1\n      0x00\n      mstore\n      keccak256(0x00, 0x20)\n      add\n      0x00\n      swap2\n      pop\n      sload\n      swap1\n      0x0100\n      exp\n      swap1\n      div\n      0xffffffffffffffffffffffffffffffffffffffff\n      and\n      dup2\n      jump\t// out\n        /* \"contracts/PriceConverter.sol\":789:988  function getConversionRate(uint256 eth) internal view returns (uint256) {... */\n    tag_56:\n        /* \"contracts/PriceConverter.sol\":852:859  uint256 */\n      0x00\n        /* \"contracts/PriceConverter.sol\":872:888  uint256 ethPrice */\n      dup1\n        /* \"contracts/PriceConverter.sol\":891:901  getPrice() */\n      tag_66\n        /* \"contracts/PriceConverter.sol\":891:899  getPrice */\n      tag_67\n        /* \"contracts/PriceConverter.sol\":891:901  getPrice() */\n      jump\t// in\n    tag_66:\n        /* \"contracts/PriceConverter.sol\":872:901  uint256 ethPrice = getPrice() */\n      swap1\n      pop\n        /* \"contracts/PriceConverter.sol\":912:928  uint256 ethInUSD */\n      0x00\n        /* \"contracts/PriceConverter.sol\":950:954  1e18 */\n      0x0de0b6b3a7640000\n        /* \"contracts/PriceConverter.sol\":943:946  eth */\n      dup5\n        /* \"contracts/PriceConverter.sol\":932:940  ethPrice */\n      dup4\n        /* \"contracts/PriceConverter.sol\":932:946  ethPrice * eth */\n      tag_68\n      swap2\n      swap1\n      tag_69\n      jump\t// in\n    tag_68:\n        /* \"contracts/PriceConverter.sol\":931:954  (ethPrice * eth) / 1e18 */\n      tag_70\n      swap2\n      swap1\n      tag_71\n      jump\t// in\n    tag_70:\n        /* \"contracts/PriceConverter.sol\":912:954  uint256 ethInUSD = (ethPrice * eth) / 1e18 */\n      swap1\n      pop\n        /* \"contracts/PriceConverter.sol\":972:980  ethInUSD */\n      dup1\n        /* \"contracts/PriceConverter.sol\":965:980  return ethInUSD */\n      swap3\n      pop\n      pop\n      pop\n        /* \"contracts/PriceConverter.sol\":789:988  function getConversionRate(uint256 eth) internal view returns (uint256) {... */\n      swap2\n      swap1\n      pop\n      jump\t// out\n        /* \"contracts/PriceConverter.sol\":190:510  function getPrice() internal view returns (uint256){... */\n    tag_67:\n        /* \"contracts/PriceConverter.sol\":233:240  uint256 */\n      0x00\n        /* \"contracts/PriceConverter.sol\":308:339  AggregatorV3Interface priceFeed */\n      dup1\n        /* \"contracts/PriceConverter.sol\":364:406  0x5f4eC3Df9cbd43714FE2740f5E3616155c5b8419 */\n      0x5f4ec3df9cbd43714fe2740f5e3616155c5b8419\n        /* \"contracts/PriceConverter.sol\":308:407  AggregatorV3Interface priceFeed = AggregatorV3Interface(0x5f4eC3Df9cbd43714FE2740f5E3616155c5b8419) */\n      swap1\n      pop\n        /* \"contracts/PriceConverter.sol\":420:429  int price */\n      0x00\n        /* \"contracts/PriceConverter.sol\":436:445  priceFeed */\n      dup2\n        /* \"contracts/PriceConverter.sol\":436:461  priceFeed.latestRoundData */\n      0xffffffffffffffffffffffffffffffffffffffff\n      and\n      0xfeaf968c\n        /* \"contracts/PriceConverter.sol\":436:463  priceFeed.latestRoundData() */\n      mload(0x40)\n      dup2\n      0xffffffff\n      and\n      0xe0\n      shl\n      dup2\n      mstore\n      0x04\n      add\n      0xa0\n      mload(0x40)\n      dup1\n      dup4\n      sub\n      dup2\n      dup7\n      dup1\n      extcodesize\n      iszero\n      dup1\n      iszero\n      tag_73\n      jumpi\n      0x00\n      dup1\n      revert\n    tag_73:\n      pop\n      gas\n      staticcall\n      iszero\n      dup1\n      iszero\n      tag_75\n      jumpi\n      returndatasize\n      0x00\n      dup1\n      returndatacopy\n      revert(0x00, returndatasize)\n    tag_75:\n      pop\n      pop\n      pop\n      pop\n      mload(0x40)\n      returndatasize\n      not(0x1f)\n      0x1f\n      dup3\n      add\n      and\n      dup3\n      add\n      dup1\n      0x40\n      mstore\n      pop\n      dup2\n      add\n      swap1\n      tag_76\n      swap2\n      swap1\n      tag_77\n      jump\t// in\n    tag_76:\n        /* \"contracts/PriceConverter.sol\":418:463  (,int price,,,) = priceFeed.latestRoundData() */\n      pop\n      pop\n      pop\n      swap2\n      pop\n      pop\n        /* \"contracts/PriceConverter.sol\":497:501  1e10 */\n      0x02540be400\n        /* \"contracts/PriceConverter.sol\":489:494  price */\n      dup2\n        /* \"contracts/PriceConverter.sol\":489:501  price * 1e10 */\n      tag_78\n      swap2\n      swap1\n      tag_79\n      jump\t// in\n    tag_78:\n        /* \"contracts/PriceConverter.sol\":474:502  return uint256(price * 1e10) */\n      swap3\n      pop\n      pop\n      pop\n        /* \"contracts/PriceConverter.sol\":190:510  function getPrice() internal view returns (uint256){... */\n      swap1\n      jump\t// out\n    tag_45:\n      dup3\n      dup1\n      sload\n      dup3\n      dup3\n      sstore\n      swap1\n      0x00\n      mstore\n      keccak256(0x00, 0x20)\n      swap1\n      dup2\n      add\n      swap3\n      dup3\n      iszero\n      tag_80\n      jumpi\n      swap2\n      0x20\n      mul\n      dup3\n      add\n    tag_81:\n      dup3\n      dup2\n      gt\n      iszero\n      tag_82\n      jumpi\n      dup3\n      mload\n      dup3\n      exp(0x0100, 0x00)\n      dup2\n      sload\n      dup2\n      0xffffffffffffffffffffffffffffffffffffffff\n      mul\n      not\n      and\n      swap1\n      dup4\n      0xffffffffffffffffffffffffffffffffffffffff\n      and\n      mul\n      or\n      swap1\n      sstore\n      pop\n      swap2\n      0x20\n      add\n      swap2\n      swap1\n      0x01\n      add\n      swap1\n      jump(tag_81)\n    tag_82:\n    tag_80:\n      pop\n      swap1\n      pop\n      tag_83\n      swap2\n      swap1\n      tag_84\n      jump\t// in\n    tag_83:\n      pop\n      swap1\n      jump\t// out\n    tag_84:\n    tag_85:\n      dup1\n      dup3\n      gt\n      iszero\n      tag_86\n      jumpi\n      0x00\n      dup2\n      0x00\n      swap1\n      sstore\n      pop\n      0x01\n      add\n      jump(tag_85)\n    tag_86:\n      pop\n      swap1\n      jump\t// out\n        /* \"#utility.yul\":7:84   */\n    tag_87:\n        /* \"#utility.yul\":44:51   */\n      0x00\n        /* \"#utility.yul\":73:78   */\n      dup2\n        /* \"#utility.yul\":62:78   */\n      swap1\n      pop\n        /* \"#utility.yul\":7:84   */\n      swap2\n      swap1\n      pop\n      jump\t// out\n        /* \"#utility.yul\":90:208   */\n    tag_88:\n        /* \"#utility.yul\":177:201   */\n      tag_119\n        /* \"#utility.yul\":195:200   */\n      dup2\n        /* \"#utility.yul\":177:201   */\n      tag_87\n      jump\t// in\n    tag_119:\n        /* \"#utility.yul\":172:175   */\n      dup3\n        /* \"#utility.yul\":165:202   */\n      mstore\n        /* \"#utility.yul\":90:208   */\n      pop\n      pop\n      jump\t// out\n        /* \"#utility.yul\":214:436   */\n    tag_14:\n        /* \"#utility.yul\":307:311   */\n      0x00\n        /* \"#utility.yul\":345:347   */\n      0x20\n        /* \"#utility.yul\":334:343   */\n      dup3\n        /* \"#utility.yul\":330:348   */\n      add\n        /* \"#utility.yul\":322:348   */\n      swap1\n      pop\n        /* \"#utility.yul\":358:429   */\n      tag_121\n        /* \"#utility.yul\":426:427   */\n      0x00\n        /* \"#utility.yul\":415:424   */\n      dup4\n        /* \"#utility.yul\":411:428   */\n      add\n        /* \"#utility.yul\":402:408   */\n      dup5\n        /* \"#utility.yul\":358:429   */\n      tag_88\n      jump\t// in\n    tag_121:\n        /* \"#utility.yul\":214:436   */\n      swap3\n      swap2\n      pop\n      pop\n      jump\t// out\n        /* \"#utility.yul\":523:640   */\n    tag_90:\n        /* \"#utility.yul\":632:633   */\n      0x00\n        /* \"#utility.yul\":629:630   */\n      dup1\n        /* \"#utility.yul\":622:634   */\n      revert\n        /* \"#utility.yul\":769:895   */\n    tag_92:\n        /* \"#utility.yul\":806:813   */\n      0x00\n        /* \"#utility.yul\":846:888   */\n      0xffffffffffffffffffffffffffffffffffffffff\n        /* \"#utility.yul\":839:844   */\n      dup3\n        /* \"#utility.yul\":835:889   */\n      and\n        /* \"#utility.yul\":824:889   */\n      swap1\n      pop\n        /* \"#utility.yul\":769:895   */\n      swap2\n      swap1\n      pop\n      jump\t// out\n        /* \"#utility.yul\":901:997   */\n    tag_93:\n        /* \"#utility.yul\":938:945   */\n      0x00\n        /* \"#utility.yul\":967:991   */\n      tag_127\n        /* \"#utility.yul\":985:990   */\n      dup3\n        /* \"#utility.yul\":967:991   */\n      tag_92\n      jump\t// in\n    tag_127:\n        /* \"#utility.yul\":956:991   */\n      swap1\n      pop\n        /* \"#utility.yul\":901:997   */\n      swap2\n      swap1\n      pop\n      jump\t// out\n        /* \"#utility.yul\":1003:1125   */\n    tag_94:\n        /* \"#utility.yul\":1076:1100   */\n      tag_129\n        /* \"#utility.yul\":1094:1099   */\n      dup2\n        /* \"#utility.yul\":1076:1100   */\n      tag_93\n      jump\t// in\n    tag_129:\n        /* \"#utility.yul\":1069:1074   */\n      dup2\n        /* \"#utility.yul\":1066:1101   */\n      eq\n        /* \"#utility.yul\":1056:1119   */\n      tag_130\n      jumpi\n        /* \"#utility.yul\":1115:1116   */\n      0x00\n        /* \"#utility.yul\":1112:1113   */\n      dup1\n        /* \"#utility.yul\":1105:1117   */\n      revert\n        /* \"#utility.yul\":1056:1119   */\n    tag_130:\n        /* \"#utility.yul\":1003:1125   */\n      pop\n      jump\t// out\n        /* \"#utility.yul\":1131:1270   */\n    tag_95:\n        /* \"#utility.yul\":1177:1182   */\n      0x00\n        /* \"#utility.yul\":1215:1221   */\n      dup2\n        /* \"#utility.yul\":1202:1222   */\n      calldataload\n        /* \"#utility.yul\":1193:1222   */\n      swap1\n      pop\n        /* \"#utility.yul\":1231:1264   */\n      tag_132\n        /* \"#utility.yul\":1258:1263   */\n      dup2\n        /* \"#utility.yul\":1231:1264   */\n      tag_94\n      jump\t// in\n    tag_132:\n        /* \"#utility.yul\":1131:1270   */\n      swap3\n      swap2\n      pop\n      pop\n      jump\t// out\n        /* \"#utility.yul\":1276:1605   */\n    tag_18:\n        /* \"#utility.yul\":1335:1341   */\n      0x00\n        /* \"#utility.yul\":1384:1386   */\n      0x20\n        /* \"#utility.yul\":1372:1381   */\n      dup3\n        /* \"#utility.yul\":1363:1370   */\n      dup5\n        /* \"#utility.yul\":1359:1382   */\n      sub\n        /* \"#utility.yul\":1355:1387   */\n      slt\n        /* \"#utility.yul\":1352:1471   */\n      iszero\n      tag_134\n      jumpi\n        /* \"#utility.yul\":1390:1469   */\n      tag_135\n      tag_90\n      jump\t// in\n    tag_135:\n        /* \"#utility.yul\":1352:1471   */\n    tag_134:\n        /* \"#utility.yul\":1510:1511   */\n      0x00\n        /* \"#utility.yul\":1535:1588   */\n      tag_136\n        /* \"#utility.yul\":1580:1587   */\n      dup5\n        /* \"#utility.yul\":1571:1577   */\n      dup3\n        /* \"#utility.yul\":1560:1569   */\n      dup6\n        /* \"#utility.yul\":1556:1578   */\n      add\n        /* \"#utility.yul\":1535:1588   */\n      tag_95\n      jump\t// in\n    tag_136:\n        /* \"#utility.yul\":1525:1588   */\n      swap2\n      pop\n        /* \"#utility.yul\":1481:1598   */\n      pop\n        /* \"#utility.yul\":1276:1605   */\n      swap3\n      swap2\n      pop\n      pop\n      jump\t// out\n        /* \"#utility.yul\":1611:1733   */\n    tag_96:\n        /* \"#utility.yul\":1684:1708   */\n      tag_138\n        /* \"#utility.yul\":1702:1707   */\n      dup2\n        /* \"#utility.yul\":1684:1708   */\n      tag_87\n      jump\t// in\n    tag_138:\n        /* \"#utility.yul\":1677:1682   */\n      dup2\n        /* \"#utility.yul\":1674:1709   */\n      eq\n        /* \"#utility.yul\":1664:1727   */\n      tag_139\n      jumpi\n        /* \"#utility.yul\":1723:1724   */\n      0x00\n        /* \"#utility.yul\":1720:1721   */\n      dup1\n        /* \"#utility.yul\":1713:1725   */\n      revert\n        /* \"#utility.yul\":1664:1727   */\n    tag_139:\n        /* \"#utility.yul\":1611:1733   */\n      pop\n      jump\t// out\n        /* \"#utility.yul\":1739:1878   */\n    tag_97:\n        /* \"#utility.yul\":1785:1790   */\n      0x00\n        /* \"#utility.yul\":1823:1829   */\n      dup2\n        /* \"#utility.yul\":1810:1830   */\n      calldataload\n        /* \"#utility.yul\":1801:1830   */\n      swap1\n      pop\n        /* \"#utility.yul\":1839:1872   */\n      tag_141\n        /* \"#utility.yul\":1866:1871   */\n      dup2\n        /* \"#utility.yul\":1839:1872   */\n      tag_96\n      jump\t// in\n    tag_141:\n        /* \"#utility.yul\":1739:1878   */\n      swap3\n      swap2\n      pop\n      pop\n      jump\t// out\n        /* \"#utility.yul\":1884:2213   */\n    tag_26:\n        /* \"#utility.yul\":1943:1949   */\n      0x00\n        /* \"#utility.yul\":1992:1994   */\n      0x20\n        /* \"#utility.yul\":1980:1989   */\n      dup3\n        /* \"#utility.yul\":1971:1978   */\n      dup5\n        /* \"#utility.yul\":1967:1990   */\n      sub\n        /* \"#utility.yul\":1963:1995   */\n      slt\n        /* \"#utility.yul\":1960:2079   */\n      iszero\n      tag_143\n      jumpi\n        /* \"#utility.yul\":1998:2077   */\n      tag_144\n      tag_90\n      jump\t// in\n    tag_144:\n        /* \"#utility.yul\":1960:2079   */\n    tag_143:\n        /* \"#utility.yul\":2118:2119   */\n      0x00\n        /* \"#utility.yul\":2143:2196   */\n      tag_145\n        /* \"#utility.yul\":2188:2195   */\n      dup5\n        /* \"#utility.yul\":2179:2185   */\n      dup3\n        /* \"#utility.yul\":2168:2177   */\n      dup6\n        /* \"#utility.yul\":2164:2186   */\n      add\n        /* \"#utility.yul\":2143:2196   */\n      tag_97\n      jump\t// in\n    tag_145:\n        /* \"#utility.yul\":2133:2196   */\n      swap2\n      pop\n        /* \"#utility.yul\":2089:2206   */\n      pop\n        /* \"#utility.yul\":1884:2213   */\n      swap3\n      swap2\n      pop\n      pop\n      jump\t// out\n        /* \"#utility.yul\":2219:2337   */\n    tag_98:\n        /* \"#utility.yul\":2306:2330   */\n      tag_147\n        /* \"#utility.yul\":2324:2329   */\n      dup2\n        /* \"#utility.yul\":2306:2330   */\n      tag_93\n      jump\t// in\n    tag_147:\n        /* \"#utility.yul\":2301:2304   */\n      dup3\n        /* \"#utility.yul\":2294:2331   */\n      mstore\n        /* \"#utility.yul\":2219:2337   */\n      pop\n      pop\n      jump\t// out\n        /* \"#utility.yul\":2343:2565   */\n    tag_29:\n        /* \"#utility.yul\":2436:2440   */\n      0x00\n        /* \"#utility.yul\":2474:2476   */\n      0x20\n        /* \"#utility.yul\":2463:2472   */\n      dup3\n        /* \"#utility.yul\":2459:2477   */\n      add\n        /* \"#utility.yul\":2451:2477   */\n      swap1\n      pop\n        /* \"#utility.yul\":2487:2558   */\n      tag_149\n        /* \"#utility.yul\":2555:2556   */\n      0x00\n        /* \"#utility.yul\":2544:2553   */\n      dup4\n        /* \"#utility.yul\":2540:2557   */\n      add\n        /* \"#utility.yul\":2531:2537   */\n      dup5\n        /* \"#utility.yul\":2487:2558   */\n      tag_98\n      jump\t// in\n    tag_149:\n        /* \"#utility.yul\":2343:2565   */\n      swap3\n      swap2\n      pop\n      pop\n      jump\t// out\n        /* \"#utility.yul\":2571:2751   */\n    tag_36:\n        /* \"#utility.yul\":2619:2696   */\n      0x4e487b7100000000000000000000000000000000000000000000000000000000\n        /* \"#utility.yul\":2616:2617   */\n      0x00\n        /* \"#utility.yul\":2609:2697   */\n      mstore\n        /* \"#utility.yul\":2716:2720   */\n      0x32\n        /* \"#utility.yul\":2713:2714   */\n      0x04\n        /* \"#utility.yul\":2706:2721   */\n      mstore\n        /* \"#utility.yul\":2740:2744   */\n      0x24\n        /* \"#utility.yul\":2737:2738   */\n      0x00\n        /* \"#utility.yul\":2730:2745   */\n      revert\n        /* \"#utility.yul\":2757:2937   */\n    tag_99:\n        /* \"#utility.yul\":2805:2882   */\n      0x4e487b7100000000000000000000000000000000000000000000000000000000\n        /* \"#utility.yul\":2802:2803   */\n      0x00\n        /* \"#utility.yul\":2795:2883   */\n      mstore\n        /* \"#utility.yul\":2902:2906   */\n      0x11\n        /* \"#utility.yul\":2899:2900   */\n      0x04\n        /* \"#utility.yul\":2892:2907   */\n      mstore\n        /* \"#utility.yul\":2926:2930   */\n      0x24\n        /* \"#utility.yul\":2923:2924   */\n      0x00\n        /* \"#utility.yul\":2916:2931   */\n      revert\n        /* \"#utility.yul\":2943:3176   */\n    tag_39:\n        /* \"#utility.yul\":2982:2985   */\n      0x00\n        /* \"#utility.yul\":3005:3029   */\n      tag_153\n        /* \"#utility.yul\":3023:3028   */\n      dup3\n        /* \"#utility.yul\":3005:3029   */\n      tag_87\n      jump\t// in\n    tag_153:\n        /* \"#utility.yul\":2996:3029   */\n      swap2\n      pop\n        /* \"#utility.yul\":3051:3117   */\n      0xffffffffffffffffffffffffffffffffffffffffffffffffffffffffffffffff\n        /* \"#utility.yul\":3044:3049   */\n      dup3\n        /* \"#utility.yul\":3041:3118   */\n      eq\n        /* \"#utility.yul\":3038:3141   */\n      iszero\n      tag_154\n      jumpi\n        /* \"#utility.yul\":3121:3139   */\n      tag_155\n      tag_99\n      jump\t// in\n    tag_155:\n        /* \"#utility.yul\":3038:3141   */\n    tag_154:\n        /* \"#utility.yul\":3168:3169   */\n      0x01\n        /* \"#utility.yul\":3161:3166   */\n      dup3\n        /* \"#utility.yul\":3157:3170   */\n      add\n        /* \"#utility.yul\":3150:3170   */\n      swap1\n      pop\n        /* \"#utility.yul\":2943:3176   */\n      swap2\n      swap1\n      pop\n      jump\t// out\n        /* \"#utility.yul\":3182:3362   */\n    tag_42:\n        /* \"#utility.yul\":3230:3307   */\n      0x4e487b7100000000000000000000000000000000000000000000000000000000\n        /* \"#utility.yul\":3227:3228   */\n      0x00\n        /* \"#utility.yul\":3220:3308   */\n      mstore\n        /* \"#utility.yul\":3327:3331   */\n      0x41\n        /* \"#utility.yul\":3324:3325   */\n      0x04\n        /* \"#utility.yul\":3317:3332   */\n      mstore\n        /* \"#utility.yul\":3351:3355   */\n      0x24\n        /* \"#utility.yul\":3348:3349   */\n      0x00\n        /* \"#utility.yul\":3341:3356   */\n      revert\n        /* \"#utility.yul\":3368:3515   */\n    tag_100:\n        /* \"#utility.yul\":3469:3480   */\n      0x00\n        /* \"#utility.yul\":3506:3509   */\n      dup2\n        /* \"#utility.yul\":3491:3509   */\n      swap1\n      pop\n        /* \"#utility.yul\":3368:3515   */\n      swap3\n      swap2\n      pop\n      pop\n      jump\t// out\n        /* \"#utility.yul\":3521:3635   */\n    tag_101:\n      pop\n      jump\t// out\n        /* \"#utility.yul\":3641:4039   */\n    tag_102:\n        /* \"#utility.yul\":3800:3803   */\n      0x00\n        /* \"#utility.yul\":3821:3904   */\n      tag_160\n        /* \"#utility.yul\":3902:3903   */\n      0x00\n        /* \"#utility.yul\":3897:3900   */\n      dup4\n        /* \"#utility.yul\":3821:3904   */\n      tag_100\n      jump\t// in\n    tag_160:\n        /* \"#utility.yul\":3814:3904   */\n      swap2\n      pop\n        /* \"#utility.yul\":3913:4006   */\n      tag_161\n        /* \"#utility.yul\":4002:4005   */\n      dup3\n        /* \"#utility.yul\":3913:4006   */\n      tag_101\n      jump\t// in\n    tag_161:\n        /* \"#utility.yul\":4031:4032   */\n      0x00\n        /* \"#utility.yul\":4026:4029   */\n      dup3\n        /* \"#utility.yul\":4022:4033   */\n      add\n        /* \"#utility.yul\":4015:4033   */\n      swap1\n      pop\n        /* \"#utility.yul\":3641:4039   */\n      swap2\n      swap1\n      pop\n      jump\t// out\n        /* \"#utility.yul\":4045:4424   */\n    tag_47:\n        /* \"#utility.yul\":4229:4232   */\n      0x00\n        /* \"#utility.yul\":4251:4398   */\n      tag_163\n        /* \"#utility.yul\":4394:4397   */\n      dup3\n        /* \"#utility.yul\":4251:4398   */\n      tag_102\n      jump\t// in\n    tag_163:\n        /* \"#utility.yul\":4244:4398   */\n      swap2\n      pop\n        /* \"#utility.yul\":4415:4418   */\n      dup2\n        /* \"#utility.yul\":4408:4418   */\n      swap1\n      pop\n        /* \"#utility.yul\":4045:4424   */\n      swap2\n      swap1\n      pop\n      jump\t// out\n        /* \"#utility.yul\":4430:4599   */\n    tag_103:\n        /* \"#utility.yul\":4514:4525   */\n      0x00\n        /* \"#utility.yul\":4548:4554   */\n      dup3\n        /* \"#utility.yul\":4543:4546   */\n      dup3\n        /* \"#utility.yul\":4536:4555   */\n      mstore\n        /* \"#utility.yul\":4588:4592   */\n      0x20\n        /* \"#utility.yul\":4583:4586   */\n      dup3\n        /* \"#utility.yul\":4579:4593   */\n      add\n        /* \"#utility.yul\":4564:4593   */\n      swap1\n      pop\n        /* \"#utility.yul\":4430:4599   */\n      swap3\n      swap2\n      pop\n      pop\n      jump\t// out\n        /* \"#utility.yul\":4605:4766   */\n    tag_104:\n        /* \"#utility.yul\":4745:4758   */\n      0x43616c6c204661696c6564000000000000000000000000000000000000000000\n        /* \"#utility.yul\":4741:4742   */\n      0x00\n        /* \"#utility.yul\":4733:4739   */\n      dup3\n        /* \"#utility.yul\":4729:4743   */\n      add\n        /* \"#utility.yul\":4722:4759   */\n      mstore\n        /* \"#utility.yul\":4605:4766   */\n      pop\n      jump\t// out\n        /* \"#utility.yul\":4772:5138   */\n    tag_105:\n        /* \"#utility.yul\":4914:4917   */\n      0x00\n        /* \"#utility.yul\":4935:5002   */\n      tag_167\n        /* \"#utility.yul\":4999:5001   */\n      0x0b\n        /* \"#utility.yul\":4994:4997   */\n      dup4\n        /* \"#utility.yul\":4935:5002   */\n      tag_103\n      jump\t// in\n    tag_167:\n        /* \"#utility.yul\":4928:5002   */\n      swap2\n      pop\n        /* \"#utility.yul\":5011:5104   */\n      tag_168\n        /* \"#utility.yul\":5100:5103   */\n      dup3\n        /* \"#utility.yul\":5011:5104   */\n      tag_104\n      jump\t// in\n    tag_168:\n        /* \"#utility.yul\":5129:5131   */\n      0x20\n        /* \"#utility.yul\":5124:5127   */\n      dup3\n        /* \"#utility.yul\":5120:5132   */\n      add\n        /* \"#utility.yul\":5113:5132   */\n      swap1\n      pop\n        /* \"#utility.yul\":4772:5138   */\n      swap2\n      swap1\n      pop\n      jump\t// out\n        /* \"#utility.yul\":5144:5563   */\n    tag_53:\n        /* \"#utility.yul\":5310:5314   */\n      0x00\n        /* \"#utility.yul\":5348:5350   */\n      0x20\n        /* \"#utility.yul\":5337:5346   */\n      dup3\n        /* \"#utility.yul\":5333:5351   */\n      add\n        /* \"#utility.yul\":5325:5351   */\n      swap1\n      pop\n        /* \"#utility.yul\":5397:5406   */\n      dup2\n        /* \"#utility.yul\":5391:5395   */\n      dup2\n        /* \"#utility.yul\":5387:5407   */\n      sub\n        /* \"#utility.yul\":5383:5384   */\n      0x00\n        /* \"#utility.yul\":5372:5381   */\n      dup4\n        /* \"#utility.yul\":5368:5385   */\n      add\n        /* \"#utility.yul\":5361:5408   */\n      mstore\n        /* \"#utility.yul\":5425:5556   */\n      tag_170\n        /* \"#utility.yul\":5551:5555   */\n      dup2\n        /* \"#utility.yul\":5425:5556   */\n      tag_105\n      jump\t// in\n    tag_170:\n        /* \"#utility.yul\":5417:5556   */\n      swap1\n      pop\n        /* \"#utility.yul\":5144:5563   */\n      swap2\n      swap1\n      pop\n      jump\t// out\n        /* \"#utility.yul\":5569:5729   */\n    tag_106:\n        /* \"#utility.yul\":5709:5721   */\n      0x4e6f7420656e6f75676800000000000000000000000000000000000000000000\n        /* \"#utility.yul\":5705:5706   */\n      0x00\n        /* \"#utility.yul\":5697:5703   */\n      dup3\n        /* \"#utility.yul\":5693:5707   */\n      add\n        /* \"#utility.yul\":5686:5722   */\n      mstore\n        /* \"#utility.yul\":5569:5729   */\n      pop\n      jump\t// out\n        /* \"#utility.yul\":5735:6101   */\n    tag_107:\n        /* \"#utility.yul\":5877:5880   */\n      0x00\n        /* \"#utility.yul\":5898:5965   */\n      tag_173\n        /* \"#utility.yul\":5962:5964   */\n      0x0a\n        /* \"#utility.yul\":5957:5960   */\n      dup4\n        /* \"#utility.yul\":5898:5965   */\n      tag_103\n      jump\t// in\n    tag_173:\n        /* \"#utility.yul\":5891:5965   */\n      swap2\n      pop\n        /* \"#utility.yul\":5974:6067   */\n      tag_174\n        /* \"#utility.yul\":6063:6066   */\n      dup3\n        /* \"#utility.yul\":5974:6067   */\n      tag_106\n      jump\t// in\n    tag_174:\n        /* \"#utility.yul\":6092:6094   */\n      0x20\n        /* \"#utility.yul\":6087:6090   */\n      dup3\n        /* \"#utility.yul\":6083:6095   */\n      add\n        /* \"#utility.yul\":6076:6095   */\n      swap1\n      pop\n        /* \"#utility.yul\":5735:6101   */\n      swap2\n      swap1\n      pop\n      jump\t// out\n        /* \"#utility.yul\":6107:6526   */\n    tag_59:\n        /* \"#utility.yul\":6273:6277   */\n      0x00\n        /* \"#utility.yul\":6311:6313   */\n      0x20\n        /* \"#utility.yul\":6300:6309   */\n      dup3\n        /* \"#utility.yul\":6296:6314   */\n      add\n        /* \"#utility.yul\":6288:6314   */\n      swap1\n      pop\n        /* \"#utility.yul\":6360:6369   */\n      dup2\n        /* \"#utility.yul\":6354:6358   */\n      dup2\n        /* \"#utility.yul\":6350:6370   */\n      sub\n        /* \"#utility.yul\":6346:6347   */\n      0x00\n        /* \"#utility.yul\":6335:6344   */\n      dup4\n        /* \"#utility.yul\":6331:6348   */\n      add\n        /* \"#utility.yul\":6324:6371   */\n      mstore\n        /* \"#utility.yul\":6388:6519   */\n      tag_176\n        /* \"#utility.yul\":6514:6518   */\n      dup2\n        /* \"#utility.yul\":6388:6519   */\n      tag_107\n      jump\t// in\n    tag_176:\n        /* \"#utility.yul\":6380:6519   */\n      swap1\n      pop\n        /* \"#utility.yul\":6107:6526   */\n      swap2\n      swap1\n      pop\n      jump\t// out\n        /* \"#utility.yul\":6532:6837   */\n    tag_62:\n        /* \"#utility.yul\":6572:6575   */\n      0x00\n        /* \"#utility.yul\":6591:6611   */\n      tag_178\n        /* \"#utility.yul\":6609:6610   */\n      dup3\n        /* \"#utility.yul\":6591:6611   */\n      tag_87\n      jump\t// in\n    tag_178:\n        /* \"#utility.yul\":6586:6611   */\n      swap2\n      pop\n        /* \"#utility.yul\":6625:6645   */\n      tag_179\n        /* \"#utility.yul\":6643:6644   */\n      dup4\n        /* \"#utility.yul\":6625:6645   */\n      tag_87\n      jump\t// in\n    tag_179:\n        /* \"#utility.yul\":6620:6645   */\n      swap3\n      pop\n        /* \"#utility.yul\":6779:6780   */\n      dup3\n        /* \"#utility.yul\":6711:6777   */\n      0xffffffffffffffffffffffffffffffffffffffffffffffffffffffffffffffff\n        /* \"#utility.yul\":6707:6781   */\n      sub\n        /* \"#utility.yul\":6704:6705   */\n      dup3\n        /* \"#utility.yul\":6701:6782   */\n      gt\n        /* \"#utility.yul\":6698:6805   */\n      iszero\n      tag_180\n      jumpi\n        /* \"#utility.yul\":6785:6803   */\n      tag_181\n      tag_99\n      jump\t// in\n    tag_181:\n        /* \"#utility.yul\":6698:6805   */\n    tag_180:\n        /* \"#utility.yul\":6829:6830   */\n      dup3\n        /* \"#utility.yul\":6826:6827   */\n      dup3\n        /* \"#utility.yul\":6822:6831   */\n      add\n        /* \"#utility.yul\":6815:6831   */\n      swap1\n      pop\n        /* \"#utility.yul\":6532:6837   */\n      swap3\n      swap2\n      pop\n      pop\n      jump\t// out\n        /* \"#utility.yul\":6843:7191   */\n    tag_69:\n        /* \"#utility.yul\":6883:6890   */\n      0x00\n        /* \"#utility.yul\":6906:6926   */\n      tag_183\n        /* \"#utility.yul\":6924:6925   */\n      dup3\n        /* \"#utility.yul\":6906:6926   */\n      tag_87\n      jump\t// in\n    tag_183:\n        /* \"#utility.yul\":6901:6926   */\n      swap2\n      pop\n        /* \"#utility.yul\":6940:6960   */\n      tag_184\n        /* \"#utility.yul\":6958:6959   */\n      dup4\n        /* \"#utility.yul\":6940:6960   */\n      tag_87\n      jump\t// in\n    tag_184:\n        /* \"#utility.yul\":6935:6960   */\n      swap3\n      pop\n        /* \"#utility.yul\":7128:7129   */\n      dup2\n        /* \"#utility.yul\":7060:7126   */\n      0xffffffffffffffffffffffffffffffffffffffffffffffffffffffffffffffff\n        /* \"#utility.yul\":7056:7130   */\n      div\n        /* \"#utility.yul\":7053:7054   */\n      dup4\n        /* \"#utility.yul\":7050:7131   */\n      gt\n        /* \"#utility.yul\":7045:7046   */\n      dup3\n        /* \"#utility.yul\":7038:7047   */\n      iszero\n        /* \"#utility.yul\":7031:7048   */\n      iszero\n        /* \"#utility.yul\":7027:7132   */\n      and\n        /* \"#utility.yul\":7024:7155   */\n      iszero\n      tag_185\n      jumpi\n        /* \"#utility.yul\":7135:7153   */\n      tag_186\n      tag_99\n      jump\t// in\n    tag_186:\n        /* \"#utility.yul\":7024:7155   */\n    tag_185:\n        /* \"#utility.yul\":7183:7184   */\n      dup3\n        /* \"#utility.yul\":7180:7181   */\n      dup3\n        /* \"#utility.yul\":7176:7185   */\n      mul\n        /* \"#utility.yul\":7165:7185   */\n      swap1\n      pop\n        /* \"#utility.yul\":6843:7191   */\n      swap3\n      swap2\n      pop\n      pop\n      jump\t// out\n        /* \"#utility.yul\":7197:7377   */\n    tag_108:\n        /* \"#utility.yul\":7245:7322   */\n      0x4e487b7100000000000000000000000000000000000000000000000000000000\n        /* \"#utility.yul\":7242:7243   */\n      0x00\n        /* \"#utility.yul\":7235:7323   */\n      mstore\n        /* \"#utility.yul\":7342:7346   */\n      0x12\n        /* \"#utility.yul\":7339:7340   */\n      0x04\n        /* \"#utility.yul\":7332:7347   */\n      mstore\n        /* \"#utility.yul\":7366:7370   */\n      0x24\n        /* \"#utility.yul\":7363:7364   */\n      0x00\n        /* \"#utility.yul\":7356:7371   */\n      revert\n        /* \"#utility.yul\":7383:7568   */\n    tag_71:\n        /* \"#utility.yul\":7423:7424   */\n      0x00\n        /* \"#utility.yul\":7440:7460   */\n      tag_189\n        /* \"#utility.yul\":7458:7459   */\n      dup3\n        /* \"#utility.yul\":7440:7460   */\n      tag_87\n      jump\t// in\n    tag_189:\n        /* \"#utility.yul\":7435:7460   */\n      swap2\n      pop\n        /* \"#utility.yul\":7474:7494   */\n      tag_190\n        /* \"#utility.yul\":7492:7493   */\n      dup4\n        /* \"#utility.yul\":7474:7494   */\n      tag_87\n      jump\t// in\n    tag_190:\n        /* \"#utility.yul\":7469:7494   */\n      swap3\n      pop\n        /* \"#utility.yul\":7513:7514   */\n      dup3\n        /* \"#utility.yul\":7503:7538   */\n      tag_191\n      jumpi\n        /* \"#utility.yul\":7518:7536   */\n      tag_192\n      tag_108\n      jump\t// in\n    tag_192:\n        /* \"#utility.yul\":7503:7538   */\n    tag_191:\n        /* \"#utility.yul\":7560:7561   */\n      dup3\n        /* \"#utility.yul\":7557:7558   */\n      dup3\n        /* \"#utility.yul\":7553:7562   */\n      div\n        /* \"#utility.yul\":7548:7562   */\n      swap1\n      pop\n        /* \"#utility.yul\":7383:7568   */\n      swap3\n      swap2\n      pop\n      pop\n      jump\t// out\n        /* \"#utility.yul\":7574:7679   */\n    tag_109:\n        /* \"#utility.yul\":7610:7617   */\n      0x00\n        /* \"#utility.yul\":7650:7672   */\n      0xffffffffffffffffffff\n        /* \"#utility.yul\":7643:7648   */\n      dup3\n        /* \"#utility.yul\":7639:7673   */\n      and\n        /* \"#utility.yul\":7628:7673   */\n      swap1\n      pop\n        /* \"#utility.yul\":7574:7679   */\n      swap2\n      swap1\n      pop\n      jump\t// out\n        /* \"#utility.yul\":7685:7805   */\n    tag_110:\n        /* \"#utility.yul\":7757:7780   */\n      tag_195\n        /* \"#utility.yul\":7774:7779   */\n      dup2\n        /* \"#utility.yul\":7757:7780   */\n      tag_109\n      jump\t// in\n    tag_195:\n        /* \"#utility.yul\":7750:7755   */\n      dup2\n        /* \"#utility.yul\":7747:7781   */\n      eq\n        /* \"#utility.yul\":7737:7799   */\n      tag_196\n      jumpi\n        /* \"#utility.yul\":7795:7796   */\n      0x00\n        /* \"#utility.yul\":7792:7793   */\n      dup1\n        /* \"#utility.yul\":7785:7797   */\n      revert\n        /* \"#utility.yul\":7737:7799   */\n    tag_196:\n        /* \"#utility.yul\":7685:7805   */\n      pop\n      jump\t// out\n        /* \"#utility.yul\":7811:7952   */\n    tag_111:\n        /* \"#utility.yul\":7867:7872   */\n      0x00\n        /* \"#utility.yul\":7898:7904   */\n      dup2\n        /* \"#utility.yul\":7892:7905   */\n      mload\n        /* \"#utility.yul\":7883:7905   */\n      swap1\n      pop\n        /* \"#utility.yul\":7914:7946   */\n      tag_198\n        /* \"#utility.yul\":7940:7945   */\n      dup2\n        /* \"#utility.yul\":7914:7946   */\n      tag_110\n      jump\t// in\n    tag_198:\n        /* \"#utility.yul\":7811:7952   */\n      swap3\n      swap2\n      pop\n      pop\n      jump\t// out\n        /* \"#utility.yul\":7958:8034   */\n    tag_112:\n        /* \"#utility.yul\":7994:8001   */\n      0x00\n        /* \"#utility.yul\":8023:8028   */\n      dup2\n        /* \"#utility.yul\":8012:8028   */\n      swap1\n      pop\n        /* \"#utility.yul\":7958:8034   */\n      swap2\n      swap1\n      pop\n      jump\t// out\n        /* \"#utility.yul\":8040:8160   */\n    tag_113:\n        /* \"#utility.yul\":8112:8135   */\n      tag_201\n        /* \"#utility.yul\":8129:8134   */\n      dup2\n        /* \"#utility.yul\":8112:8135   */\n      tag_112\n      jump\t// in\n    tag_201:\n        /* \"#utility.yul\":8105:8110   */\n      dup2\n        /* \"#utility.yul\":8102:8136   */\n      eq\n        /* \"#utility.yul\":8092:8154   */\n      tag_202\n      jumpi\n        /* \"#utility.yul\":8150:8151   */\n      0x00\n        /* \"#utility.yul\":8147:8148   */\n      dup1\n        /* \"#utility.yul\":8140:8152   */\n      revert\n        /* \"#utility.yul\":8092:8154   */\n    tag_202:\n        /* \"#utility.yul\":8040:8160   */\n      pop\n      jump\t// out\n        /* \"#utility.yul\":8166:8307   */\n    tag_114:\n        /* \"#utility.yul\":8222:8227   */\n      0x00\n        /* \"#utility.yul\":8253:8259   */\n      dup2\n        /* \"#utility.yul\":8247:8260   */\n      mload\n        /* \"#utility.yul\":8238:8260   */\n      swap1\n      pop\n        /* \"#utility.yul\":8269:8301   */\n      tag_204\n        /* \"#utility.yul\":8295:8300   */\n      dup2\n        /* \"#utility.yul\":8269:8301   */\n      tag_113\n      jump\t// in\n    tag_204:\n        /* \"#utility.yul\":8166:8307   */\n      swap3\n      swap2\n      pop\n      pop\n      jump\t// out\n        /* \"#utility.yul\":8313:8456   */\n    tag_115:\n        /* \"#utility.yul\":8370:8375   */\n      0x00\n        /* \"#utility.yul\":8401:8407   */\n      dup2\n        /* \"#utility.yul\":8395:8408   */\n      mload\n        /* \"#utility.yul\":8386:8408   */\n      swap1\n      pop\n        /* \"#utility.yul\":8417:8450   */\n      tag_206\n        /* \"#utility.yul\":8444:8449   */\n      dup2\n        /* \"#utility.yul\":8417:8450   */\n      tag_96\n      jump\t// in\n    tag_206:\n        /* \"#utility.yul\":8313:8456   */\n      swap3\n      swap2\n      pop\n      pop\n      jump\t// out\n        /* \"#utility.yul\":8462:9433   */\n    tag_77:\n        /* \"#utility.yul\":8565:8571   */\n      0x00\n        /* \"#utility.yul\":8573:8579   */\n      dup1\n        /* \"#utility.yul\":8581:8587   */\n      0x00\n        /* \"#utility.yul\":8589:8595   */\n      dup1\n        /* \"#utility.yul\":8597:8603   */\n      0x00\n        /* \"#utility.yul\":8646:8649   */\n      0xa0\n        /* \"#utility.yul\":8634:8643   */\n      dup7\n        /* \"#utility.yul\":8625:8632   */\n      dup9\n        /* \"#utility.yul\":8621:8644   */\n      sub\n        /* \"#utility.yul\":8617:8650   */\n      slt\n        /* \"#utility.yul\":8614:8734   */\n      iszero\n      tag_208\n      jumpi\n        /* \"#utility.yul\":8653:8732   */\n      tag_209\n      tag_90\n      jump\t// in\n    tag_209:\n        /* \"#utility.yul\":8614:8734   */\n    tag_208:\n        /* \"#utility.yul\":8773:8774   */\n      0x00\n        /* \"#utility.yul\":8798:8861   */\n      tag_210\n        /* \"#utility.yul\":8853:8860   */\n      dup9\n        /* \"#utility.yul\":8844:8850   */\n      dup3\n        /* \"#utility.yul\":8833:8842   */\n      dup10\n        /* \"#utility.yul\":8829:8851   */\n      add\n        /* \"#utility.yul\":8798:8861   */\n      tag_111\n      jump\t// in\n    tag_210:\n        /* \"#utility.yul\":8788:8861   */\n      swap6\n      pop\n        /* \"#utility.yul\":8744:8871   */\n      pop\n        /* \"#utility.yul\":8910:8912   */\n      0x20\n        /* \"#utility.yul\":8936:8999   */\n      tag_211\n        /* \"#utility.yul\":8991:8998   */\n      dup9\n        /* \"#utility.yul\":8982:8988   */\n      dup3\n        /* \"#utility.yul\":8971:8980   */\n      dup10\n        /* \"#utility.yul\":8967:8989   */\n      add\n        /* \"#utility.yul\":8936:8999   */\n      tag_114\n      jump\t// in\n    tag_211:\n        /* \"#utility.yul\":8926:8999   */\n      swap5\n      pop\n        /* \"#utility.yul\":8881:9009   */\n      pop\n        /* \"#utility.yul\":9048:9050   */\n      0x40\n        /* \"#utility.yul\":9074:9138   */\n      tag_212\n        /* \"#utility.yul\":9130:9137   */\n      dup9\n        /* \"#utility.yul\":9121:9127   */\n      dup3\n        /* \"#utility.yul\":9110:9119   */\n      dup10\n        /* \"#utility.yul\":9106:9128   */\n      add\n        /* \"#utility.yul\":9074:9138   */\n      tag_115\n      jump\t// in\n    tag_212:\n        /* \"#utility.yul\":9064:9138   */\n      swap4\n      pop\n        /* \"#utility.yul\":9019:9148   */\n      pop\n        /* \"#utility.yul\":9187:9189   */\n      0x60\n        /* \"#utility.yul\":9213:9277   */\n      tag_213\n        /* \"#utility.yul\":9269:9276   */\n      dup9\n        /* \"#utility.yul\":9260:9266   */\n      dup3\n        /* \"#utility.yul\":9249:9258   */\n      dup10\n        /* \"#utility.yul\":9245:9267   */\n      add\n        /* \"#utility.yul\":9213:9277   */\n      tag_115\n      jump\t// in\n    tag_213:\n        /* \"#utility.yul\":9203:9277   */\n      swap3\n      pop\n        /* \"#utility.yul\":9158:9287   */\n      pop\n        /* \"#utility.yul\":9326:9329   */\n      0x80\n        /* \"#utility.yul\":9353:9416   */\n      tag_214\n        /* \"#utility.yul\":9408:9415   */\n      dup9\n        /* \"#utility.yul\":9399:9405   */\n      dup3\n        /* \"#utility.yul\":9388:9397   */\n      dup10\n        /* \"#utility.yul\":9384:9406   */\n      add\n        /* \"#utility.yul\":9353:9416   */\n      tag_111\n      jump\t// in\n    tag_214:\n        /* \"#utility.yul\":9343:9416   */\n      swap2\n      pop\n        /* \"#utility.yul\":9297:9426   */\n      pop\n        /* \"#utility.yul\":8462:9433   */\n      swap3\n      swap6\n      pop\n      swap3\n      swap6\n      swap1\n      swap4\n      pop\n      jump\t// out\n        /* \"#utility.yul\":9439:10430   */\n    tag_79:\n        /* \"#utility.yul\":9478:9485   */\n      0x00\n        /* \"#utility.yul\":9501:9520   */\n      tag_216\n        /* \"#utility.yul\":9518:9519   */\n      dup3\n        /* \"#utility.yul\":9501:9520   */\n      tag_112\n      jump\t// in\n    tag_216:\n        /* \"#utility.yul\":9496:9520   */\n      swap2\n      pop\n        /* \"#utility.yul\":9534:9553   */\n      tag_217\n        /* \"#utility.yul\":9551:9552   */\n      dup4\n        /* \"#utility.yul\":9534:9553   */\n      tag_112\n      jump\t// in\n    tag_217:\n        /* \"#utility.yul\":9529:9553   */\n      swap3\n      pop\n        /* \"#utility.yul\":9735:9736   */\n      dup3\n        /* \"#utility.yul\":9667:9733   */\n      0x7fffffffffffffffffffffffffffffffffffffffffffffffffffffffffffffff\n        /* \"#utility.yul\":9663:9737   */\n      div\n        /* \"#utility.yul\":9660:9661   */\n      dup3\n        /* \"#utility.yul\":9657:9738   */\n      gt\n        /* \"#utility.yul\":9652:9653   */\n      0x00\n        /* \"#utility.yul\":9649:9650   */\n      dup5\n        /* \"#utility.yul\":9645:9654   */\n      sgt\n        /* \"#utility.yul\":9641:9642   */\n      0x00\n        /* \"#utility.yul\":9638:9639   */\n      dup5\n        /* \"#utility.yul\":9634:9643   */\n      sgt\n        /* \"#utility.yul\":9630:9655   */\n      and\n        /* \"#utility.yul\":9626:9739   */\n      and\n        /* \"#utility.yul\":9623:9762   */\n      iszero\n      tag_218\n      jumpi\n        /* \"#utility.yul\":9742:9760   */\n      tag_219\n      tag_99\n      jump\t// in\n    tag_219:\n        /* \"#utility.yul\":9623:9762   */\n    tag_218:\n        /* \"#utility.yul\":9946:9947   */\n      dup2\n        /* \"#utility.yul\":9878:9944   */\n      0x8000000000000000000000000000000000000000000000000000000000000000\n        /* \"#utility.yul\":9873:9948   */\n      sdiv\n        /* \"#utility.yul\":9870:9871   */\n      dup4\n        /* \"#utility.yul\":9866:9949   */\n      slt\n        /* \"#utility.yul\":9861:9862   */\n      0x00\n        /* \"#utility.yul\":9858:9859   */\n      dup5\n        /* \"#utility.yul\":9854:9863   */\n      slt\n        /* \"#utility.yul\":9850:9851   */\n      0x00\n        /* \"#utility.yul\":9847:9848   */\n      dup5\n        /* \"#utility.yul\":9843:9852   */\n      sgt\n        /* \"#utility.yul\":9839:9864   */\n      and\n        /* \"#utility.yul\":9835:9950   */\n      and\n        /* \"#utility.yul\":9832:9973   */\n      iszero\n      tag_220\n      jumpi\n        /* \"#utility.yul\":9953:9971   */\n      tag_221\n      tag_99\n      jump\t// in\n    tag_221:\n        /* \"#utility.yul\":9832:9973   */\n    tag_220:\n        /* \"#utility.yul\":10157:10158   */\n      dup3\n        /* \"#utility.yul\":10089:10155   */\n      0x8000000000000000000000000000000000000000000000000000000000000000\n        /* \"#utility.yul\":10084:10159   */\n      sdiv\n        /* \"#utility.yul\":10081:10082   */\n      dup3\n        /* \"#utility.yul\":10077:10160   */\n      slt\n        /* \"#utility.yul\":10072:10073   */\n      0x00\n        /* \"#utility.yul\":10069:10070   */\n      dup5\n        /* \"#utility.yul\":10065:10074   */\n      sgt\n        /* \"#utility.yul\":10061:10062   */\n      0x00\n        /* \"#utility.yul\":10058:10059   */\n      dup5\n        /* \"#utility.yul\":10054:10063   */\n      slt\n        /* \"#utility.yul\":10050:10075   */\n      and\n        /* \"#utility.yul\":10046:10161   */\n      and\n        /* \"#utility.yul\":10043:10184   */\n      iszero\n      tag_222\n      jumpi\n        /* \"#utility.yul\":10164:10182   */\n      tag_223\n      tag_99\n      jump\t// in\n    tag_223:\n        /* \"#utility.yul\":10043:10184   */\n    tag_222:\n        /* \"#utility.yul\":10367:10368   */\n      dup3\n        /* \"#utility.yul\":10299:10365   */\n      0x7fffffffffffffffffffffffffffffffffffffffffffffffffffffffffffffff\n        /* \"#utility.yul\":10294:10369   */\n      sdiv\n        /* \"#utility.yul\":10291:10292   */\n      dup3\n        /* \"#utility.yul\":10287:10370   */\n      slt\n        /* \"#utility.yul\":10282:10283   */\n      0x00\n        /* \"#utility.yul\":10279:10280   */\n      dup5\n        /* \"#utility.yul\":10275:10284   */\n      slt\n        /* \"#utility.yul\":10271:10272   */\n      0x00\n        /* \"#utility.yul\":10268:10269   */\n      dup5\n        /* \"#utility.yul\":10264:10273   */\n      slt\n        /* \"#utility.yul\":10260:10285   */\n      and\n        /* \"#utility.yul\":10256:10371   */\n      and\n        /* \"#utility.yul\":10253:10394   */\n      iszero\n      tag_224\n      jumpi\n        /* \"#utility.yul\":10374:10392   */\n      tag_225\n      tag_99\n      jump\t// in\n    tag_225:\n        /* \"#utility.yul\":10253:10394   */\n    tag_224:\n        /* \"#utility.yul\":10422:10423   */\n      dup3\n        /* \"#utility.yul\":10419:10420   */\n      dup3\n        /* \"#utility.yul\":10415:10424   */\n      mul\n        /* \"#utility.yul\":10404:10424   */\n      swap1\n      pop\n        /* \"#utility.yul\":9439:10430   */\n      swap3\n      swap2\n      pop\n      pop\n      jump\t// out\n\n    auxdata: 0xa2646970667358221220607faeb3aec1acafd857f69d7120619e091afa164fe2da03e93cc726fb208b3f64736f6c63430008080033\n}\n",
				"bytecode": {
					"linkReferences": {},
					"object": "60806040526802b5e3af16b188000060005534801561001d57600080fd5b50610c808061002d6000396000f3fe60806040526004361061004a5760003560e01c80633ccfd60b1461004f57806351b80e4114610066578063600a6ef614610091578063b60d4288146100ce578063dc0d3dff146100d8575b600080fd5b34801561005b57600080fd5b50610064610115565b005b34801561007257600080fd5b5061007b6102d1565b60405161008891906105e8565b60405180910390f35b34801561009d57600080fd5b506100b860048036038101906100b39190610666565b6102d7565b6040516100c591906105e8565b60405180910390f35b6100d66102ef565b005b3480156100e457600080fd5b506100ff60048036038101906100fa91906106bf565b6103f7565b60405161010c91906106fb565b60405180910390f35b60005b6001805490508110156101c15760006001828154811061013b5761013a610716565b5b9060005260206000200160009054906101000a900473ffffffffffffffffffffffffffffffffffffffff1690506000600260008373ffffffffffffffffffffffffffffffffffffffff1673ffffffffffffffffffffffffffffffffffffffff168152602001908152602001600020819055505080806101b990610774565b915050610118565b50600067ffffffffffffffff8111156101dd576101dc6107bd565b5b60405190808252806020026020018201604052801561020b5781602001602082028036833780820191505090505b5060019080519060200190610221929190610528565b5060003373ffffffffffffffffffffffffffffffffffffffff16476040516102489061081d565b60006040518083038185875af1925050503d8060008114610285576040519150601f19603f3d011682016040523d82523d6000602084013e61028a565b606091505b50509050806102ce576040517f08c379a00000000000000000000000000000000000000000000000000000000081526004016102c59061088f565b60405180910390fd5b50565b60005481565b60026020528060005260406000206000915090505481565b6000546102fb34610436565b101561033c576040517f08c379a0000000000000000000000000000000000000000000000000000000008152600401610333906108fb565b60405180910390fd5b6001339080600181540180825580915050600190039060005260206000200160009091909190916101000a81548173ffffffffffffffffffffffffffffffffffffffff021916908373ffffffffffffffffffffffffffffffffffffffff16021790555034600260003373ffffffffffffffffffffffffffffffffffffffff1673ffffffffffffffffffffffffffffffffffffffff16815260200190815260200160002060008282546103ee919061091b565b92505081905550565b6001818154811061040757600080fd5b906000526020600020016000915054906101000a900473ffffffffffffffffffffffffffffffffffffffff1681565b600080610441610470565b90506000670de0b6b3a7640000848361045a9190610971565b61046491906109fa565b90508092505050919050565b600080735f4ec3df9cbd43714fe2740f5e3616155c5b8419905060008173ffffffffffffffffffffffffffffffffffffffff1663feaf968c6040518163ffffffff1660e01b815260040160a06040518083038186803b1580156104d257600080fd5b505afa1580156104e6573d6000803e3d6000fd5b505050506040513d601f19601f8201168201806040525081019061050a9190610ab8565b5050509150506402540be400816105219190610b33565b9250505090565b8280548282559060005260206000209081019282156105a1579160200282015b828111156105a05782518260006101000a81548173ffffffffffffffffffffffffffffffffffffffff021916908373ffffffffffffffffffffffffffffffffffffffff16021790555091602001919060010190610548565b5b5090506105ae91906105b2565b5090565b5b808211156105cb5760008160009055506001016105b3565b5090565b6000819050919050565b6105e2816105cf565b82525050565b60006020820190506105fd60008301846105d9565b92915050565b600080fd5b600073ffffffffffffffffffffffffffffffffffffffff82169050919050565b600061063382610608565b9050919050565b61064381610628565b811461064e57600080fd5b50565b6000813590506106608161063a565b92915050565b60006020828403121561067c5761067b610603565b5b600061068a84828501610651565b91505092915050565b61069c816105cf565b81146106a757600080fd5b50565b6000813590506106b981610693565b92915050565b6000602082840312156106d5576106d4610603565b5b60006106e3848285016106aa565b91505092915050565b6106f581610628565b82525050565b600060208201905061071060008301846106ec565b92915050565b7f4e487b7100000000000000000000000000000000000000000000000000000000600052603260045260246000fd5b7f4e487b7100000000000000000000000000000000000000000000000000000000600052601160045260246000fd5b600061077f826105cf565b91507fffffffffffffffffffffffffffffffffffffffffffffffffffffffffffffffff8214156107b2576107b1610745565b5b600182019050919050565b7f4e487b7100000000000000000000000000000000000000000000000000000000600052604160045260246000fd5b600081905092915050565b50565b60006108076000836107ec565b9150610812826107f7565b600082019050919050565b6000610828826107fa565b9150819050919050565b600082825260208201905092915050565b7f43616c6c204661696c6564000000000000000000000000000000000000000000600082015250565b6000610879600b83610832565b915061088482610843565b602082019050919050565b600060208201905081810360008301526108a88161086c565b9050919050565b7f4e6f7420656e6f75676800000000000000000000000000000000000000000000600082015250565b60006108e5600a83610832565b91506108f0826108af565b602082019050919050565b60006020820190508181036000830152610914816108d8565b9050919050565b6000610926826105cf565b9150610931836105cf565b9250827fffffffffffffffffffffffffffffffffffffffffffffffffffffffffffffffff0382111561096657610965610745565b5b828201905092915050565b600061097c826105cf565b9150610987836105cf565b9250817fffffffffffffffffffffffffffffffffffffffffffffffffffffffffffffffff04831182151516156109c0576109bf610745565b5b828202905092915050565b7f4e487b7100000000000000000000000000000000000000000000000000000000600052601260045260246000fd5b6000610a05826105cf565b9150610a10836105cf565b925082610a2057610a1f6109cb565b5b828204905092915050565b600069ffffffffffffffffffff82169050919050565b610a4a81610a2b565b8114610a5557600080fd5b50565b600081519050610a6781610a41565b92915050565b6000819050919050565b610a8081610a6d565b8114610a8b57600080fd5b50565b600081519050610a9d81610a77565b92915050565b600081519050610ab281610693565b92915050565b600080600080600060a08688031215610ad457610ad3610603565b5b6000610ae288828901610a58565b9550506020610af388828901610a8e565b9450506040610b0488828901610aa3565b9350506060610b1588828901610aa3565b9250506080610b2688828901610a58565b9150509295509295909350565b6000610b3e82610a6d565b9150610b4983610a6d565b9250827f7fffffffffffffffffffffffffffffffffffffffffffffffffffffffffffffff0482116000841360008413161615610b8857610b87610745565b5b817f80000000000000000000000000000000000000000000000000000000000000000583126000841260008413161615610bc557610bc4610745565b5b827f80000000000000000000000000000000000000000000000000000000000000000582126000841360008412161615610c0257610c01610745565b5b827f7fffffffffffffffffffffffffffffffffffffffffffffffffffffffffffffff0582126000841260008412161615610c3f57610c3e610745565b5b82820290509291505056fea2646970667358221220607faeb3aec1acafd857f69d7120619e091afa164fe2da03e93cc726fb208b3f64736f6c63430008080033",
					"opcodes": "PUSH1 0x80 PUSH1 0x40 MSTORE PUSH9 0x2B5E3AF16B1880000 PUSH1 0x0 SSTORE CALLVALUE DUP1 ISZERO PUSH2 0x1D JUMPI PUSH1 0x0 DUP1 REVERT JUMPDEST POP PUSH2 0xC80 DUP1 PUSH2 0x2D PUSH1 0x0 CODECOPY PUSH1 0x0 RETURN INVALID PUSH1 0x80 PUSH1 0x40 MSTORE PUSH1 0x4 CALLDATASIZE LT PUSH2 0x4A JUMPI PUSH1 0x0 CALLDATALOAD PUSH1 0xE0 SHR DUP1 PUSH4 0x3CCFD60B EQ PUSH2 0x4F JUMPI DUP1 PUSH4 0x51B80E41 EQ PUSH2 0x66 JUMPI DUP1 PUSH4 0x600A6EF6 EQ PUSH2 0x91 JUMPI DUP1 PUSH4 0xB60D4288 EQ PUSH2 0xCE JUMPI DUP1 PUSH4 0xDC0D3DFF EQ PUSH2 0xD8 JUMPI JUMPDEST PUSH1 0x0 DUP1 REVERT JUMPDEST CALLVALUE DUP1 ISZERO PUSH2 0x5B JUMPI PUSH1 0x0 DUP1 REVERT JUMPDEST POP PUSH2 0x64 PUSH2 0x115 JUMP JUMPDEST STOP JUMPDEST CALLVALUE DUP1 ISZERO PUSH2 0x72 JUMPI PUSH1 0x0 DUP1 REVERT JUMPDEST POP PUSH2 0x7B PUSH2 0x2D1 JUMP JUMPDEST PUSH1 0x40 MLOAD PUSH2 0x88 SWAP2 SWAP1 PUSH2 0x5E8 JUMP JUMPDEST PUSH1 0x40 MLOAD DUP1 SWAP2 SUB SWAP1 RETURN JUMPDEST CALLVALUE DUP1 ISZERO PUSH2 0x9D JUMPI PUSH1 0x0 DUP1 REVERT JUMPDEST POP PUSH2 0xB8 PUSH1 0x4 DUP1 CALLDATASIZE SUB DUP2 ADD SWAP1 PUSH2 0xB3 SWAP2 SWAP1 PUSH2 0x666 JUMP JUMPDEST PUSH2 0x2D7 JUMP JUMPDEST PUSH1 0x40 MLOAD PUSH2 0xC5 SWAP2 SWAP1 PUSH2 0x5E8 JUMP JUMPDEST PUSH1 0x40 MLOAD DUP1 SWAP2 SUB SWAP1 RETURN JUMPDEST PUSH2 0xD6 PUSH2 0x2EF JUMP JUMPDEST STOP JUMPDEST CALLVALUE DUP1 ISZERO PUSH2 0xE4 JUMPI PUSH1 0x0 DUP1 REVERT JUMPDEST POP PUSH2 0xFF PUSH1 0x4 DUP1 CALLDATASIZE SUB DUP2 ADD SWAP1 PUSH2 0xFA SWAP2 SWAP1 PUSH2 0x6BF JUMP JUMPDEST PUSH2 0x3F7 JUMP JUMPDEST PUSH1 0x40 MLOAD PUSH2 0x10C SWAP2 SWAP1 PUSH2 0x6FB JUMP JUMPDEST PUSH1 0x40 MLOAD DUP1 SWAP2 SUB SWAP1 RETURN JUMPDEST PUSH1 0x0 JUMPDEST PUSH1 0x1 DUP1 SLOAD SWAP1 POP DUP2 LT ISZERO PUSH2 0x1C1 JUMPI PUSH1 0x0 PUSH1 0x1 DUP3 DUP2 SLOAD DUP2 LT PUSH2 0x13B JUMPI PUSH2 0x13A PUSH2 0x716 JUMP JUMPDEST JUMPDEST SWAP1 PUSH1 0x0 MSTORE PUSH1 0x20 PUSH1 0x0 KECCAK256 ADD PUSH1 0x0 SWAP1 SLOAD SWAP1 PUSH2 0x100 EXP SWAP1 DIV PUSH20 0xFFFFFFFFFFFFFFFFFFFFFFFFFFFFFFFFFFFFFFFF AND SWAP1 POP PUSH1 0x0 PUSH1 0x2 PUSH1 0x0 DUP4 PUSH20 0xFFFFFFFFFFFFFFFFFFFFFFFFFFFFFFFFFFFFFFFF AND PUSH20 0xFFFFFFFFFFFFFFFFFFFFFFFFFFFFFFFFFFFFFFFF AND DUP2 MSTORE PUSH1 0x20 ADD SWAP1 DUP2 MSTORE PUSH1 0x20 ADD PUSH1 0x0 KECCAK256 DUP2 SWAP1 SSTORE POP POP DUP1 DUP1 PUSH2 0x1B9 SWAP1 PUSH2 0x774 JUMP JUMPDEST SWAP2 POP POP PUSH2 0x118 JUMP JUMPDEST POP PUSH1 0x0 PUSH8 0xFFFFFFFFFFFFFFFF DUP2 GT ISZERO PUSH2 0x1DD JUMPI PUSH2 0x1DC PUSH2 0x7BD JUMP JUMPDEST JUMPDEST PUSH1 0x40 MLOAD SWAP1 DUP1 DUP3 MSTORE DUP1 PUSH1 0x20 MUL PUSH1 0x20 ADD DUP3 ADD PUSH1 0x40 MSTORE DUP1 ISZERO PUSH2 0x20B JUMPI DUP2 PUSH1 0x20 ADD PUSH1 0x20 DUP3 MUL DUP1 CALLDATASIZE DUP4 CALLDATACOPY DUP1 DUP3 ADD SWAP2 POP POP SWAP1 POP JUMPDEST POP PUSH1 0x1 SWAP1 DUP1 MLOAD SWAP1 PUSH1 0x20 ADD SWAP1 PUSH2 0x221 SWAP3 SWAP2 SWAP1 PUSH2 0x528 JUMP JUMPDEST POP PUSH1 0x0 CALLER PUSH20 0xFFFFFFFFFFFFFFFFFFFFFFFFFFFFFFFFFFFFFFFF AND SELFBALANCE PUSH1 0x40 MLOAD PUSH2 0x248 SWAP1 PUSH2 0x81D JUMP JUMPDEST PUSH1 0x0 PUSH1 0x40 MLOAD DUP1 DUP4 SUB DUP2 DUP6 DUP8 GAS CALL SWAP3 POP POP POP RETURNDATASIZE DUP1 PUSH1 0x0 DUP2 EQ PUSH2 0x285 JUMPI PUSH1 0x40 MLOAD SWAP2 POP PUSH1 0x1F NOT PUSH1 0x3F RETURNDATASIZE ADD AND DUP3 ADD PUSH1 0x40 MSTORE RETURNDATASIZE DUP3 MSTORE RETURNDATASIZE PUSH1 0x0 PUSH1 0x20 DUP5 ADD RETURNDATACOPY PUSH2 0x28A JUMP JUMPDEST PUSH1 0x60 SWAP2 POP JUMPDEST POP POP SWAP1 POP DUP1 PUSH2 0x2CE JUMPI PUSH1 0x40 MLOAD PUSH32 0x8C379A000000000000000000000000000000000000000000000000000000000 DUP2 MSTORE PUSH1 0x4 ADD PUSH2 0x2C5 SWAP1 PUSH2 0x88F JUMP JUMPDEST PUSH1 0x40 MLOAD DUP1 SWAP2 SUB SWAP1 REVERT JUMPDEST POP JUMP JUMPDEST PUSH1 0x0 SLOAD DUP2 JUMP JUMPDEST PUSH1 0x2 PUSH1 0x20 MSTORE DUP1 PUSH1 0x0 MSTORE PUSH1 0x40 PUSH1 0x0 KECCAK256 PUSH1 0x0 SWAP2 POP SWAP1 POP SLOAD DUP2 JUMP JUMPDEST PUSH1 0x0 SLOAD PUSH2 0x2FB CALLVALUE PUSH2 0x436 JUMP JUMPDEST LT ISZERO PUSH2 0x33C JUMPI PUSH1 0x40 MLOAD PUSH32 0x8C379A000000000000000000000000000000000000000000000000000000000 DUP2 MSTORE PUSH1 0x4 ADD PUSH2 0x333 SWAP1 PUSH2 0x8FB JUMP JUMPDEST PUSH1 0x40 MLOAD DUP1 SWAP2 SUB SWAP1 REVERT JUMPDEST PUSH1 0x1 CALLER SWAP1 DUP1 PUSH1 0x1 DUP2 SLOAD ADD DUP1 DUP3 SSTORE DUP1 SWAP2 POP POP PUSH1 0x1 SWAP1 SUB SWAP1 PUSH1 0x0 MSTORE PUSH1 0x20 PUSH1 0x0 KECCAK256 ADD PUSH1 0x0 SWAP1 SWAP2 SWAP1 SWAP2 SWAP1 SWAP2 PUSH2 0x100 EXP DUP2 SLOAD DUP2 PUSH20 0xFFFFFFFFFFFFFFFFFFFFFFFFFFFFFFFFFFFFFFFF MUL NOT AND SWAP1 DUP4 PUSH20 0xFFFFFFFFFFFFFFFFFFFFFFFFFFFFFFFFFFFFFFFF AND MUL OR SWAP1 SSTORE POP CALLVALUE PUSH1 0x2 PUSH1 0x0 CALLER PUSH20 0xFFFFFFFFFFFFFFFFFFFFFFFFFFFFFFFFFFFFFFFF AND PUSH20 0xFFFFFFFFFFFFFFFFFFFFFFFFFFFFFFFFFFFFFFFF AND DUP2 MSTORE PUSH1 0x20 ADD SWAP1 DUP2 MSTORE PUSH1 0x20 ADD PUSH1 0x0 KECCAK256 PUSH1 0x0 DUP3 DUP3 SLOAD PUSH2 0x3EE SWAP2 SWAP1 PUSH2 0x91B JUMP JUMPDEST SWAP3 POP POP DUP2 SWAP1 SSTORE POP JUMP JUMPDEST PUSH1 0x1 DUP2 DUP2 SLOAD DUP2 LT PUSH2 0x407 JUMPI PUSH1 0x0 DUP1 REVERT JUMPDEST SWAP1 PUSH1 0x0 MSTORE PUSH1 0x20 PUSH1 0x0 KECCAK256 ADD PUSH1 0x0 SWAP2 POP SLOAD SWAP1 PUSH2 0x100 EXP SWAP1 DIV PUSH20 0xFFFFFFFFFFFFFFFFFFFFFFFFFFFFFFFFFFFFFFFF AND DUP2 JUMP JUMPDEST PUSH1 0x0 DUP1 PUSH2 0x441 PUSH2 0x470 JUMP JUMPDEST SWAP1 POP PUSH1 0x0 PUSH8 0xDE0B6B3A7640000 DUP5 DUP4 PUSH2 0x45A SWAP2 SWAP1 PUSH2 0x971 JUMP JUMPDEST PUSH2 0x464 SWAP2 SWAP1 PUSH2 0x9FA JUMP JUMPDEST SWAP1 POP DUP1 SWAP3 POP POP POP SWAP2 SWAP1 POP JUMP JUMPDEST PUSH1 0x0 DUP1 PUSH20 0x5F4EC3DF9CBD43714FE2740F5E3616155C5B8419 SWAP1 POP PUSH1 0x0 DUP2 PUSH20 0xFFFFFFFFFFFFFFFFFFFFFFFFFFFFFFFFFFFFFFFF AND PUSH4 0xFEAF968C PUSH1 0x40 MLOAD DUP2 PUSH4 0xFFFFFFFF AND PUSH1 0xE0 SHL DUP2 MSTORE PUSH1 0x4 ADD PUSH1 0xA0 PUSH1 0x40 MLOAD DUP1 DUP4 SUB DUP2 DUP7 DUP1 EXTCODESIZE ISZERO DUP1 ISZERO PUSH2 0x4D2 JUMPI PUSH1 0x0 DUP1 REVERT JUMPDEST POP GAS STATICCALL ISZERO DUP1 ISZERO PUSH2 0x4E6 JUMPI RETURNDATASIZE PUSH1 0x0 DUP1 RETURNDATACOPY RETURNDATASIZE PUSH1 0x0 REVERT JUMPDEST POP POP POP POP PUSH1 0x40 MLOAD RETURNDATASIZE PUSH1 0x1F NOT PUSH1 0x1F DUP3 ADD AND DUP3 ADD DUP1 PUSH1 0x40 MSTORE POP DUP2 ADD SWAP1 PUSH2 0x50A SWAP2 SWAP1 PUSH2 0xAB8 JUMP JUMPDEST POP POP POP SWAP2 POP POP PUSH5 0x2540BE400 DUP2 PUSH2 0x521 SWAP2 SWAP1 PUSH2 0xB33 JUMP JUMPDEST SWAP3 POP POP POP SWAP1 JUMP JUMPDEST DUP3 DUP1 SLOAD DUP3 DUP3 SSTORE SWAP1 PUSH1 0x0 MSTORE PUSH1 0x20 PUSH1 0x0 KECCAK256 SWAP1 DUP2 ADD SWAP3 DUP3 ISZERO PUSH2 0x5A1 JUMPI SWAP2 PUSH1 0x20 MUL DUP3 ADD JUMPDEST DUP3 DUP2 GT ISZERO PUSH2 0x5A0 JUMPI DUP3 MLOAD DUP3 PUSH1 0x0 PUSH2 0x100 EXP DUP2 SLOAD DUP2 PUSH20 0xFFFFFFFFFFFFFFFFFFFFFFFFFFFFFFFFFFFFFFFF MUL NOT AND SWAP1 DUP4 PUSH20 0xFFFFFFFFFFFFFFFFFFFFFFFFFFFFFFFFFFFFFFFF AND MUL OR SWAP1 SSTORE POP SWAP2 PUSH1 0x20 ADD SWAP2 SWAP1 PUSH1 0x1 ADD SWAP1 PUSH2 0x548 JUMP JUMPDEST JUMPDEST POP SWAP1 POP PUSH2 0x5AE SWAP2 SWAP1 PUSH2 0x5B2 JUMP JUMPDEST POP SWAP1 JUMP JUMPDEST JUMPDEST DUP1 DUP3 GT ISZERO PUSH2 0x5CB JUMPI PUSH1 0x0 DUP2 PUSH1 0x0 SWAP1 SSTORE POP PUSH1 0x1 ADD PUSH2 0x5B3 JUMP JUMPDEST POP SWAP1 JUMP JUMPDEST PUSH1 0x0 DUP2 SWAP1 POP SWAP2 SWAP1 POP JUMP JUMPDEST PUSH2 0x5E2 DUP2 PUSH2 0x5CF JUMP JUMPDEST DUP3 MSTORE POP POP JUMP JUMPDEST PUSH1 0x0 PUSH1 0x20 DUP3 ADD SWAP1 POP PUSH2 0x5FD PUSH1 0x0 DUP4 ADD DUP5 PUSH2 0x5D9 JUMP JUMPDEST SWAP3 SWAP2 POP POP JUMP JUMPDEST PUSH1 0x0 DUP1 REVERT JUMPDEST PUSH1 0x0 PUSH20 0xFFFFFFFFFFFFFFFFFFFFFFFFFFFFFFFFFFFFFFFF DUP3 AND SWAP1 POP SWAP2 SWAP1 POP JUMP JUMPDEST PUSH1 0x0 PUSH2 0x633 DUP3 PUSH2 0x608 JUMP JUMPDEST SWAP1 POP SWAP2 SWAP1 POP JUMP JUMPDEST PUSH2 0x643 DUP2 PUSH2 0x628 JUMP JUMPDEST DUP2 EQ PUSH2 0x64E JUMPI PUSH1 0x0 DUP1 REVERT JUMPDEST POP JUMP JUMPDEST PUSH1 0x0 DUP2 CALLDATALOAD SWAP1 POP PUSH2 0x660 DUP2 PUSH2 0x63A JUMP JUMPDEST SWAP3 SWAP2 POP POP JUMP JUMPDEST PUSH1 0x0 PUSH1 0x20 DUP3 DUP5 SUB SLT ISZERO PUSH2 0x67C JUMPI PUSH2 0x67B PUSH2 0x603 JUMP JUMPDEST JUMPDEST PUSH1 0x0 PUSH2 0x68A DUP5 DUP3 DUP6 ADD PUSH2 0x651 JUMP JUMPDEST SWAP2 POP POP SWAP3 SWAP2 POP POP JUMP JUMPDEST PUSH2 0x69C DUP2 PUSH2 0x5CF JUMP JUMPDEST DUP2 EQ PUSH2 0x6A7 JUMPI PUSH1 0x0 DUP1 REVERT JUMPDEST POP JUMP JUMPDEST PUSH1 0x0 DUP2 CALLDATALOAD SWAP1 POP PUSH2 0x6B9 DUP2 PUSH2 0x693 JUMP JUMPDEST SWAP3 SWAP2 POP POP JUMP JUMPDEST PUSH1 0x0 PUSH1 0x20 DUP3 DUP5 SUB SLT ISZERO PUSH2 0x6D5 JUMPI PUSH2 0x6D4 PUSH2 0x603 JUMP JUMPDEST JUMPDEST PUSH1 0x0 PUSH2 0x6E3 DUP5 DUP3 DUP6 ADD PUSH2 0x6AA JUMP JUMPDEST SWAP2 POP POP SWAP3 SWAP2 POP POP JUMP JUMPDEST PUSH2 0x6F5 DUP2 PUSH2 0x628 JUMP JUMPDEST DUP3 MSTORE POP POP JUMP JUMPDEST PUSH1 0x0 PUSH1 0x20 DUP3 ADD SWAP1 POP PUSH2 0x710 PUSH1 0x0 DUP4 ADD DUP5 PUSH2 0x6EC JUMP JUMPDEST SWAP3 SWAP2 POP POP JUMP JUMPDEST PUSH32 0x4E487B7100000000000000000000000000000000000000000000000000000000 PUSH1 0x0 MSTORE PUSH1 0x32 PUSH1 0x4 MSTORE PUSH1 0x24 PUSH1 0x0 REVERT JUMPDEST PUSH32 0x4E487B7100000000000000000000000000000000000000000000000000000000 PUSH1 0x0 MSTORE PUSH1 0x11 PUSH1 0x4 MSTORE PUSH1 0x24 PUSH1 0x0 REVERT JUMPDEST PUSH1 0x0 PUSH2 0x77F DUP3 PUSH2 0x5CF JUMP JUMPDEST SWAP2 POP PUSH32 0xFFFFFFFFFFFFFFFFFFFFFFFFFFFFFFFFFFFFFFFFFFFFFFFFFFFFFFFFFFFFFFFF DUP3 EQ ISZERO PUSH2 0x7B2 JUMPI PUSH2 0x7B1 PUSH2 0x745 JUMP JUMPDEST JUMPDEST PUSH1 0x1 DUP3 ADD SWAP1 POP SWAP2 SWAP1 POP JUMP JUMPDEST PUSH32 0x4E487B7100000000000000000000000000000000000000000000000000000000 PUSH1 0x0 MSTORE PUSH1 0x41 PUSH1 0x4 MSTORE PUSH1 0x24 PUSH1 0x0 REVERT JUMPDEST PUSH1 0x0 DUP2 SWAP1 POP SWAP3 SWAP2 POP POP JUMP JUMPDEST POP JUMP JUMPDEST PUSH1 0x0 PUSH2 0x807 PUSH1 0x0 DUP4 PUSH2 0x7EC JUMP JUMPDEST SWAP2 POP PUSH2 0x812 DUP3 PUSH2 0x7F7 JUMP JUMPDEST PUSH1 0x0 DUP3 ADD SWAP1 POP SWAP2 SWAP1 POP JUMP JUMPDEST PUSH1 0x0 PUSH2 0x828 DUP3 PUSH2 0x7FA JUMP JUMPDEST SWAP2 POP DUP2 SWAP1 POP SWAP2 SWAP1 POP JUMP JUMPDEST PUSH1 0x0 DUP3 DUP3 MSTORE PUSH1 0x20 DUP3 ADD SWAP1 POP SWAP3 SWAP2 POP POP JUMP JUMPDEST PUSH32 0x43616C6C204661696C6564000000000000000000000000000000000000000000 PUSH1 0x0 DUP3 ADD MSTORE POP JUMP JUMPDEST PUSH1 0x0 PUSH2 0x879 PUSH1 0xB DUP4 PUSH2 0x832 JUMP JUMPDEST SWAP2 POP PUSH2 0x884 DUP3 PUSH2 0x843 JUMP JUMPDEST PUSH1 0x20 DUP3 ADD SWAP1 POP SWAP2 SWAP1 POP JUMP JUMPDEST PUSH1 0x0 PUSH1 0x20 DUP3 ADD SWAP1 POP DUP2 DUP2 SUB PUSH1 0x0 DUP4 ADD MSTORE PUSH2 0x8A8 DUP2 PUSH2 0x86C JUMP JUMPDEST SWAP1 POP SWAP2 SWAP1 POP JUMP JUMPDEST PUSH32 0x4E6F7420656E6F75676800000000000000000000000000000000000000000000 PUSH1 0x0 DUP3 ADD MSTORE POP JUMP JUMPDEST PUSH1 0x0 PUSH2 0x8E5 PUSH1 0xA DUP4 PUSH2 0x832 JUMP JUMPDEST SWAP2 POP PUSH2 0x8F0 DUP3 PUSH2 0x8AF JUMP JUMPDEST PUSH1 0x20 DUP3 ADD SWAP1 POP SWAP2 SWAP1 POP JUMP JUMPDEST PUSH1 0x0 PUSH1 0x20 DUP3 ADD SWAP1 POP DUP2 DUP2 SUB PUSH1 0x0 DUP4 ADD MSTORE PUSH2 0x914 DUP2 PUSH2 0x8D8 JUMP JUMPDEST SWAP1 POP SWAP2 SWAP1 POP JUMP JUMPDEST PUSH1 0x0 PUSH2 0x926 DUP3 PUSH2 0x5CF JUMP JUMPDEST SWAP2 POP PUSH2 0x931 DUP4 PUSH2 0x5CF JUMP JUMPDEST SWAP3 POP DUP3 PUSH32 0xFFFFFFFFFFFFFFFFFFFFFFFFFFFFFFFFFFFFFFFFFFFFFFFFFFFFFFFFFFFFFFFF SUB DUP3 GT ISZERO PUSH2 0x966 JUMPI PUSH2 0x965 PUSH2 0x745 JUMP JUMPDEST JUMPDEST DUP3 DUP3 ADD SWAP1 POP SWAP3 SWAP2 POP POP JUMP JUMPDEST PUSH1 0x0 PUSH2 0x97C DUP3 PUSH2 0x5CF JUMP JUMPDEST SWAP2 POP PUSH2 0x987 DUP4 PUSH2 0x5CF JUMP JUMPDEST SWAP3 POP DUP2 PUSH32 0xFFFFFFFFFFFFFFFFFFFFFFFFFFFFFFFFFFFFFFFFFFFFFFFFFFFFFFFFFFFFFFFF DIV DUP4 GT DUP3 ISZERO ISZERO AND ISZERO PUSH2 0x9C0 JUMPI PUSH2 0x9BF PUSH2 0x745 JUMP JUMPDEST JUMPDEST DUP3 DUP3 MUL SWAP1 POP SWAP3 SWAP2 POP POP JUMP JUMPDEST PUSH32 0x4E487B7100000000000000000000000000000000000000000000000000000000 PUSH1 0x0 MSTORE PUSH1 0x12 PUSH1 0x4 MSTORE PUSH1 0x24 PUSH1 0x0 REVERT JUMPDEST PUSH1 0x0 PUSH2 0xA05 DUP3 PUSH2 0x5CF JUMP JUMPDEST SWAP2 POP PUSH2 0xA10 DUP4 PUSH2 0x5CF JUMP JUMPDEST SWAP3 POP DUP3 PUSH2 0xA20 JUMPI PUSH2 0xA1F PUSH2 0x9CB JUMP JUMPDEST JUMPDEST DUP3 DUP3 DIV SWAP1 POP SWAP3 SWAP2 POP POP JUMP JUMPDEST PUSH1 0x0 PUSH10 0xFFFFFFFFFFFFFFFFFFFF DUP3 AND SWAP1 POP SWAP2 SWAP1 POP JUMP JUMPDEST PUSH2 0xA4A DUP2 PUSH2 0xA2B JUMP JUMPDEST DUP2 EQ PUSH2 0xA55 JUMPI PUSH1 0x0 DUP1 REVERT JUMPDEST POP JUMP JUMPDEST PUSH1 0x0 DUP2 MLOAD SWAP1 POP PUSH2 0xA67 DUP2 PUSH2 0xA41 JUMP JUMPDEST SWAP3 SWAP2 POP POP JUMP JUMPDEST PUSH1 0x0 DUP2 SWAP1 POP SWAP2 SWAP1 POP JUMP JUMPDEST PUSH2 0xA80 DUP2 PUSH2 0xA6D JUMP JUMPDEST DUP2 EQ PUSH2 0xA8B JUMPI PUSH1 0x0 DUP1 REVERT JUMPDEST POP JUMP JUMPDEST PUSH1 0x0 DUP2 MLOAD SWAP1 POP PUSH2 0xA9D DUP2 PUSH2 0xA77 JUMP JUMPDEST SWAP3 SWAP2 POP POP JUMP JUMPDEST PUSH1 0x0 DUP2 MLOAD SWAP1 POP PUSH2 0xAB2 DUP2 PUSH2 0x693 JUMP JUMPDEST SWAP3 SWAP2 POP POP JUMP JUMPDEST PUSH1 0x0 DUP1 PUSH1 0x0 DUP1 PUSH1 0x0 PUSH1 0xA0 DUP7 DUP9 SUB SLT ISZERO PUSH2 0xAD4 JUMPI PUSH2 0xAD3 PUSH2 0x603 JUMP JUMPDEST JUMPDEST PUSH1 0x0 PUSH2 0xAE2 DUP9 DUP3 DUP10 ADD PUSH2 0xA58 JUMP JUMPDEST SWAP6 POP POP PUSH1 0x20 PUSH2 0xAF3 DUP9 DUP3 DUP10 ADD PUSH2 0xA8E JUMP JUMPDEST SWAP5 POP POP PUSH1 0x40 PUSH2 0xB04 DUP9 DUP3 DUP10 ADD PUSH2 0xAA3 JUMP JUMPDEST SWAP4 POP POP PUSH1 0x60 PUSH2 0xB15 DUP9 DUP3 DUP10 ADD PUSH2 0xAA3 JUMP JUMPDEST SWAP3 POP POP PUSH1 0x80 PUSH2 0xB26 DUP9 DUP3 DUP10 ADD PUSH2 0xA58 JUMP JUMPDEST SWAP2 POP POP SWAP3 SWAP6 POP SWAP3 SWAP6 SWAP1 SWAP4 POP JUMP JUMPDEST PUSH1 0x0 PUSH2 0xB3E DUP3 PUSH2 0xA6D JUMP JUMPDEST SWAP2 POP PUSH2 0xB49 DUP4 PUSH2 0xA6D JUMP JUMPDEST SWAP3 POP DUP3 PUSH32 0x7FFFFFFFFFFFFFFFFFFFFFFFFFFFFFFFFFFFFFFFFFFFFFFFFFFFFFFFFFFFFFFF DIV DUP3 GT PUSH1 0x0 DUP5 SGT PUSH1 0x0 DUP5 SGT AND AND ISZERO PUSH2 0xB88 JUMPI PUSH2 0xB87 PUSH2 0x745 JUMP JUMPDEST JUMPDEST DUP2 PUSH32 0x8000000000000000000000000000000000000000000000000000000000000000 SDIV DUP4 SLT PUSH1 0x0 DUP5 SLT PUSH1 0x0 DUP5 SGT AND AND ISZERO PUSH2 0xBC5 JUMPI PUSH2 0xBC4 PUSH2 0x745 JUMP JUMPDEST JUMPDEST DUP3 PUSH32 0x8000000000000000000000000000000000000000000000000000000000000000 SDIV DUP3 SLT PUSH1 0x0 DUP5 SGT PUSH1 0x0 DUP5 SLT AND AND ISZERO PUSH2 0xC02 JUMPI PUSH2 0xC01 PUSH2 0x745 JUMP JUMPDEST JUMPDEST DUP3 PUSH32 0x7FFFFFFFFFFFFFFFFFFFFFFFFFFFFFFFFFFFFFFFFFFFFFFFFFFFFFFFFFFFFFFF SDIV DUP3 SLT PUSH1 0x0 DUP5 SLT PUSH1 0x0 DUP5 SLT AND AND ISZERO PUSH2 0xC3F JUMPI PUSH2 0xC3E PUSH2 0x745 JUMP JUMPDEST JUMPDEST DUP3 DUP3 MUL SWAP1 POP SWAP3 SWAP2 POP POP JUMP INVALID LOG2 PUSH5 0x6970667358 0x22 SLT KECCAK256 PUSH1 0x7F 0xAE 0xB3 0xAE 0xC1 0xAC 0xAF 0xD8 JUMPI 0xF6 SWAP14 PUSH18 0x20619E091AFA164FE2DA03E93CC726FB208B EXTCODEHASH PUSH5 0x736F6C6343 STOP ADDMOD ADDMOD STOP CALLER "
				},
				"gasEstimates": {
					"creation": {
						"codeDepositCost": "640000",
						"executionCost": "22776",
						"totalCost": "662776"
					},
					"external": {
						"Amount(address)": "2836",
						"fund()": "infinite",
						"funders(uint256)": "5022",
						"minUsd()": "2429",
						"withdraw()": "infinite"
					}
				},
				"methodIdentifiers": {
					"Amount(address)": "600a6ef6",
					"fund()": "b60d4288",
					"funders(uint256)": "dc0d3dff",
					"minUsd()": "51b80e41",
					"withdraw()": "3ccfd60b"
				}
			},
			"storageLayout": {
				"storage": [
					{
						"astId": 57,
						"contract": "contracts/FundMe.sol:FundMe",
						"label": "minUsd",
						"offset": 0,
						"slot": "0",
						"type": "t_uint256"
					},
					{
						"astId": 60,
						"contract": "contracts/FundMe.sol:FundMe",
						"label": "funders",
						"offset": 0,
						"slot": "1",
						"type": "t_array(t_address)dyn_storage"
					},
					{
						"astId": 64,
						"contract": "contracts/FundMe.sol:FundMe",
						"label": "Amount",
						"offset": 0,
						"slot": "2",
						"type": "t_mapping(t_address,t_uint256)"
					}
				],
				"types": {
					"t_address": {
						"encoding": "inplace",
						"label": "address",
						"numberOfBytes": "20"
					},
					"t_array(t_address)dyn_storage": {
						"base": "t_address",
						"encoding": "dynamic_array",
						"label": "address[]",
						"numberOfBytes": "32"
					},
					"t_mapping(t_address,t_uint256)": {
						"encoding": "mapping",
						"key": "t_address",
						"label": "mapping(address => uint256)",
						"numberOfBytes": "32",
						"value": "t_uint256"
					},
					"t_uint256": {
						"encoding": "inplace",
						"label": "uint256",
						"numberOfBytes": "32"
					}
				}
			},
			"userdoc": {
				"kind": "user",
				"methods": {},
				"version": 1
			}
		}
	}
}