{
	"contracts/FundMe.sol": {
		"FundMe": {
			"abi": [
				{
					"inputs": [
						{
							"internalType": "address",
							"name": "",
							"type": "address"
						}
					],
					"name": "Amount",
					"outputs": [
						{
							"internalType": "uint256",
							"name": "",
							"type": "uint256"
						}
					],
					"stateMutability": "view",
					"type": "function"
				},
				{
					"inputs": [],
					"name": "fund",
					"outputs": [],
					"stateMutability": "payable",
					"type": "function"
				},
				{
					"inputs": [
						{
							"internalType": "uint256",
							"name": "",
							"type": "uint256"
						}
					],
					"name": "funders",
					"outputs": [
						{
							"internalType": "address",
							"name": "",
							"type": "address"
						}
					],
					"stateMutability": "view",
					"type": "function"
				},
				{
					"inputs": [],
					"name": "minUsd",
					"outputs": [
						{
							"internalType": "uint256",
							"name": "",
							"type": "uint256"
						}
					],
					"stateMutability": "view",
					"type": "function"
				}
			],
			"devdoc": {
				"kind": "dev",
				"methods": {},
				"version": 1
			},
			"evm": {
				"assembly": "    /* \"contracts/FundMe.sol\":191:634  contract FundMe{... */\n  mstore(0x40, 0x80)\n    /* \"contracts/FundMe.sol\":280:289  50 * 1e18 */\n  0x02b5e3af16b1880000\n    /* \"contracts/FundMe.sol\":256:289  uint256 public minUsd = 50 * 1e18 */\n  0x00\n  sstore\n    /* \"contracts/FundMe.sol\":191:634  contract FundMe{... */\n  callvalue\n  dup1\n  iszero\n  tag_1\n  jumpi\n  0x00\n  dup1\n  revert\ntag_1:\n  pop\n  dataSize(sub_0)\n  dup1\n  dataOffset(sub_0)\n  0x00\n  codecopy\n  0x00\n  return\nstop\n\nsub_0: assembly {\n        /* \"contracts/FundMe.sol\":191:634  contract FundMe{... */\n      mstore(0x40, 0x80)\n      jumpi(tag_1, lt(calldatasize, 0x04))\n      shr(0xe0, calldataload(0x00))\n      dup1\n      0x51b80e41\n      eq\n      tag_2\n      jumpi\n      dup1\n      0x600a6ef6\n      eq\n      tag_3\n      jumpi\n      dup1\n      0xb60d4288\n      eq\n      tag_4\n      jumpi\n      dup1\n      0xdc0d3dff\n      eq\n      tag_5\n      jumpi\n    tag_1:\n      0x00\n      dup1\n      revert\n        /* \"contracts/FundMe.sol\":256:289  uint256 public minUsd = 50 * 1e18 */\n    tag_2:\n      callvalue\n      dup1\n      iszero\n      tag_6\n      jumpi\n      0x00\n      dup1\n      revert\n    tag_6:\n      pop\n      tag_7\n      tag_8\n      jump\t// in\n    tag_7:\n      mload(0x40)\n      tag_9\n      swap2\n      swap1\n      tag_10\n      jump\t// in\n    tag_9:\n      mload(0x40)\n      dup1\n      swap2\n      sub\n      swap1\n      return\n        /* \"contracts/FundMe.sol\":329:370  mapping(address => uint256) public Amount */\n    tag_3:\n      callvalue\n      dup1\n      iszero\n      tag_11\n      jumpi\n      0x00\n      dup1\n      revert\n    tag_11:\n      pop\n      tag_12\n      0x04\n      dup1\n      calldatasize\n      sub\n      dup2\n      add\n      swap1\n      tag_13\n      swap2\n      swap1\n      tag_14\n      jump\t// in\n    tag_13:\n      tag_15\n      jump\t// in\n    tag_12:\n      mload(0x40)\n      tag_16\n      swap2\n      swap1\n      tag_10\n      jump\t// in\n    tag_16:\n      mload(0x40)\n      dup1\n      swap2\n      sub\n      swap1\n      return\n        /* \"contracts/FundMe.sol\":379:594  function fund() public payable{... */\n    tag_4:\n      tag_17\n      tag_18\n      jump\t// in\n    tag_17:\n      stop\n        /* \"contracts/FundMe.sol\":298:322  address[] public funders */\n    tag_5:\n      callvalue\n      dup1\n      iszero\n      tag_19\n      jumpi\n      0x00\n      dup1\n      revert\n    tag_19:\n      pop\n      tag_20\n      0x04\n      dup1\n      calldatasize\n      sub\n      dup2\n      add\n      swap1\n      tag_21\n      swap2\n      swap1\n      tag_22\n      jump\t// in\n    tag_21:\n      tag_23\n      jump\t// in\n    tag_20:\n      mload(0x40)\n      tag_24\n      swap2\n      swap1\n      tag_25\n      jump\t// in\n    tag_24:\n      mload(0x40)\n      dup1\n      swap2\n      sub\n      swap1\n      return\n        /* \"contracts/FundMe.sol\":256:289  uint256 public minUsd = 50 * 1e18 */\n    tag_8:\n      sload(0x00)\n      dup2\n      jump\t// out\n        /* \"contracts/FundMe.sol\":329:370  mapping(address => uint256) public Amount */\n    tag_15:\n      mstore(0x20, 0x02)\n      dup1\n      0x00\n      mstore\n      keccak256(0x00, 0x40)\n      0x00\n      swap2\n      pop\n      swap1\n      pop\n      sload\n      dup2\n      jump\t// out\n        /* \"contracts/FundMe.sol\":379:594  function fund() public payable{... */\n    tag_18:\n        /* \"contracts/FundMe.sol\":466:472  minUsd */\n      sload(0x00)\n        /* \"contracts/FundMe.sol\":433:462  msg.value.getConversionRate() */\n      tag_27\n        /* \"contracts/FundMe.sol\":433:442  msg.value */\n      callvalue\n        /* \"contracts/FundMe.sol\":433:460  msg.value.getConversionRate */\n      tag_28\n        /* \"contracts/FundMe.sol\":433:462  msg.value.getConversionRate() */\n      jump\t// in\n    tag_27:\n        /* \"contracts/FundMe.sol\":433:472  msg.value.getConversionRate() >= minUsd */\n      lt\n      iszero\n        /* \"contracts/FundMe.sol\":425:487  require(msg.value.getConversionRate() >= minUsd, \"Not enough\") */\n      tag_29\n      jumpi\n      mload(0x40)\n      0x08c379a000000000000000000000000000000000000000000000000000000000\n      dup2\n      mstore\n      0x04\n      add\n      tag_30\n      swap1\n      tag_31\n      jump\t// in\n    tag_30:\n      mload(0x40)\n      dup1\n      swap2\n      sub\n      swap1\n      revert\n    tag_29:\n        /* \"contracts/FundMe.sol\":521:528  funders */\n      0x01\n        /* \"contracts/FundMe.sol\":534:544  msg.sender */\n      caller\n        /* \"contracts/FundMe.sol\":521:545  funders.push(msg.sender) */\n      swap1\n      dup1\n      0x01\n      dup2\n      sload\n      add\n      dup1\n      dup3\n      sstore\n      dup1\n      swap2\n      pop\n      pop\n      0x01\n      swap1\n      sub\n      swap1\n      0x00\n      mstore\n      keccak256(0x00, 0x20)\n      add\n      0x00\n      swap1\n      swap2\n      swap1\n      swap2\n      swap1\n      swap2\n      0x0100\n      exp\n      dup2\n      sload\n      dup2\n      0xffffffffffffffffffffffffffffffffffffffff\n      mul\n      not\n      and\n      swap1\n      dup4\n      0xffffffffffffffffffffffffffffffffffffffff\n      and\n      mul\n      or\n      swap1\n      sstore\n      pop\n        /* \"contracts/FundMe.sol\":577:586  msg.value */\n      callvalue\n        /* \"contracts/FundMe.sol\":556:562  Amount */\n      0x02\n        /* \"contracts/FundMe.sol\":556:574  Amount[msg.sender] */\n      0x00\n        /* \"contracts/FundMe.sol\":563:573  msg.sender */\n      caller\n        /* \"contracts/FundMe.sol\":556:574  Amount[msg.sender] */\n      0xffffffffffffffffffffffffffffffffffffffff\n      and\n      0xffffffffffffffffffffffffffffffffffffffff\n      and\n      dup2\n      mstore\n      0x20\n      add\n      swap1\n      dup2\n      mstore\n      0x20\n      add\n      0x00\n      keccak256\n        /* \"contracts/FundMe.sol\":556:586  Amount[msg.sender] = msg.value */\n      dup2\n      swap1\n      sstore\n      pop\n        /* \"contracts/FundMe.sol\":379:594  function fund() public payable{... */\n      jump\t// out\n        /* \"contracts/FundMe.sol\":298:322  address[] public funders */\n    tag_23:\n      0x01\n      dup2\n      dup2\n      sload\n      dup2\n      lt\n      tag_33\n      jumpi\n      0x00\n      dup1\n      revert\n    tag_33:\n      swap1\n      0x00\n      mstore\n      keccak256(0x00, 0x20)\n      add\n      0x00\n      swap2\n      pop\n      sload\n      swap1\n      0x0100\n      exp\n      swap1\n      div\n      0xffffffffffffffffffffffffffffffffffffffff\n      and\n      dup2\n      jump\t// out\n        /* \"contracts/PriceConverter.sol\":789:988  function getConversionRate(uint256 eth) internal view returns (uint256) {... */\n    tag_28:\n        /* \"contracts/PriceConverter.sol\":852:859  uint256 */\n      0x00\n        /* \"contracts/PriceConverter.sol\":872:888  uint256 ethPrice */\n      dup1\n        /* \"contracts/PriceConverter.sol\":891:901  getPrice() */\n      tag_36\n        /* \"contracts/PriceConverter.sol\":891:899  getPrice */\n      tag_37\n        /* \"contracts/PriceConverter.sol\":891:901  getPrice() */\n      jump\t// in\n    tag_36:\n        /* \"contracts/PriceConverter.sol\":872:901  uint256 ethPrice = getPrice() */\n      swap1\n      pop\n        /* \"contracts/PriceConverter.sol\":912:928  uint256 ethInUSD */\n      0x00\n        /* \"contracts/PriceConverter.sol\":950:954  1e18 */\n      0x0de0b6b3a7640000\n        /* \"contracts/PriceConverter.sol\":943:946  eth */\n      dup5\n        /* \"contracts/PriceConverter.sol\":932:940  ethPrice */\n      dup4\n        /* \"contracts/PriceConverter.sol\":932:946  ethPrice * eth */\n      tag_38\n      swap2\n      swap1\n      tag_39\n      jump\t// in\n    tag_38:\n        /* \"contracts/PriceConverter.sol\":931:954  (ethPrice * eth) / 1e18 */\n      tag_40\n      swap2\n      swap1\n      tag_41\n      jump\t// in\n    tag_40:\n        /* \"contracts/PriceConverter.sol\":912:954  uint256 ethInUSD = (ethPrice * eth) / 1e18 */\n      swap1\n      pop\n        /* \"contracts/PriceConverter.sol\":972:980  ethInUSD */\n      dup1\n        /* \"contracts/PriceConverter.sol\":965:980  return ethInUSD */\n      swap3\n      pop\n      pop\n      pop\n        /* \"contracts/PriceConverter.sol\":789:988  function getConversionRate(uint256 eth) internal view returns (uint256) {... */\n      swap2\n      swap1\n      pop\n      jump\t// out\n        /* \"contracts/PriceConverter.sol\":190:510  function getPrice() internal view returns (uint256){... */\n    tag_37:\n        /* \"contracts/PriceConverter.sol\":233:240  uint256 */\n      0x00\n        /* \"contracts/PriceConverter.sol\":308:339  AggregatorV3Interface priceFeed */\n      dup1\n        /* \"contracts/PriceConverter.sol\":364:406  0x5f4eC3Df9cbd43714FE2740f5E3616155c5b8419 */\n      0x5f4ec3df9cbd43714fe2740f5e3616155c5b8419\n        /* \"contracts/PriceConverter.sol\":308:407  AggregatorV3Interface priceFeed = AggregatorV3Interface(0x5f4eC3Df9cbd43714FE2740f5E3616155c5b8419) */\n      swap1\n      pop\n        /* \"contracts/PriceConverter.sol\":420:429  int price */\n      0x00\n        /* \"contracts/PriceConverter.sol\":436:445  priceFeed */\n      dup2\n        /* \"contracts/PriceConverter.sol\":436:461  priceFeed.latestRoundData */\n      0xffffffffffffffffffffffffffffffffffffffff\n      and\n      0xfeaf968c\n        /* \"contracts/PriceConverter.sol\":436:463  priceFeed.latestRoundData() */\n      mload(0x40)\n      dup2\n      0xffffffff\n      and\n      0xe0\n      shl\n      dup2\n      mstore\n      0x04\n      add\n      0xa0\n      mload(0x40)\n      dup1\n      dup4\n      sub\n      dup2\n      dup7\n      dup1\n      extcodesize\n      iszero\n      dup1\n      iszero\n      tag_43\n      jumpi\n      0x00\n      dup1\n      revert\n    tag_43:\n      pop\n      gas\n      staticcall\n      iszero\n      dup1\n      iszero\n      tag_45\n      jumpi\n      returndatasize\n      0x00\n      dup1\n      returndatacopy\n      revert(0x00, returndatasize)\n    tag_45:\n      pop\n      pop\n      pop\n      pop\n      mload(0x40)\n      returndatasize\n      not(0x1f)\n      0x1f\n      dup3\n      add\n      and\n      dup3\n      add\n      dup1\n      0x40\n      mstore\n      pop\n      dup2\n      add\n      swap1\n      tag_46\n      swap2\n      swap1\n      tag_47\n      jump\t// in\n    tag_46:\n        /* \"contracts/PriceConverter.sol\":418:463  (,int price,,,) = priceFeed.latestRoundData() */\n      pop\n      pop\n      pop\n      swap2\n      pop\n      pop\n        /* \"contracts/PriceConverter.sol\":497:501  1e10 */\n      0x02540be400\n        /* \"contracts/PriceConverter.sol\":489:494  price */\n      dup2\n        /* \"contracts/PriceConverter.sol\":489:501  price * 1e10 */\n      tag_48\n      swap2\n      swap1\n      tag_49\n      jump\t// in\n    tag_48:\n        /* \"contracts/PriceConverter.sol\":474:502  return uint256(price * 1e10) */\n      swap3\n      pop\n      pop\n      pop\n        /* \"contracts/PriceConverter.sol\":190:510  function getPrice() internal view returns (uint256){... */\n      swap1\n      jump\t// out\n        /* \"#utility.yul\":7:84   */\n    tag_50:\n        /* \"#utility.yul\":44:51   */\n      0x00\n        /* \"#utility.yul\":73:78   */\n      dup2\n        /* \"#utility.yul\":62:78   */\n      swap1\n      pop\n        /* \"#utility.yul\":7:84   */\n      swap2\n      swap1\n      pop\n      jump\t// out\n        /* \"#utility.yul\":90:208   */\n    tag_51:\n        /* \"#utility.yul\":177:201   */\n      tag_77\n        /* \"#utility.yul\":195:200   */\n      dup2\n        /* \"#utility.yul\":177:201   */\n      tag_50\n      jump\t// in\n    tag_77:\n        /* \"#utility.yul\":172:175   */\n      dup3\n        /* \"#utility.yul\":165:202   */\n      mstore\n        /* \"#utility.yul\":90:208   */\n      pop\n      pop\n      jump\t// out\n        /* \"#utility.yul\":214:436   */\n    tag_10:\n        /* \"#utility.yul\":307:311   */\n      0x00\n        /* \"#utility.yul\":345:347   */\n      0x20\n        /* \"#utility.yul\":334:343   */\n      dup3\n        /* \"#utility.yul\":330:348   */\n      add\n        /* \"#utility.yul\":322:348   */\n      swap1\n      pop\n        /* \"#utility.yul\":358:429   */\n      tag_79\n        /* \"#utility.yul\":426:427   */\n      0x00\n        /* \"#utility.yul\":415:424   */\n      dup4\n        /* \"#utility.yul\":411:428   */\n      add\n        /* \"#utility.yul\":402:408   */\n      dup5\n        /* \"#utility.yul\":358:429   */\n      tag_51\n      jump\t// in\n    tag_79:\n        /* \"#utility.yul\":214:436   */\n      swap3\n      swap2\n      pop\n      pop\n      jump\t// out\n        /* \"#utility.yul\":523:640   */\n    tag_53:\n        /* \"#utility.yul\":632:633   */\n      0x00\n        /* \"#utility.yul\":629:630   */\n      dup1\n        /* \"#utility.yul\":622:634   */\n      revert\n        /* \"#utility.yul\":769:895   */\n    tag_55:\n        /* \"#utility.yul\":806:813   */\n      0x00\n        /* \"#utility.yul\":846:888   */\n      0xffffffffffffffffffffffffffffffffffffffff\n        /* \"#utility.yul\":839:844   */\n      dup3\n        /* \"#utility.yul\":835:889   */\n      and\n        /* \"#utility.yul\":824:889   */\n      swap1\n      pop\n        /* \"#utility.yul\":769:895   */\n      swap2\n      swap1\n      pop\n      jump\t// out\n        /* \"#utility.yul\":901:997   */\n    tag_56:\n        /* \"#utility.yul\":938:945   */\n      0x00\n        /* \"#utility.yul\":967:991   */\n      tag_85\n        /* \"#utility.yul\":985:990   */\n      dup3\n        /* \"#utility.yul\":967:991   */\n      tag_55\n      jump\t// in\n    tag_85:\n        /* \"#utility.yul\":956:991   */\n      swap1\n      pop\n        /* \"#utility.yul\":901:997   */\n      swap2\n      swap1\n      pop\n      jump\t// out\n        /* \"#utility.yul\":1003:1125   */\n    tag_57:\n        /* \"#utility.yul\":1076:1100   */\n      tag_87\n        /* \"#utility.yul\":1094:1099   */\n      dup2\n        /* \"#utility.yul\":1076:1100   */\n      tag_56\n      jump\t// in\n    tag_87:\n        /* \"#utility.yul\":1069:1074   */\n      dup2\n        /* \"#utility.yul\":1066:1101   */\n      eq\n        /* \"#utility.yul\":1056:1119   */\n      tag_88\n      jumpi\n        /* \"#utility.yul\":1115:1116   */\n      0x00\n        /* \"#utility.yul\":1112:1113   */\n      dup1\n        /* \"#utility.yul\":1105:1117   */\n      revert\n        /* \"#utility.yul\":1056:1119   */\n    tag_88:\n        /* \"#utility.yul\":1003:1125   */\n      pop\n      jump\t// out\n        /* \"#utility.yul\":1131:1270   */\n    tag_58:\n        /* \"#utility.yul\":1177:1182   */\n      0x00\n        /* \"#utility.yul\":1215:1221   */\n      dup2\n        /* \"#utility.yul\":1202:1222   */\n      calldataload\n        /* \"#utility.yul\":1193:1222   */\n      swap1\n      pop\n        /* \"#utility.yul\":1231:1264   */\n      tag_90\n        /* \"#utility.yul\":1258:1263   */\n      dup2\n        /* \"#utility.yul\":1231:1264   */\n      tag_57\n      jump\t// in\n    tag_90:\n        /* \"#utility.yul\":1131:1270   */\n      swap3\n      swap2\n      pop\n      pop\n      jump\t// out\n        /* \"#utility.yul\":1276:1605   */\n    tag_14:\n        /* \"#utility.yul\":1335:1341   */\n      0x00\n        /* \"#utility.yul\":1384:1386   */\n      0x20\n        /* \"#utility.yul\":1372:1381   */\n      dup3\n        /* \"#utility.yul\":1363:1370   */\n      dup5\n        /* \"#utility.yul\":1359:1382   */\n      sub\n        /* \"#utility.yul\":1355:1387   */\n      slt\n        /* \"#utility.yul\":1352:1471   */\n      iszero\n      tag_92\n      jumpi\n        /* \"#utility.yul\":1390:1469   */\n      tag_93\n      tag_53\n      jump\t// in\n    tag_93:\n        /* \"#utility.yul\":1352:1471   */\n    tag_92:\n        /* \"#utility.yul\":1510:1511   */\n      0x00\n        /* \"#utility.yul\":1535:1588   */\n      tag_94\n        /* \"#utility.yul\":1580:1587   */\n      dup5\n        /* \"#utility.yul\":1571:1577   */\n      dup3\n        /* \"#utility.yul\":1560:1569   */\n      dup6\n        /* \"#utility.yul\":1556:1578   */\n      add\n        /* \"#utility.yul\":1535:1588   */\n      tag_58\n      jump\t// in\n    tag_94:\n        /* \"#utility.yul\":1525:1588   */\n      swap2\n      pop\n        /* \"#utility.yul\":1481:1598   */\n      pop\n        /* \"#utility.yul\":1276:1605   */\n      swap3\n      swap2\n      pop\n      pop\n      jump\t// out\n        /* \"#utility.yul\":1611:1733   */\n    tag_59:\n        /* \"#utility.yul\":1684:1708   */\n      tag_96\n        /* \"#utility.yul\":1702:1707   */\n      dup2\n        /* \"#utility.yul\":1684:1708   */\n      tag_50\n      jump\t// in\n    tag_96:\n        /* \"#utility.yul\":1677:1682   */\n      dup2\n        /* \"#utility.yul\":1674:1709   */\n      eq\n        /* \"#utility.yul\":1664:1727   */\n      tag_97\n      jumpi\n        /* \"#utility.yul\":1723:1724   */\n      0x00\n        /* \"#utility.yul\":1720:1721   */\n      dup1\n        /* \"#utility.yul\":1713:1725   */\n      revert\n        /* \"#utility.yul\":1664:1727   */\n    tag_97:\n        /* \"#utility.yul\":1611:1733   */\n      pop\n      jump\t// out\n        /* \"#utility.yul\":1739:1878   */\n    tag_60:\n        /* \"#utility.yul\":1785:1790   */\n      0x00\n        /* \"#utility.yul\":1823:1829   */\n      dup2\n        /* \"#utility.yul\":1810:1830   */\n      calldataload\n        /* \"#utility.yul\":1801:1830   */\n      swap1\n      pop\n        /* \"#utility.yul\":1839:1872   */\n      tag_99\n        /* \"#utility.yul\":1866:1871   */\n      dup2\n        /* \"#utility.yul\":1839:1872   */\n      tag_59\n      jump\t// in\n    tag_99:\n        /* \"#utility.yul\":1739:1878   */\n      swap3\n      swap2\n      pop\n      pop\n      jump\t// out\n        /* \"#utility.yul\":1884:2213   */\n    tag_22:\n        /* \"#utility.yul\":1943:1949   */\n      0x00\n        /* \"#utility.yul\":1992:1994   */\n      0x20\n        /* \"#utility.yul\":1980:1989   */\n      dup3\n        /* \"#utility.yul\":1971:1978   */\n      dup5\n        /* \"#utility.yul\":1967:1990   */\n      sub\n        /* \"#utility.yul\":1963:1995   */\n      slt\n        /* \"#utility.yul\":1960:2079   */\n      iszero\n      tag_101\n      jumpi\n        /* \"#utility.yul\":1998:2077   */\n      tag_102\n      tag_53\n      jump\t// in\n    tag_102:\n        /* \"#utility.yul\":1960:2079   */\n    tag_101:\n        /* \"#utility.yul\":2118:2119   */\n      0x00\n        /* \"#utility.yul\":2143:2196   */\n      tag_103\n        /* \"#utility.yul\":2188:2195   */\n      dup5\n        /* \"#utility.yul\":2179:2185   */\n      dup3\n        /* \"#utility.yul\":2168:2177   */\n      dup6\n        /* \"#utility.yul\":2164:2186   */\n      add\n        /* \"#utility.yul\":2143:2196   */\n      tag_60\n      jump\t// in\n    tag_103:\n        /* \"#utility.yul\":2133:2196   */\n      swap2\n      pop\n        /* \"#utility.yul\":2089:2206   */\n      pop\n        /* \"#utility.yul\":1884:2213   */\n      swap3\n      swap2\n      pop\n      pop\n      jump\t// out\n        /* \"#utility.yul\":2219:2337   */\n    tag_61:\n        /* \"#utility.yul\":2306:2330   */\n      tag_105\n        /* \"#utility.yul\":2324:2329   */\n      dup2\n        /* \"#utility.yul\":2306:2330   */\n      tag_56\n      jump\t// in\n    tag_105:\n        /* \"#utility.yul\":2301:2304   */\n      dup3\n        /* \"#utility.yul\":2294:2331   */\n      mstore\n        /* \"#utility.yul\":2219:2337   */\n      pop\n      pop\n      jump\t// out\n        /* \"#utility.yul\":2343:2565   */\n    tag_25:\n        /* \"#utility.yul\":2436:2440   */\n      0x00\n        /* \"#utility.yul\":2474:2476   */\n      0x20\n        /* \"#utility.yul\":2463:2472   */\n      dup3\n        /* \"#utility.yul\":2459:2477   */\n      add\n        /* \"#utility.yul\":2451:2477   */\n      swap1\n      pop\n        /* \"#utility.yul\":2487:2558   */\n      tag_107\n        /* \"#utility.yul\":2555:2556   */\n      0x00\n        /* \"#utility.yul\":2544:2553   */\n      dup4\n        /* \"#utility.yul\":2540:2557   */\n      add\n        /* \"#utility.yul\":2531:2537   */\n      dup5\n        /* \"#utility.yul\":2487:2558   */\n      tag_61\n      jump\t// in\n    tag_107:\n        /* \"#utility.yul\":2343:2565   */\n      swap3\n      swap2\n      pop\n      pop\n      jump\t// out\n        /* \"#utility.yul\":2571:2740   */\n    tag_62:\n        /* \"#utility.yul\":2655:2666   */\n      0x00\n        /* \"#utility.yul\":2689:2695   */\n      dup3\n        /* \"#utility.yul\":2684:2687   */\n      dup3\n        /* \"#utility.yul\":2677:2696   */\n      mstore\n        /* \"#utility.yul\":2729:2733   */\n      0x20\n        /* \"#utility.yul\":2724:2727   */\n      dup3\n        /* \"#utility.yul\":2720:2734   */\n      add\n        /* \"#utility.yul\":2705:2734   */\n      swap1\n      pop\n        /* \"#utility.yul\":2571:2740   */\n      swap3\n      swap2\n      pop\n      pop\n      jump\t// out\n        /* \"#utility.yul\":2746:2906   */\n    tag_63:\n        /* \"#utility.yul\":2886:2898   */\n      0x4e6f7420656e6f75676800000000000000000000000000000000000000000000\n        /* \"#utility.yul\":2882:2883   */\n      0x00\n        /* \"#utility.yul\":2874:2880   */\n      dup3\n        /* \"#utility.yul\":2870:2884   */\n      add\n        /* \"#utility.yul\":2863:2899   */\n      mstore\n        /* \"#utility.yul\":2746:2906   */\n      pop\n      jump\t// out\n        /* \"#utility.yul\":2912:3278   */\n    tag_64:\n        /* \"#utility.yul\":3054:3057   */\n      0x00\n        /* \"#utility.yul\":3075:3142   */\n      tag_111\n        /* \"#utility.yul\":3139:3141   */\n      0x0a\n        /* \"#utility.yul\":3134:3137   */\n      dup4\n        /* \"#utility.yul\":3075:3142   */\n      tag_62\n      jump\t// in\n    tag_111:\n        /* \"#utility.yul\":3068:3142   */\n      swap2\n      pop\n        /* \"#utility.yul\":3151:3244   */\n      tag_112\n        /* \"#utility.yul\":3240:3243   */\n      dup3\n        /* \"#utility.yul\":3151:3244   */\n      tag_63\n      jump\t// in\n    tag_112:\n        /* \"#utility.yul\":3269:3271   */\n      0x20\n        /* \"#utility.yul\":3264:3267   */\n      dup3\n        /* \"#utility.yul\":3260:3272   */\n      add\n        /* \"#utility.yul\":3253:3272   */\n      swap1\n      pop\n        /* \"#utility.yul\":2912:3278   */\n      swap2\n      swap1\n      pop\n      jump\t// out\n        /* \"#utility.yul\":3284:3703   */\n    tag_31:\n        /* \"#utility.yul\":3450:3454   */\n      0x00\n        /* \"#utility.yul\":3488:3490   */\n      0x20\n        /* \"#utility.yul\":3477:3486   */\n      dup3\n        /* \"#utility.yul\":3473:3491   */\n      add\n        /* \"#utility.yul\":3465:3491   */\n      swap1\n      pop\n        /* \"#utility.yul\":3537:3546   */\n      dup2\n        /* \"#utility.yul\":3531:3535   */\n      dup2\n        /* \"#utility.yul\":3527:3547   */\n      sub\n        /* \"#utility.yul\":3523:3524   */\n      0x00\n        /* \"#utility.yul\":3512:3521   */\n      dup4\n        /* \"#utility.yul\":3508:3525   */\n      add\n        /* \"#utility.yul\":3501:3548   */\n      mstore\n        /* \"#utility.yul\":3565:3696   */\n      tag_114\n        /* \"#utility.yul\":3691:3695   */\n      dup2\n        /* \"#utility.yul\":3565:3696   */\n      tag_64\n      jump\t// in\n    tag_114:\n        /* \"#utility.yul\":3557:3696   */\n      swap1\n      pop\n        /* \"#utility.yul\":3284:3703   */\n      swap2\n      swap1\n      pop\n      jump\t// out\n        /* \"#utility.yul\":3709:3889   */\n    tag_65:\n        /* \"#utility.yul\":3757:3834   */\n      0x4e487b7100000000000000000000000000000000000000000000000000000000\n        /* \"#utility.yul\":3754:3755   */\n      0x00\n        /* \"#utility.yul\":3747:3835   */\n      mstore\n        /* \"#utility.yul\":3854:3858   */\n      0x11\n        /* \"#utility.yul\":3851:3852   */\n      0x04\n        /* \"#utility.yul\":3844:3859   */\n      mstore\n        /* \"#utility.yul\":3878:3882   */\n      0x24\n        /* \"#utility.yul\":3875:3876   */\n      0x00\n        /* \"#utility.yul\":3868:3883   */\n      revert\n        /* \"#utility.yul\":3895:4243   */\n    tag_39:\n        /* \"#utility.yul\":3935:3942   */\n      0x00\n        /* \"#utility.yul\":3958:3978   */\n      tag_117\n        /* \"#utility.yul\":3976:3977   */\n      dup3\n        /* \"#utility.yul\":3958:3978   */\n      tag_50\n      jump\t// in\n    tag_117:\n        /* \"#utility.yul\":3953:3978   */\n      swap2\n      pop\n        /* \"#utility.yul\":3992:4012   */\n      tag_118\n        /* \"#utility.yul\":4010:4011   */\n      dup4\n        /* \"#utility.yul\":3992:4012   */\n      tag_50\n      jump\t// in\n    tag_118:\n        /* \"#utility.yul\":3987:4012   */\n      swap3\n      pop\n        /* \"#utility.yul\":4180:4181   */\n      dup2\n        /* \"#utility.yul\":4112:4178   */\n      0xffffffffffffffffffffffffffffffffffffffffffffffffffffffffffffffff\n        /* \"#utility.yul\":4108:4182   */\n      div\n        /* \"#utility.yul\":4105:4106   */\n      dup4\n        /* \"#utility.yul\":4102:4183   */\n      gt\n        /* \"#utility.yul\":4097:4098   */\n      dup3\n        /* \"#utility.yul\":4090:4099   */\n      iszero\n        /* \"#utility.yul\":4083:4100   */\n      iszero\n        /* \"#utility.yul\":4079:4184   */\n      and\n        /* \"#utility.yul\":4076:4207   */\n      iszero\n      tag_119\n      jumpi\n        /* \"#utility.yul\":4187:4205   */\n      tag_120\n      tag_65\n      jump\t// in\n    tag_120:\n        /* \"#utility.yul\":4076:4207   */\n    tag_119:\n        /* \"#utility.yul\":4235:4236   */\n      dup3\n        /* \"#utility.yul\":4232:4233   */\n      dup3\n        /* \"#utility.yul\":4228:4237   */\n      mul\n        /* \"#utility.yul\":4217:4237   */\n      swap1\n      pop\n        /* \"#utility.yul\":3895:4243   */\n      swap3\n      swap2\n      pop\n      pop\n      jump\t// out\n        /* \"#utility.yul\":4249:4429   */\n    tag_66:\n        /* \"#utility.yul\":4297:4374   */\n      0x4e487b7100000000000000000000000000000000000000000000000000000000\n        /* \"#utility.yul\":4294:4295   */\n      0x00\n        /* \"#utility.yul\":4287:4375   */\n      mstore\n        /* \"#utility.yul\":4394:4398   */\n      0x12\n        /* \"#utility.yul\":4391:4392   */\n      0x04\n        /* \"#utility.yul\":4384:4399   */\n      mstore\n        /* \"#utility.yul\":4418:4422   */\n      0x24\n        /* \"#utility.yul\":4415:4416   */\n      0x00\n        /* \"#utility.yul\":4408:4423   */\n      revert\n        /* \"#utility.yul\":4435:4620   */\n    tag_41:\n        /* \"#utility.yul\":4475:4476   */\n      0x00\n        /* \"#utility.yul\":4492:4512   */\n      tag_123\n        /* \"#utility.yul\":4510:4511   */\n      dup3\n        /* \"#utility.yul\":4492:4512   */\n      tag_50\n      jump\t// in\n    tag_123:\n        /* \"#utility.yul\":4487:4512   */\n      swap2\n      pop\n        /* \"#utility.yul\":4526:4546   */\n      tag_124\n        /* \"#utility.yul\":4544:4545   */\n      dup4\n        /* \"#utility.yul\":4526:4546   */\n      tag_50\n      jump\t// in\n    tag_124:\n        /* \"#utility.yul\":4521:4546   */\n      swap3\n      pop\n        /* \"#utility.yul\":4565:4566   */\n      dup3\n        /* \"#utility.yul\":4555:4590   */\n      tag_125\n      jumpi\n        /* \"#utility.yul\":4570:4588   */\n      tag_126\n      tag_66\n      jump\t// in\n    tag_126:\n        /* \"#utility.yul\":4555:4590   */\n    tag_125:\n        /* \"#utility.yul\":4612:4613   */\n      dup3\n        /* \"#utility.yul\":4609:4610   */\n      dup3\n        /* \"#utility.yul\":4605:4614   */\n      div\n        /* \"#utility.yul\":4600:4614   */\n      swap1\n      pop\n        /* \"#utility.yul\":4435:4620   */\n      swap3\n      swap2\n      pop\n      pop\n      jump\t// out\n        /* \"#utility.yul\":4626:4731   */\n    tag_67:\n        /* \"#utility.yul\":4662:4669   */\n      0x00\n        /* \"#utility.yul\":4702:4724   */\n      0xffffffffffffffffffff\n        /* \"#utility.yul\":4695:4700   */\n      dup3\n        /* \"#utility.yul\":4691:4725   */\n      and\n        /* \"#utility.yul\":4680:4725   */\n      swap1\n      pop\n        /* \"#utility.yul\":4626:4731   */\n      swap2\n      swap1\n      pop\n      jump\t// out\n        /* \"#utility.yul\":4737:4857   */\n    tag_68:\n        /* \"#utility.yul\":4809:4832   */\n      tag_129\n        /* \"#utility.yul\":4826:4831   */\n      dup2\n        /* \"#utility.yul\":4809:4832   */\n      tag_67\n      jump\t// in\n    tag_129:\n        /* \"#utility.yul\":4802:4807   */\n      dup2\n        /* \"#utility.yul\":4799:4833   */\n      eq\n        /* \"#utility.yul\":4789:4851   */\n      tag_130\n      jumpi\n        /* \"#utility.yul\":4847:4848   */\n      0x00\n        /* \"#utility.yul\":4844:4845   */\n      dup1\n        /* \"#utility.yul\":4837:4849   */\n      revert\n        /* \"#utility.yul\":4789:4851   */\n    tag_130:\n        /* \"#utility.yul\":4737:4857   */\n      pop\n      jump\t// out\n        /* \"#utility.yul\":4863:5004   */\n    tag_69:\n        /* \"#utility.yul\":4919:4924   */\n      0x00\n        /* \"#utility.yul\":4950:4956   */\n      dup2\n        /* \"#utility.yul\":4944:4957   */\n      mload\n        /* \"#utility.yul\":4935:4957   */\n      swap1\n      pop\n        /* \"#utility.yul\":4966:4998   */\n      tag_132\n        /* \"#utility.yul\":4992:4997   */\n      dup2\n        /* \"#utility.yul\":4966:4998   */\n      tag_68\n      jump\t// in\n    tag_132:\n        /* \"#utility.yul\":4863:5004   */\n      swap3\n      swap2\n      pop\n      pop\n      jump\t// out\n        /* \"#utility.yul\":5010:5086   */\n    tag_70:\n        /* \"#utility.yul\":5046:5053   */\n      0x00\n        /* \"#utility.yul\":5075:5080   */\n      dup2\n        /* \"#utility.yul\":5064:5080   */\n      swap1\n      pop\n        /* \"#utility.yul\":5010:5086   */\n      swap2\n      swap1\n      pop\n      jump\t// out\n        /* \"#utility.yul\":5092:5212   */\n    tag_71:\n        /* \"#utility.yul\":5164:5187   */\n      tag_135\n        /* \"#utility.yul\":5181:5186   */\n      dup2\n        /* \"#utility.yul\":5164:5187   */\n      tag_70\n      jump\t// in\n    tag_135:\n        /* \"#utility.yul\":5157:5162   */\n      dup2\n        /* \"#utility.yul\":5154:5188   */\n      eq\n        /* \"#utility.yul\":5144:5206   */\n      tag_136\n      jumpi\n        /* \"#utility.yul\":5202:5203   */\n      0x00\n        /* \"#utility.yul\":5199:5200   */\n      dup1\n        /* \"#utility.yul\":5192:5204   */\n      revert\n        /* \"#utility.yul\":5144:5206   */\n    tag_136:\n        /* \"#utility.yul\":5092:5212   */\n      pop\n      jump\t// out\n        /* \"#utility.yul\":5218:5359   */\n    tag_72:\n        /* \"#utility.yul\":5274:5279   */\n      0x00\n        /* \"#utility.yul\":5305:5311   */\n      dup2\n        /* \"#utility.yul\":5299:5312   */\n      mload\n        /* \"#utility.yul\":5290:5312   */\n      swap1\n      pop\n        /* \"#utility.yul\":5321:5353   */\n      tag_138\n        /* \"#utility.yul\":5347:5352   */\n      dup2\n        /* \"#utility.yul\":5321:5353   */\n      tag_71\n      jump\t// in\n    tag_138:\n        /* \"#utility.yul\":5218:5359   */\n      swap3\n      swap2\n      pop\n      pop\n      jump\t// out\n        /* \"#utility.yul\":5365:5508   */\n    tag_73:\n        /* \"#utility.yul\":5422:5427   */\n      0x00\n        /* \"#utility.yul\":5453:5459   */\n      dup2\n        /* \"#utility.yul\":5447:5460   */\n      mload\n        /* \"#utility.yul\":5438:5460   */\n      swap1\n      pop\n        /* \"#utility.yul\":5469:5502   */\n      tag_140\n        /* \"#utility.yul\":5496:5501   */\n      dup2\n        /* \"#utility.yul\":5469:5502   */\n      tag_59\n      jump\t// in\n    tag_140:\n        /* \"#utility.yul\":5365:5508   */\n      swap3\n      swap2\n      pop\n      pop\n      jump\t// out\n        /* \"#utility.yul\":5514:6485   */\n    tag_47:\n        /* \"#utility.yul\":5617:5623   */\n      0x00\n        /* \"#utility.yul\":5625:5631   */\n      dup1\n        /* \"#utility.yul\":5633:5639   */\n      0x00\n        /* \"#utility.yul\":5641:5647   */\n      dup1\n        /* \"#utility.yul\":5649:5655   */\n      0x00\n        /* \"#utility.yul\":5698:5701   */\n      0xa0\n        /* \"#utility.yul\":5686:5695   */\n      dup7\n        /* \"#utility.yul\":5677:5684   */\n      dup9\n        /* \"#utility.yul\":5673:5696   */\n      sub\n        /* \"#utility.yul\":5669:5702   */\n      slt\n        /* \"#utility.yul\":5666:5786   */\n      iszero\n      tag_142\n      jumpi\n        /* \"#utility.yul\":5705:5784   */\n      tag_143\n      tag_53\n      jump\t// in\n    tag_143:\n        /* \"#utility.yul\":5666:5786   */\n    tag_142:\n        /* \"#utility.yul\":5825:5826   */\n      0x00\n        /* \"#utility.yul\":5850:5913   */\n      tag_144\n        /* \"#utility.yul\":5905:5912   */\n      dup9\n        /* \"#utility.yul\":5896:5902   */\n      dup3\n        /* \"#utility.yul\":5885:5894   */\n      dup10\n        /* \"#utility.yul\":5881:5903   */\n      add\n        /* \"#utility.yul\":5850:5913   */\n      tag_69\n      jump\t// in\n    tag_144:\n        /* \"#utility.yul\":5840:5913   */\n      swap6\n      pop\n        /* \"#utility.yul\":5796:5923   */\n      pop\n        /* \"#utility.yul\":5962:5964   */\n      0x20\n        /* \"#utility.yul\":5988:6051   */\n      tag_145\n        /* \"#utility.yul\":6043:6050   */\n      dup9\n        /* \"#utility.yul\":6034:6040   */\n      dup3\n        /* \"#utility.yul\":6023:6032   */\n      dup10\n        /* \"#utility.yul\":6019:6041   */\n      add\n        /* \"#utility.yul\":5988:6051   */\n      tag_72\n      jump\t// in\n    tag_145:\n        /* \"#utility.yul\":5978:6051   */\n      swap5\n      pop\n        /* \"#utility.yul\":5933:6061   */\n      pop\n        /* \"#utility.yul\":6100:6102   */\n      0x40\n        /* \"#utility.yul\":6126:6190   */\n      tag_146\n        /* \"#utility.yul\":6182:6189   */\n      dup9\n        /* \"#utility.yul\":6173:6179   */\n      dup3\n        /* \"#utility.yul\":6162:6171   */\n      dup10\n        /* \"#utility.yul\":6158:6180   */\n      add\n        /* \"#utility.yul\":6126:6190   */\n      tag_73\n      jump\t// in\n    tag_146:\n        /* \"#utility.yul\":6116:6190   */\n      swap4\n      pop\n        /* \"#utility.yul\":6071:6200   */\n      pop\n        /* \"#utility.yul\":6239:6241   */\n      0x60\n        /* \"#utility.yul\":6265:6329   */\n      tag_147\n        /* \"#utility.yul\":6321:6328   */\n      dup9\n        /* \"#utility.yul\":6312:6318   */\n      dup3\n        /* \"#utility.yul\":6301:6310   */\n      dup10\n        /* \"#utility.yul\":6297:6319   */\n      add\n        /* \"#utility.yul\":6265:6329   */\n      tag_73\n      jump\t// in\n    tag_147:\n        /* \"#utility.yul\":6255:6329   */\n      swap3\n      pop\n        /* \"#utility.yul\":6210:6339   */\n      pop\n        /* \"#utility.yul\":6378:6381   */\n      0x80\n        /* \"#utility.yul\":6405:6468   */\n      tag_148\n        /* \"#utility.yul\":6460:6467   */\n      dup9\n        /* \"#utility.yul\":6451:6457   */\n      dup3\n        /* \"#utility.yul\":6440:6449   */\n      dup10\n        /* \"#utility.yul\":6436:6458   */\n      add\n        /* \"#utility.yul\":6405:6468   */\n      tag_69\n      jump\t// in\n    tag_148:\n        /* \"#utility.yul\":6395:6468   */\n      swap2\n      pop\n        /* \"#utility.yul\":6349:6478   */\n      pop\n        /* \"#utility.yul\":5514:6485   */\n      swap3\n      swap6\n      pop\n      swap3\n      swap6\n      swap1\n      swap4\n      pop\n      jump\t// out\n        /* \"#utility.yul\":6491:7482   */\n    tag_49:\n        /* \"#utility.yul\":6530:6537   */\n      0x00\n        /* \"#utility.yul\":6553:6572   */\n      tag_150\n        /* \"#utility.yul\":6570:6571   */\n      dup3\n        /* \"#utility.yul\":6553:6572   */\n      tag_70\n      jump\t// in\n    tag_150:\n        /* \"#utility.yul\":6548:6572   */\n      swap2\n      pop\n        /* \"#utility.yul\":6586:6605   */\n      tag_151\n        /* \"#utility.yul\":6603:6604   */\n      dup4\n        /* \"#utility.yul\":6586:6605   */\n      tag_70\n      jump\t// in\n    tag_151:\n        /* \"#utility.yul\":6581:6605   */\n      swap3\n      pop\n        /* \"#utility.yul\":6787:6788   */\n      dup3\n        /* \"#utility.yul\":6719:6785   */\n      0x7fffffffffffffffffffffffffffffffffffffffffffffffffffffffffffffff\n        /* \"#utility.yul\":6715:6789   */\n      div\n        /* \"#utility.yul\":6712:6713   */\n      dup3\n        /* \"#utility.yul\":6709:6790   */\n      gt\n        /* \"#utility.yul\":6704:6705   */\n      0x00\n        /* \"#utility.yul\":6701:6702   */\n      dup5\n        /* \"#utility.yul\":6697:6706   */\n      sgt\n        /* \"#utility.yul\":6693:6694   */\n      0x00\n        /* \"#utility.yul\":6690:6691   */\n      dup5\n        /* \"#utility.yul\":6686:6695   */\n      sgt\n        /* \"#utility.yul\":6682:6707   */\n      and\n        /* \"#utility.yul\":6678:6791   */\n      and\n        /* \"#utility.yul\":6675:6814   */\n      iszero\n      tag_152\n      jumpi\n        /* \"#utility.yul\":6794:6812   */\n      tag_153\n      tag_65\n      jump\t// in\n    tag_153:\n        /* \"#utility.yul\":6675:6814   */\n    tag_152:\n        /* \"#utility.yul\":6998:6999   */\n      dup2\n        /* \"#utility.yul\":6930:6996   */\n      0x8000000000000000000000000000000000000000000000000000000000000000\n        /* \"#utility.yul\":6925:7000   */\n      sdiv\n        /* \"#utility.yul\":6922:6923   */\n      dup4\n        /* \"#utility.yul\":6918:7001   */\n      slt\n        /* \"#utility.yul\":6913:6914   */\n      0x00\n        /* \"#utility.yul\":6910:6911   */\n      dup5\n        /* \"#utility.yul\":6906:6915   */\n      slt\n        /* \"#utility.yul\":6902:6903   */\n      0x00\n        /* \"#utility.yul\":6899:6900   */\n      dup5\n        /* \"#utility.yul\":6895:6904   */\n      sgt\n        /* \"#utility.yul\":6891:6916   */\n      and\n        /* \"#utility.yul\":6887:7002   */\n      and\n        /* \"#utility.yul\":6884:7025   */\n      iszero\n      tag_154\n      jumpi\n        /* \"#utility.yul\":7005:7023   */\n      tag_155\n      tag_65\n      jump\t// in\n    tag_155:\n        /* \"#utility.yul\":6884:7025   */\n    tag_154:\n        /* \"#utility.yul\":7209:7210   */\n      dup3\n        /* \"#utility.yul\":7141:7207   */\n      0x8000000000000000000000000000000000000000000000000000000000000000\n        /* \"#utility.yul\":7136:7211   */\n      sdiv\n        /* \"#utility.yul\":7133:7134   */\n      dup3\n        /* \"#utility.yul\":7129:7212   */\n      slt\n        /* \"#utility.yul\":7124:7125   */\n      0x00\n        /* \"#utility.yul\":7121:7122   */\n      dup5\n        /* \"#utility.yul\":7117:7126   */\n      sgt\n        /* \"#utility.yul\":7113:7114   */\n      0x00\n        /* \"#utility.yul\":7110:7111   */\n      dup5\n        /* \"#utility.yul\":7106:7115   */\n      slt\n        /* \"#utility.yul\":7102:7127   */\n      and\n        /* \"#utility.yul\":7098:7213   */\n      and\n        /* \"#utility.yul\":7095:7236   */\n      iszero\n      tag_156\n      jumpi\n        /* \"#utility.yul\":7216:7234   */\n      tag_157\n      tag_65\n      jump\t// in\n    tag_157:\n        /* \"#utility.yul\":7095:7236   */\n    tag_156:\n        /* \"#utility.yul\":7419:7420   */\n      dup3\n        /* \"#utility.yul\":7351:7417   */\n      0x7fffffffffffffffffffffffffffffffffffffffffffffffffffffffffffffff\n        /* \"#utility.yul\":7346:7421   */\n      sdiv\n        /* \"#utility.yul\":7343:7344   */\n      dup3\n        /* \"#utility.yul\":7339:7422   */\n      slt\n        /* \"#utility.yul\":7334:7335   */\n      0x00\n        /* \"#utility.yul\":7331:7332   */\n      dup5\n        /* \"#utility.yul\":7327:7336   */\n      slt\n        /* \"#utility.yul\":7323:7324   */\n      0x00\n        /* \"#utility.yul\":7320:7321   */\n      dup5\n        /* \"#utility.yul\":7316:7325   */\n      slt\n        /* \"#utility.yul\":7312:7337   */\n      and\n        /* \"#utility.yul\":7308:7423   */\n      and\n        /* \"#utility.yul\":7305:7446   */\n      iszero\n      tag_158\n      jumpi\n        /* \"#utility.yul\":7426:7444   */\n      tag_159\n      tag_65\n      jump\t// in\n    tag_159:\n        /* \"#utility.yul\":7305:7446   */\n    tag_158:\n        /* \"#utility.yul\":7474:7475   */\n      dup3\n        /* \"#utility.yul\":7471:7472   */\n      dup3\n        /* \"#utility.yul\":7467:7476   */\n      mul\n        /* \"#utility.yul\":7456:7476   */\n      swap1\n      pop\n        /* \"#utility.yul\":6491:7482   */\n      swap3\n      swap2\n      pop\n      pop\n      jump\t// out\n\n    auxdata: 0xa26469706673582212204e17eb0a930031facdcf3992130e5a3bac2f92fc26110ea0e8a53c3b523e48b264736f6c63430008080033\n}\n",
				"bytecode": {
					"linkReferences": {},
					"object": "60806040526802b5e3af16b188000060005534801561001d57600080fd5b5061083a8061002d6000396000f3fe60806040526004361061003f5760003560e01c806351b80e4114610044578063600a6ef61461006f578063b60d4288146100ac578063dc0d3dff146100b6575b600080fd5b34801561005057600080fd5b506100596100f3565b6040516100669190610351565b60405180910390f35b34801561007b57600080fd5b50610096600480360381019061009191906103cf565b6100f9565b6040516100a39190610351565b60405180910390f35b6100b4610111565b005b3480156100c257600080fd5b506100dd60048036038101906100d89190610428565b610207565b6040516100ea9190610464565b60405180910390f35b60005481565b60026020528060005260406000206000915090505481565b60005461011d34610246565b101561015e576040517f08c379a0000000000000000000000000000000000000000000000000000000008152600401610155906104dc565b60405180910390fd5b6001339080600181540180825580915050600190039060005260206000200160009091909190916101000a81548173ffffffffffffffffffffffffffffffffffffffff021916908373ffffffffffffffffffffffffffffffffffffffff16021790555034600260003373ffffffffffffffffffffffffffffffffffffffff1673ffffffffffffffffffffffffffffffffffffffff16815260200190815260200160002081905550565b6001818154811061021757600080fd5b906000526020600020016000915054906101000a900473ffffffffffffffffffffffffffffffffffffffff1681565b600080610251610280565b90506000670de0b6b3a7640000848361026a919061052b565b61027491906105b4565b90508092505050919050565b600080735f4ec3df9cbd43714fe2740f5e3616155c5b8419905060008173ffffffffffffffffffffffffffffffffffffffff1663feaf968c6040518163ffffffff1660e01b815260040160a06040518083038186803b1580156102e257600080fd5b505afa1580156102f6573d6000803e3d6000fd5b505050506040513d601f19601f8201168201806040525081019061031a9190610672565b5050509150506402540be4008161033191906106ed565b9250505090565b6000819050919050565b61034b81610338565b82525050565b60006020820190506103666000830184610342565b92915050565b600080fd5b600073ffffffffffffffffffffffffffffffffffffffff82169050919050565b600061039c82610371565b9050919050565b6103ac81610391565b81146103b757600080fd5b50565b6000813590506103c9816103a3565b92915050565b6000602082840312156103e5576103e461036c565b5b60006103f3848285016103ba565b91505092915050565b61040581610338565b811461041057600080fd5b50565b600081359050610422816103fc565b92915050565b60006020828403121561043e5761043d61036c565b5b600061044c84828501610413565b91505092915050565b61045e81610391565b82525050565b60006020820190506104796000830184610455565b92915050565b600082825260208201905092915050565b7f4e6f7420656e6f75676800000000000000000000000000000000000000000000600082015250565b60006104c6600a8361047f565b91506104d182610490565b602082019050919050565b600060208201905081810360008301526104f5816104b9565b9050919050565b7f4e487b7100000000000000000000000000000000000000000000000000000000600052601160045260246000fd5b600061053682610338565b915061054183610338565b9250817fffffffffffffffffffffffffffffffffffffffffffffffffffffffffffffffff048311821515161561057a576105796104fc565b5b828202905092915050565b7f4e487b7100000000000000000000000000000000000000000000000000000000600052601260045260246000fd5b60006105bf82610338565b91506105ca83610338565b9250826105da576105d9610585565b5b828204905092915050565b600069ffffffffffffffffffff82169050919050565b610604816105e5565b811461060f57600080fd5b50565b600081519050610621816105fb565b92915050565b6000819050919050565b61063a81610627565b811461064557600080fd5b50565b60008151905061065781610631565b92915050565b60008151905061066c816103fc565b92915050565b600080600080600060a0868803121561068e5761068d61036c565b5b600061069c88828901610612565b95505060206106ad88828901610648565b94505060406106be8882890161065d565b93505060606106cf8882890161065d565b92505060806106e088828901610612565b9150509295509295909350565b60006106f882610627565b915061070383610627565b9250827f7fffffffffffffffffffffffffffffffffffffffffffffffffffffffffffffff0482116000841360008413161615610742576107416104fc565b5b817f8000000000000000000000000000000000000000000000000000000000000000058312600084126000841316161561077f5761077e6104fc565b5b827f800000000000000000000000000000000000000000000000000000000000000005821260008413600084121616156107bc576107bb6104fc565b5b827f7fffffffffffffffffffffffffffffffffffffffffffffffffffffffffffffff05821260008412600084121616156107f9576107f86104fc565b5b82820290509291505056fea26469706673582212204e17eb0a930031facdcf3992130e5a3bac2f92fc26110ea0e8a53c3b523e48b264736f6c63430008080033",
					"opcodes": "PUSH1 0x80 PUSH1 0x40 MSTORE PUSH9 0x2B5E3AF16B1880000 PUSH1 0x0 SSTORE CALLVALUE DUP1 ISZERO PUSH2 0x1D JUMPI PUSH1 0x0 DUP1 REVERT JUMPDEST POP PUSH2 0x83A DUP1 PUSH2 0x2D PUSH1 0x0 CODECOPY PUSH1 0x0 RETURN INVALID PUSH1 0x80 PUSH1 0x40 MSTORE PUSH1 0x4 CALLDATASIZE LT PUSH2 0x3F JUMPI PUSH1 0x0 CALLDATALOAD PUSH1 0xE0 SHR DUP1 PUSH4 0x51B80E41 EQ PUSH2 0x44 JUMPI DUP1 PUSH4 0x600A6EF6 EQ PUSH2 0x6F JUMPI DUP1 PUSH4 0xB60D4288 EQ PUSH2 0xAC JUMPI DUP1 PUSH4 0xDC0D3DFF EQ PUSH2 0xB6 JUMPI JUMPDEST PUSH1 0x0 DUP1 REVERT JUMPDEST CALLVALUE DUP1 ISZERO PUSH2 0x50 JUMPI PUSH1 0x0 DUP1 REVERT JUMPDEST POP PUSH2 0x59 PUSH2 0xF3 JUMP JUMPDEST PUSH1 0x40 MLOAD PUSH2 0x66 SWAP2 SWAP1 PUSH2 0x351 JUMP JUMPDEST PUSH1 0x40 MLOAD DUP1 SWAP2 SUB SWAP1 RETURN JUMPDEST CALLVALUE DUP1 ISZERO PUSH2 0x7B JUMPI PUSH1 0x0 DUP1 REVERT JUMPDEST POP PUSH2 0x96 PUSH1 0x4 DUP1 CALLDATASIZE SUB DUP2 ADD SWAP1 PUSH2 0x91 SWAP2 SWAP1 PUSH2 0x3CF JUMP JUMPDEST PUSH2 0xF9 JUMP JUMPDEST PUSH1 0x40 MLOAD PUSH2 0xA3 SWAP2 SWAP1 PUSH2 0x351 JUMP JUMPDEST PUSH1 0x40 MLOAD DUP1 SWAP2 SUB SWAP1 RETURN JUMPDEST PUSH2 0xB4 PUSH2 0x111 JUMP JUMPDEST STOP JUMPDEST CALLVALUE DUP1 ISZERO PUSH2 0xC2 JUMPI PUSH1 0x0 DUP1 REVERT JUMPDEST POP PUSH2 0xDD PUSH1 0x4 DUP1 CALLDATASIZE SUB DUP2 ADD SWAP1 PUSH2 0xD8 SWAP2 SWAP1 PUSH2 0x428 JUMP JUMPDEST PUSH2 0x207 JUMP JUMPDEST PUSH1 0x40 MLOAD PUSH2 0xEA SWAP2 SWAP1 PUSH2 0x464 JUMP JUMPDEST PUSH1 0x40 MLOAD DUP1 SWAP2 SUB SWAP1 RETURN JUMPDEST PUSH1 0x0 SLOAD DUP2 JUMP JUMPDEST PUSH1 0x2 PUSH1 0x20 MSTORE DUP1 PUSH1 0x0 MSTORE PUSH1 0x40 PUSH1 0x0 KECCAK256 PUSH1 0x0 SWAP2 POP SWAP1 POP SLOAD DUP2 JUMP JUMPDEST PUSH1 0x0 SLOAD PUSH2 0x11D CALLVALUE PUSH2 0x246 JUMP JUMPDEST LT ISZERO PUSH2 0x15E JUMPI PUSH1 0x40 MLOAD PUSH32 0x8C379A000000000000000000000000000000000000000000000000000000000 DUP2 MSTORE PUSH1 0x4 ADD PUSH2 0x155 SWAP1 PUSH2 0x4DC JUMP JUMPDEST PUSH1 0x40 MLOAD DUP1 SWAP2 SUB SWAP1 REVERT JUMPDEST PUSH1 0x1 CALLER SWAP1 DUP1 PUSH1 0x1 DUP2 SLOAD ADD DUP1 DUP3 SSTORE DUP1 SWAP2 POP POP PUSH1 0x1 SWAP1 SUB SWAP1 PUSH1 0x0 MSTORE PUSH1 0x20 PUSH1 0x0 KECCAK256 ADD PUSH1 0x0 SWAP1 SWAP2 SWAP1 SWAP2 SWAP1 SWAP2 PUSH2 0x100 EXP DUP2 SLOAD DUP2 PUSH20 0xFFFFFFFFFFFFFFFFFFFFFFFFFFFFFFFFFFFFFFFF MUL NOT AND SWAP1 DUP4 PUSH20 0xFFFFFFFFFFFFFFFFFFFFFFFFFFFFFFFFFFFFFFFF AND MUL OR SWAP1 SSTORE POP CALLVALUE PUSH1 0x2 PUSH1 0x0 CALLER PUSH20 0xFFFFFFFFFFFFFFFFFFFFFFFFFFFFFFFFFFFFFFFF AND PUSH20 0xFFFFFFFFFFFFFFFFFFFFFFFFFFFFFFFFFFFFFFFF AND DUP2 MSTORE PUSH1 0x20 ADD SWAP1 DUP2 MSTORE PUSH1 0x20 ADD PUSH1 0x0 KECCAK256 DUP2 SWAP1 SSTORE POP JUMP JUMPDEST PUSH1 0x1 DUP2 DUP2 SLOAD DUP2 LT PUSH2 0x217 JUMPI PUSH1 0x0 DUP1 REVERT JUMPDEST SWAP1 PUSH1 0x0 MSTORE PUSH1 0x20 PUSH1 0x0 KECCAK256 ADD PUSH1 0x0 SWAP2 POP SLOAD SWAP1 PUSH2 0x100 EXP SWAP1 DIV PUSH20 0xFFFFFFFFFFFFFFFFFFFFFFFFFFFFFFFFFFFFFFFF AND DUP2 JUMP JUMPDEST PUSH1 0x0 DUP1 PUSH2 0x251 PUSH2 0x280 JUMP JUMPDEST SWAP1 POP PUSH1 0x0 PUSH8 0xDE0B6B3A7640000 DUP5 DUP4 PUSH2 0x26A SWAP2 SWAP1 PUSH2 0x52B JUMP JUMPDEST PUSH2 0x274 SWAP2 SWAP1 PUSH2 0x5B4 JUMP JUMPDEST SWAP1 POP DUP1 SWAP3 POP POP POP SWAP2 SWAP1 POP JUMP JUMPDEST PUSH1 0x0 DUP1 PUSH20 0x5F4EC3DF9CBD43714FE2740F5E3616155C5B8419 SWAP1 POP PUSH1 0x0 DUP2 PUSH20 0xFFFFFFFFFFFFFFFFFFFFFFFFFFFFFFFFFFFFFFFF AND PUSH4 0xFEAF968C PUSH1 0x40 MLOAD DUP2 PUSH4 0xFFFFFFFF AND PUSH1 0xE0 SHL DUP2 MSTORE PUSH1 0x4 ADD PUSH1 0xA0 PUSH1 0x40 MLOAD DUP1 DUP4 SUB DUP2 DUP7 DUP1 EXTCODESIZE ISZERO DUP1 ISZERO PUSH2 0x2E2 JUMPI PUSH1 0x0 DUP1 REVERT JUMPDEST POP GAS STATICCALL ISZERO DUP1 ISZERO PUSH2 0x2F6 JUMPI RETURNDATASIZE PUSH1 0x0 DUP1 RETURNDATACOPY RETURNDATASIZE PUSH1 0x0 REVERT JUMPDEST POP POP POP POP PUSH1 0x40 MLOAD RETURNDATASIZE PUSH1 0x1F NOT PUSH1 0x1F DUP3 ADD AND DUP3 ADD DUP1 PUSH1 0x40 MSTORE POP DUP2 ADD SWAP1 PUSH2 0x31A SWAP2 SWAP1 PUSH2 0x672 JUMP JUMPDEST POP POP POP SWAP2 POP POP PUSH5 0x2540BE400 DUP2 PUSH2 0x331 SWAP2 SWAP1 PUSH2 0x6ED JUMP JUMPDEST SWAP3 POP POP POP SWAP1 JUMP JUMPDEST PUSH1 0x0 DUP2 SWAP1 POP SWAP2 SWAP1 POP JUMP JUMPDEST PUSH2 0x34B DUP2 PUSH2 0x338 JUMP JUMPDEST DUP3 MSTORE POP POP JUMP JUMPDEST PUSH1 0x0 PUSH1 0x20 DUP3 ADD SWAP1 POP PUSH2 0x366 PUSH1 0x0 DUP4 ADD DUP5 PUSH2 0x342 JUMP JUMPDEST SWAP3 SWAP2 POP POP JUMP JUMPDEST PUSH1 0x0 DUP1 REVERT JUMPDEST PUSH1 0x0 PUSH20 0xFFFFFFFFFFFFFFFFFFFFFFFFFFFFFFFFFFFFFFFF DUP3 AND SWAP1 POP SWAP2 SWAP1 POP JUMP JUMPDEST PUSH1 0x0 PUSH2 0x39C DUP3 PUSH2 0x371 JUMP JUMPDEST SWAP1 POP SWAP2 SWAP1 POP JUMP JUMPDEST PUSH2 0x3AC DUP2 PUSH2 0x391 JUMP JUMPDEST DUP2 EQ PUSH2 0x3B7 JUMPI PUSH1 0x0 DUP1 REVERT JUMPDEST POP JUMP JUMPDEST PUSH1 0x0 DUP2 CALLDATALOAD SWAP1 POP PUSH2 0x3C9 DUP2 PUSH2 0x3A3 JUMP JUMPDEST SWAP3 SWAP2 POP POP JUMP JUMPDEST PUSH1 0x0 PUSH1 0x20 DUP3 DUP5 SUB SLT ISZERO PUSH2 0x3E5 JUMPI PUSH2 0x3E4 PUSH2 0x36C JUMP JUMPDEST JUMPDEST PUSH1 0x0 PUSH2 0x3F3 DUP5 DUP3 DUP6 ADD PUSH2 0x3BA JUMP JUMPDEST SWAP2 POP POP SWAP3 SWAP2 POP POP JUMP JUMPDEST PUSH2 0x405 DUP2 PUSH2 0x338 JUMP JUMPDEST DUP2 EQ PUSH2 0x410 JUMPI PUSH1 0x0 DUP1 REVERT JUMPDEST POP JUMP JUMPDEST PUSH1 0x0 DUP2 CALLDATALOAD SWAP1 POP PUSH2 0x422 DUP2 PUSH2 0x3FC JUMP JUMPDEST SWAP3 SWAP2 POP POP JUMP JUMPDEST PUSH1 0x0 PUSH1 0x20 DUP3 DUP5 SUB SLT ISZERO PUSH2 0x43E JUMPI PUSH2 0x43D PUSH2 0x36C JUMP JUMPDEST JUMPDEST PUSH1 0x0 PUSH2 0x44C DUP5 DUP3 DUP6 ADD PUSH2 0x413 JUMP JUMPDEST SWAP2 POP POP SWAP3 SWAP2 POP POP JUMP JUMPDEST PUSH2 0x45E DUP2 PUSH2 0x391 JUMP JUMPDEST DUP3 MSTORE POP POP JUMP JUMPDEST PUSH1 0x0 PUSH1 0x20 DUP3 ADD SWAP1 POP PUSH2 0x479 PUSH1 0x0 DUP4 ADD DUP5 PUSH2 0x455 JUMP JUMPDEST SWAP3 SWAP2 POP POP JUMP JUMPDEST PUSH1 0x0 DUP3 DUP3 MSTORE PUSH1 0x20 DUP3 ADD SWAP1 POP SWAP3 SWAP2 POP POP JUMP JUMPDEST PUSH32 0x4E6F7420656E6F75676800000000000000000000000000000000000000000000 PUSH1 0x0 DUP3 ADD MSTORE POP JUMP JUMPDEST PUSH1 0x0 PUSH2 0x4C6 PUSH1 0xA DUP4 PUSH2 0x47F JUMP JUMPDEST SWAP2 POP PUSH2 0x4D1 DUP3 PUSH2 0x490 JUMP JUMPDEST PUSH1 0x20 DUP3 ADD SWAP1 POP SWAP2 SWAP1 POP JUMP JUMPDEST PUSH1 0x0 PUSH1 0x20 DUP3 ADD SWAP1 POP DUP2 DUP2 SUB PUSH1 0x0 DUP4 ADD MSTORE PUSH2 0x4F5 DUP2 PUSH2 0x4B9 JUMP JUMPDEST SWAP1 POP SWAP2 SWAP1 POP JUMP JUMPDEST PUSH32 0x4E487B7100000000000000000000000000000000000000000000000000000000 PUSH1 0x0 MSTORE PUSH1 0x11 PUSH1 0x4 MSTORE PUSH1 0x24 PUSH1 0x0 REVERT JUMPDEST PUSH1 0x0 PUSH2 0x536 DUP3 PUSH2 0x338 JUMP JUMPDEST SWAP2 POP PUSH2 0x541 DUP4 PUSH2 0x338 JUMP JUMPDEST SWAP3 POP DUP2 PUSH32 0xFFFFFFFFFFFFFFFFFFFFFFFFFFFFFFFFFFFFFFFFFFFFFFFFFFFFFFFFFFFFFFFF DIV DUP4 GT DUP3 ISZERO ISZERO AND ISZERO PUSH2 0x57A JUMPI PUSH2 0x579 PUSH2 0x4FC JUMP JUMPDEST JUMPDEST DUP3 DUP3 MUL SWAP1 POP SWAP3 SWAP2 POP POP JUMP JUMPDEST PUSH32 0x4E487B7100000000000000000000000000000000000000000000000000000000 PUSH1 0x0 MSTORE PUSH1 0x12 PUSH1 0x4 MSTORE PUSH1 0x24 PUSH1 0x0 REVERT JUMPDEST PUSH1 0x0 PUSH2 0x5BF DUP3 PUSH2 0x338 JUMP JUMPDEST SWAP2 POP PUSH2 0x5CA DUP4 PUSH2 0x338 JUMP JUMPDEST SWAP3 POP DUP3 PUSH2 0x5DA JUMPI PUSH2 0x5D9 PUSH2 0x585 JUMP JUMPDEST JUMPDEST DUP3 DUP3 DIV SWAP1 POP SWAP3 SWAP2 POP POP JUMP JUMPDEST PUSH1 0x0 PUSH10 0xFFFFFFFFFFFFFFFFFFFF DUP3 AND SWAP1 POP SWAP2 SWAP1 POP JUMP JUMPDEST PUSH2 0x604 DUP2 PUSH2 0x5E5 JUMP JUMPDEST DUP2 EQ PUSH2 0x60F JUMPI PUSH1 0x0 DUP1 REVERT JUMPDEST POP JUMP JUMPDEST PUSH1 0x0 DUP2 MLOAD SWAP1 POP PUSH2 0x621 DUP2 PUSH2 0x5FB JUMP JUMPDEST SWAP3 SWAP2 POP POP JUMP JUMPDEST PUSH1 0x0 DUP2 SWAP1 POP SWAP2 SWAP1 POP JUMP JUMPDEST PUSH2 0x63A DUP2 PUSH2 0x627 JUMP JUMPDEST DUP2 EQ PUSH2 0x645 JUMPI PUSH1 0x0 DUP1 REVERT JUMPDEST POP JUMP JUMPDEST PUSH1 0x0 DUP2 MLOAD SWAP1 POP PUSH2 0x657 DUP2 PUSH2 0x631 JUMP JUMPDEST SWAP3 SWAP2 POP POP JUMP JUMPDEST PUSH1 0x0 DUP2 MLOAD SWAP1 POP PUSH2 0x66C DUP2 PUSH2 0x3FC JUMP JUMPDEST SWAP3 SWAP2 POP POP JUMP JUMPDEST PUSH1 0x0 DUP1 PUSH1 0x0 DUP1 PUSH1 0x0 PUSH1 0xA0 DUP7 DUP9 SUB SLT ISZERO PUSH2 0x68E JUMPI PUSH2 0x68D PUSH2 0x36C JUMP JUMPDEST JUMPDEST PUSH1 0x0 PUSH2 0x69C DUP9 DUP3 DUP10 ADD PUSH2 0x612 JUMP JUMPDEST SWAP6 POP POP PUSH1 0x20 PUSH2 0x6AD DUP9 DUP3 DUP10 ADD PUSH2 0x648 JUMP JUMPDEST SWAP5 POP POP PUSH1 0x40 PUSH2 0x6BE DUP9 DUP3 DUP10 ADD PUSH2 0x65D JUMP JUMPDEST SWAP4 POP POP PUSH1 0x60 PUSH2 0x6CF DUP9 DUP3 DUP10 ADD PUSH2 0x65D JUMP JUMPDEST SWAP3 POP POP PUSH1 0x80 PUSH2 0x6E0 DUP9 DUP3 DUP10 ADD PUSH2 0x612 JUMP JUMPDEST SWAP2 POP POP SWAP3 SWAP6 POP SWAP3 SWAP6 SWAP1 SWAP4 POP JUMP JUMPDEST PUSH1 0x0 PUSH2 0x6F8 DUP3 PUSH2 0x627 JUMP JUMPDEST SWAP2 POP PUSH2 0x703 DUP4 PUSH2 0x627 JUMP JUMPDEST SWAP3 POP DUP3 PUSH32 0x7FFFFFFFFFFFFFFFFFFFFFFFFFFFFFFFFFFFFFFFFFFFFFFFFFFFFFFFFFFFFFFF DIV DUP3 GT PUSH1 0x0 DUP5 SGT PUSH1 0x0 DUP5 SGT AND AND ISZERO PUSH2 0x742 JUMPI PUSH2 0x741 PUSH2 0x4FC JUMP JUMPDEST JUMPDEST DUP2 PUSH32 0x8000000000000000000000000000000000000000000000000000000000000000 SDIV DUP4 SLT PUSH1 0x0 DUP5 SLT PUSH1 0x0 DUP5 SGT AND AND ISZERO PUSH2 0x77F JUMPI PUSH2 0x77E PUSH2 0x4FC JUMP JUMPDEST JUMPDEST DUP3 PUSH32 0x8000000000000000000000000000000000000000000000000000000000000000 SDIV DUP3 SLT PUSH1 0x0 DUP5 SGT PUSH1 0x0 DUP5 SLT AND AND ISZERO PUSH2 0x7BC JUMPI PUSH2 0x7BB PUSH2 0x4FC JUMP JUMPDEST JUMPDEST DUP3 PUSH32 0x7FFFFFFFFFFFFFFFFFFFFFFFFFFFFFFFFFFFFFFFFFFFFFFFFFFFFFFFFFFFFFFF SDIV DUP3 SLT PUSH1 0x0 DUP5 SLT PUSH1 0x0 DUP5 SLT AND AND ISZERO PUSH2 0x7F9 JUMPI PUSH2 0x7F8 PUSH2 0x4FC JUMP JUMPDEST JUMPDEST DUP3 DUP3 MUL SWAP1 POP SWAP3 SWAP2 POP POP JUMP INVALID LOG2 PUSH5 0x6970667358 0x22 SLT KECCAK256 0x4E OR 0xEB EXP SWAP4 STOP BALANCE STATICCALL 0xCD 0xCF CODECOPY SWAP3 SGT 0xE GAS EXTCODESIZE 0xAC 0x2F SWAP3 0xFC 0x26 GT 0xE LOG0 0xE8 0xA5 EXTCODECOPY EXTCODESIZE MSTORE RETURNDATACOPY BASEFEE 0xB2 PUSH5 0x736F6C6343 STOP ADDMOD ADDMOD STOP CALLER "
				},
				"gasEstimates": {
					"creation": {
						"codeDepositCost": "421200",
						"executionCost": "22561",
						"totalCost": "443761"
					},
					"external": {
						"Amount(address)": "2814",
						"fund()": "infinite",
						"funders(uint256)": "5000",
						"minUsd()": "2407"
					}
				},
				"methodIdentifiers": {
					"Amount(address)": "600a6ef6",
					"fund()": "b60d4288",
					"funders(uint256)": "dc0d3dff",
					"minUsd()": "51b80e41"
				}
			},
			"storageLayout": {
				"storage": [
					{
						"astId": 57,
						"contract": "contracts/FundMe.sol:FundMe",
						"label": "minUsd",
						"offset": 0,
						"slot": "0",
						"type": "t_uint256"
					},
					{
						"astId": 60,
						"contract": "contracts/FundMe.sol:FundMe",
						"label": "funders",
						"offset": 0,
						"slot": "1",
						"type": "t_array(t_address)dyn_storage"
					},
					{
						"astId": 64,
						"contract": "contracts/FundMe.sol:FundMe",
						"label": "Amount",
						"offset": 0,
						"slot": "2",
						"type": "t_mapping(t_address,t_uint256)"
					}
				],
				"types": {
					"t_address": {
						"encoding": "inplace",
						"label": "address",
						"numberOfBytes": "20"
					},
					"t_array(t_address)dyn_storage": {
						"base": "t_address",
						"encoding": "dynamic_array",
						"label": "address[]",
						"numberOfBytes": "32"
					},
					"t_mapping(t_address,t_uint256)": {
						"encoding": "mapping",
						"key": "t_address",
						"label": "mapping(address => uint256)",
						"numberOfBytes": "32",
						"value": "t_uint256"
					},
					"t_uint256": {
						"encoding": "inplace",
						"label": "uint256",
						"numberOfBytes": "32"
					}
				}
			},
			"userdoc": {
				"kind": "user",
				"methods": {},
				"version": 1
			}
		}
	}
}