{
	"contracts/FundMe.sol": {
		"FundMe": {
			"abi": [
				{
					"inputs": [
						{
							"internalType": "address",
							"name": "",
							"type": "address"
						}
					],
					"name": "Amount",
					"outputs": [
						{
							"internalType": "uint256",
							"name": "",
							"type": "uint256"
						}
					],
					"stateMutability": "view",
					"type": "function"
				},
				{
					"inputs": [],
					"name": "fund",
					"outputs": [],
					"stateMutability": "payable",
					"type": "function"
				},
				{
					"inputs": [
						{
							"internalType": "uint256",
							"name": "",
							"type": "uint256"
						}
					],
					"name": "funders",
					"outputs": [
						{
							"internalType": "address",
							"name": "",
							"type": "address"
						}
					],
					"stateMutability": "view",
					"type": "function"
				},
				{
					"inputs": [],
					"name": "minUsd",
					"outputs": [
						{
							"internalType": "uint256",
							"name": "",
							"type": "uint256"
						}
					],
					"stateMutability": "view",
					"type": "function"
				},
				{
					"inputs": [],
					"name": "withdraw",
					"outputs": [],
					"stateMutability": "nonpayable",
					"type": "function"
				}
			],
			"devdoc": {
				"kind": "dev",
				"methods": {},
				"version": 1
			},
			"evm": {
				"assembly": "    /* \"contracts/FundMe.sol\":191:1247  contract FundMe{... */\n  mstore(0x40, 0x80)\n    /* \"contracts/FundMe.sol\":280:289  50 * 1e18 */\n  0x02b5e3af16b1880000\n    /* \"contracts/FundMe.sol\":256:289  uint256 public minUsd = 50 * 1e18 */\n  0x00\n  sstore\n    /* \"contracts/FundMe.sol\":191:1247  contract FundMe{... */\n  callvalue\n  dup1\n  iszero\n  tag_1\n  jumpi\n  0x00\n  dup1\n  revert\ntag_1:\n  pop\n  dataSize(sub_0)\n  dup1\n  dataOffset(sub_0)\n  0x00\n  codecopy\n  0x00\n  return\nstop\n\nsub_0: assembly {\n        /* \"contracts/FundMe.sol\":191:1247  contract FundMe{... */\n      mstore(0x40, 0x80)\n      jumpi(tag_1, lt(calldatasize, 0x04))\n      shr(0xe0, calldataload(0x00))\n      dup1\n      0x3ccfd60b\n      eq\n      tag_2\n      jumpi\n      dup1\n      0x51b80e41\n      eq\n      tag_3\n      jumpi\n      dup1\n      0x600a6ef6\n      eq\n      tag_4\n      jumpi\n      dup1\n      0xb60d4288\n      eq\n      tag_5\n      jumpi\n      dup1\n      0xdc0d3dff\n      eq\n      tag_6\n      jumpi\n    tag_1:\n      0x00\n      dup1\n      revert\n        /* \"contracts/FundMe.sol\":610:1244  function withdraw() public {... */\n    tag_2:\n      callvalue\n      dup1\n      iszero\n      tag_7\n      jumpi\n      0x00\n      dup1\n      revert\n    tag_7:\n      pop\n      tag_8\n      tag_9\n      jump\t// in\n    tag_8:\n      stop\n        /* \"contracts/FundMe.sol\":256:289  uint256 public minUsd = 50 * 1e18 */\n    tag_3:\n      callvalue\n      dup1\n      iszero\n      tag_10\n      jumpi\n      0x00\n      dup1\n      revert\n    tag_10:\n      pop\n      tag_11\n      tag_12\n      jump\t// in\n    tag_11:\n      mload(0x40)\n      tag_13\n      swap2\n      swap1\n      tag_14\n      jump\t// in\n    tag_13:\n      mload(0x40)\n      dup1\n      swap2\n      sub\n      swap1\n      return\n        /* \"contracts/FundMe.sol\":329:370  mapping(address => uint256) public Amount */\n    tag_4:\n      callvalue\n      dup1\n      iszero\n      tag_15\n      jumpi\n      0x00\n      dup1\n      revert\n    tag_15:\n      pop\n      tag_16\n      0x04\n      dup1\n      calldatasize\n      sub\n      dup2\n      add\n      swap1\n      tag_17\n      swap2\n      swap1\n      tag_18\n      jump\t// in\n    tag_17:\n      tag_19\n      jump\t// in\n    tag_16:\n      mload(0x40)\n      tag_20\n      swap2\n      swap1\n      tag_14\n      jump\t// in\n    tag_20:\n      mload(0x40)\n      dup1\n      swap2\n      sub\n      swap1\n      return\n        /* \"contracts/FundMe.sol\":379:596  function fund() public payable{... */\n    tag_5:\n      tag_21\n      tag_22\n      jump\t// in\n    tag_21:\n      stop\n        /* \"contracts/FundMe.sol\":298:322  address[] public funders */\n    tag_6:\n      callvalue\n      dup1\n      iszero\n      tag_23\n      jumpi\n      0x00\n      dup1\n      revert\n    tag_23:\n      pop\n      tag_24\n      0x04\n      dup1\n      calldatasize\n      sub\n      dup2\n      add\n      swap1\n      tag_25\n      swap2\n      swap1\n      tag_26\n      jump\t// in\n    tag_25:\n      tag_27\n      jump\t// in\n    tag_24:\n      mload(0x40)\n      tag_28\n      swap2\n      swap1\n      tag_29\n      jump\t// in\n    tag_28:\n      mload(0x40)\n      dup1\n      swap2\n      sub\n      swap1\n      return\n        /* \"contracts/FundMe.sol\":610:1244  function withdraw() public {... */\n    tag_9:\n        /* \"contracts/FundMe.sol\":654:667  uint256 index */\n      0x00\n        /* \"contracts/FundMe.sol\":650:794  for(uint256 index=0; index < funders.length; index++){... */\n    tag_31:\n        /* \"contracts/FundMe.sol\":679:686  funders */\n      0x01\n        /* \"contracts/FundMe.sol\":679:693  funders.length */\n      dup1\n      sload\n      swap1\n      pop\n        /* \"contracts/FundMe.sol\":671:676  index */\n      dup2\n        /* \"contracts/FundMe.sol\":671:693  index < funders.length */\n      lt\n        /* \"contracts/FundMe.sol\":650:794  for(uint256 index=0; index < funders.length; index++){... */\n      iszero\n      tag_32\n      jumpi\n        /* \"contracts/FundMe.sol\":718:732  address funder */\n      0x00\n        /* \"contracts/FundMe.sol\":735:742  funders */\n      0x01\n        /* \"contracts/FundMe.sol\":743:748  index */\n      dup3\n        /* \"contracts/FundMe.sol\":735:749  funders[index] */\n      dup2\n      sload\n      dup2\n      lt\n      tag_34\n      jumpi\n      tag_35\n      tag_36\n      jump\t// in\n    tag_35:\n    tag_34:\n      swap1\n      0x00\n      mstore\n      keccak256(0x00, 0x20)\n      add\n      0x00\n      swap1\n      sload\n      swap1\n      0x0100\n      exp\n      swap1\n      div\n      0xffffffffffffffffffffffffffffffffffffffff\n      and\n        /* \"contracts/FundMe.sol\":718:749  address funder = funders[index] */\n      swap1\n      pop\n        /* \"contracts/FundMe.sol\":781:782  0 */\n      0x00\n        /* \"contracts/FundMe.sol\":764:770  Amount */\n      0x02\n        /* \"contracts/FundMe.sol\":764:778  Amount[funder] */\n      0x00\n        /* \"contracts/FundMe.sol\":771:777  funder */\n      dup4\n        /* \"contracts/FundMe.sol\":764:778  Amount[funder] */\n      0xffffffffffffffffffffffffffffffffffffffff\n      and\n      0xffffffffffffffffffffffffffffffffffffffff\n      and\n      dup2\n      mstore\n      0x20\n      add\n      swap1\n      dup2\n      mstore\n      0x20\n      add\n      0x00\n      keccak256\n        /* \"contracts/FundMe.sol\":764:782  Amount[funder] = 0 */\n      dup2\n      swap1\n      sstore\n      pop\n        /* \"contracts/FundMe.sol\":703:794  {... */\n      pop\n        /* \"contracts/FundMe.sol\":695:702  index++ */\n      dup1\n      dup1\n      tag_38\n      swap1\n      tag_39\n      jump\t// in\n    tag_38:\n      swap2\n      pop\n      pop\n        /* \"contracts/FundMe.sol\":650:794  for(uint256 index=0; index < funders.length; index++){... */\n      jump(tag_31)\n    tag_32:\n      pop\n        /* \"contracts/FundMe.sol\":828:829  0 */\n      0x00\n        /* \"contracts/FundMe.sol\":814:830  new address[](0) */\n      0xffffffffffffffff\n      dup2\n      gt\n      iszero\n      tag_40\n      jumpi\n      tag_41\n      tag_42\n      jump\t// in\n    tag_41:\n    tag_40:\n      mload(0x40)\n      swap1\n      dup1\n      dup3\n      mstore\n      dup1\n      0x20\n      mul\n      0x20\n      add\n      dup3\n      add\n      0x40\n      mstore\n      dup1\n      iszero\n      tag_43\n      jumpi\n      dup2\n      0x20\n      add\n      0x20\n      dup3\n      mul\n      dup1\n      calldatasize\n      dup4\n      calldatacopy\n      dup1\n      dup3\n      add\n      swap2\n      pop\n      pop\n      swap1\n      pop\n    tag_43:\n      pop\n        /* \"contracts/FundMe.sol\":804:811  funders */\n      0x01\n        /* \"contracts/FundMe.sol\":804:830  funders = new address[](0) */\n      swap1\n      dup1\n      mload\n      swap1\n      0x20\n      add\n      swap1\n      tag_44\n      swap3\n      swap2\n      swap1\n      tag_45\n      jump\t// in\n    tag_44:\n      pop\n        /* \"contracts/FundMe.sol\":870:880  msg.sender */\n      caller\n        /* \"contracts/FundMe.sol\":862:890  payable(msg.sender).transfer */\n      0xffffffffffffffffffffffffffffffffffffffff\n      and\n        /* \"contracts/FundMe.sol\":862:913  payable(msg.sender).transfer(address(this).balance) */\n      0x08fc\n        /* \"contracts/FundMe.sol\":891:912  address(this).balance */\n      selfbalance\n        /* \"contracts/FundMe.sol\":862:913  payable(msg.sender).transfer(address(this).balance) */\n      swap1\n      dup2\n      iszero\n      mul\n      swap1\n      mload(0x40)\n      0x00\n      mload(0x40)\n      dup1\n      dup4\n      sub\n      dup2\n      dup6\n      dup9\n      dup9\n      call\n      swap4\n      pop\n      pop\n      pop\n      pop\n      iszero\n      dup1\n      iszero\n      tag_47\n      jumpi\n      returndatasize\n      0x00\n      dup1\n      returndatacopy\n      revert(0x00, returndatasize)\n    tag_47:\n      pop\n        /* \"contracts/FundMe.sol\":975:986  bool verify */\n      0x00\n        /* \"contracts/FundMe.sol\":997:1007  msg.sender */\n      caller\n        /* \"contracts/FundMe.sol\":989:1013  payable(msg.sender).send */\n      0xffffffffffffffffffffffffffffffffffffffff\n      and\n        /* \"contracts/FundMe.sol\":989:1036  payable(msg.sender).send(address(this).balance) */\n      0x08fc\n        /* \"contracts/FundMe.sol\":1014:1035  address(this).balance */\n      selfbalance\n        /* \"contracts/FundMe.sol\":989:1036  payable(msg.sender).send(address(this).balance) */\n      swap1\n      dup2\n      iszero\n      mul\n      swap1\n      mload(0x40)\n      0x00\n      mload(0x40)\n      dup1\n      dup4\n      sub\n      dup2\n      dup6\n      dup9\n      dup9\n      call\n      swap4\n      pop\n      pop\n      pop\n      pop\n        /* \"contracts/FundMe.sol\":975:1036  bool verify = payable(msg.sender).send(address(this).balance) */\n      swap1\n      pop\n        /* \"contracts/FundMe.sol\":1055:1061  verify */\n      dup1\n        /* \"contracts/FundMe.sol\":1047:1076  require(verify,\"Send Failed\") */\n      tag_49\n      jumpi\n      mload(0x40)\n      0x08c379a000000000000000000000000000000000000000000000000000000000\n      dup2\n      mstore\n      0x04\n      add\n      tag_50\n      swap1\n      tag_51\n      jump\t// in\n    tag_50:\n      mload(0x40)\n      dup1\n      swap2\n      sub\n      swap1\n      revert\n    tag_49:\n        /* \"contracts/FundMe.sol\":1105:1117  bool success */\n      0x00\n        /* \"contracts/FundMe.sol\":1130:1140  msg.sender */\n      caller\n        /* \"contracts/FundMe.sol\":1122:1146  payable(msg.sender).call */\n      0xffffffffffffffffffffffffffffffffffffffff\n      and\n        /* \"contracts/FundMe.sol\":1154:1175  address(this).balance */\n      selfbalance\n        /* \"contracts/FundMe.sol\":1122:1180  payable(msg.sender).call{value: address(this).balance}(\"\") */\n      mload(0x40)\n      tag_52\n      swap1\n      tag_53\n      jump\t// in\n    tag_52:\n      0x00\n      mload(0x40)\n      dup1\n      dup4\n      sub\n      dup2\n      dup6\n      dup8\n      gas\n      call\n      swap3\n      pop\n      pop\n      pop\n      returndatasize\n      dup1\n      0x00\n      dup2\n      eq\n      tag_56\n      jumpi\n      mload(0x40)\n      swap2\n      pop\n      and(add(returndatasize, 0x3f), not(0x1f))\n      dup3\n      add\n      0x40\n      mstore\n      returndatasize\n      dup3\n      mstore\n      returndatasize\n      0x00\n      0x20\n      dup5\n      add\n      returndatacopy\n      jump(tag_55)\n    tag_56:\n      0x60\n      swap2\n      pop\n    tag_55:\n      pop\n        /* \"contracts/FundMe.sol\":1104:1180  (bool success,) = payable(msg.sender).call{value: address(this).balance}(\"\") */\n      pop\n      swap1\n      pop\n        /* \"contracts/FundMe.sol\":1199:1206  success */\n      dup1\n        /* \"contracts/FundMe.sol\":1191:1221  require(success,\"Call Failed\") */\n      tag_57\n      jumpi\n      mload(0x40)\n      0x08c379a000000000000000000000000000000000000000000000000000000000\n      dup2\n      mstore\n      0x04\n      add\n      tag_58\n      swap1\n      tag_59\n      jump\t// in\n    tag_58:\n      mload(0x40)\n      dup1\n      swap2\n      sub\n      swap1\n      revert\n    tag_57:\n        /* \"contracts/FundMe.sol\":637:1244  {... */\n      pop\n      pop\n        /* \"contracts/FundMe.sol\":610:1244  function withdraw() public {... */\n      jump\t// out\n        /* \"contracts/FundMe.sol\":256:289  uint256 public minUsd = 50 * 1e18 */\n    tag_12:\n      sload(0x00)\n      dup2\n      jump\t// out\n        /* \"contracts/FundMe.sol\":329:370  mapping(address => uint256) public Amount */\n    tag_19:\n      mstore(0x20, 0x02)\n      dup1\n      0x00\n      mstore\n      keccak256(0x00, 0x40)\n      0x00\n      swap2\n      pop\n      swap1\n      pop\n      sload\n      dup2\n      jump\t// out\n        /* \"contracts/FundMe.sol\":379:596  function fund() public payable{... */\n    tag_22:\n        /* \"contracts/FundMe.sol\":466:472  minUsd */\n      sload(0x00)\n        /* \"contracts/FundMe.sol\":433:462  msg.value.getConversionRate() */\n      tag_61\n        /* \"contracts/FundMe.sol\":433:442  msg.value */\n      callvalue\n        /* \"contracts/FundMe.sol\":433:460  msg.value.getConversionRate */\n      tag_62\n        /* \"contracts/FundMe.sol\":433:462  msg.value.getConversionRate() */\n      jump\t// in\n    tag_61:\n        /* \"contracts/FundMe.sol\":433:472  msg.value.getConversionRate() >= minUsd */\n      lt\n      iszero\n        /* \"contracts/FundMe.sol\":425:487  require(msg.value.getConversionRate() >= minUsd, \"Not enough\") */\n      tag_63\n      jumpi\n      mload(0x40)\n      0x08c379a000000000000000000000000000000000000000000000000000000000\n      dup2\n      mstore\n      0x04\n      add\n      tag_64\n      swap1\n      tag_65\n      jump\t// in\n    tag_64:\n      mload(0x40)\n      dup1\n      swap2\n      sub\n      swap1\n      revert\n    tag_63:\n        /* \"contracts/FundMe.sol\":521:528  funders */\n      0x01\n        /* \"contracts/FundMe.sol\":534:544  msg.sender */\n      caller\n        /* \"contracts/FundMe.sol\":521:545  funders.push(msg.sender) */\n      swap1\n      dup1\n      0x01\n      dup2\n      sload\n      add\n      dup1\n      dup3\n      sstore\n      dup1\n      swap2\n      pop\n      pop\n      0x01\n      swap1\n      sub\n      swap1\n      0x00\n      mstore\n      keccak256(0x00, 0x20)\n      add\n      0x00\n      swap1\n      swap2\n      swap1\n      swap2\n      swap1\n      swap2\n      0x0100\n      exp\n      dup2\n      sload\n      dup2\n      0xffffffffffffffffffffffffffffffffffffffff\n      mul\n      not\n      and\n      swap1\n      dup4\n      0xffffffffffffffffffffffffffffffffffffffff\n      and\n      mul\n      or\n      swap1\n      sstore\n      pop\n        /* \"contracts/FundMe.sol\":578:587  msg.value */\n      callvalue\n        /* \"contracts/FundMe.sol\":556:562  Amount */\n      0x02\n        /* \"contracts/FundMe.sol\":556:574  Amount[msg.sender] */\n      0x00\n        /* \"contracts/FundMe.sol\":563:573  msg.sender */\n      caller\n        /* \"contracts/FundMe.sol\":556:574  Amount[msg.sender] */\n      0xffffffffffffffffffffffffffffffffffffffff\n      and\n      0xffffffffffffffffffffffffffffffffffffffff\n      and\n      dup2\n      mstore\n      0x20\n      add\n      swap1\n      dup2\n      mstore\n      0x20\n      add\n      0x00\n      keccak256\n      0x00\n        /* \"contracts/FundMe.sol\":556:587  Amount[msg.sender] += msg.value */\n      dup3\n      dup3\n      sload\n      tag_67\n      swap2\n      swap1\n      tag_68\n      jump\t// in\n    tag_67:\n      swap3\n      pop\n      pop\n      dup2\n      swap1\n      sstore\n      pop\n        /* \"contracts/FundMe.sol\":379:596  function fund() public payable{... */\n      jump\t// out\n        /* \"contracts/FundMe.sol\":298:322  address[] public funders */\n    tag_27:\n      0x01\n      dup2\n      dup2\n      sload\n      dup2\n      lt\n      tag_69\n      jumpi\n      0x00\n      dup1\n      revert\n    tag_69:\n      swap1\n      0x00\n      mstore\n      keccak256(0x00, 0x20)\n      add\n      0x00\n      swap2\n      pop\n      sload\n      swap1\n      0x0100\n      exp\n      swap1\n      div\n      0xffffffffffffffffffffffffffffffffffffffff\n      and\n      dup2\n      jump\t// out\n        /* \"contracts/PriceConverter.sol\":789:988  function getConversionRate(uint256 eth) internal view returns (uint256) {... */\n    tag_62:\n        /* \"contracts/PriceConverter.sol\":852:859  uint256 */\n      0x00\n        /* \"contracts/PriceConverter.sol\":872:888  uint256 ethPrice */\n      dup1\n        /* \"contracts/PriceConverter.sol\":891:901  getPrice() */\n      tag_72\n        /* \"contracts/PriceConverter.sol\":891:899  getPrice */\n      tag_73\n        /* \"contracts/PriceConverter.sol\":891:901  getPrice() */\n      jump\t// in\n    tag_72:\n        /* \"contracts/PriceConverter.sol\":872:901  uint256 ethPrice = getPrice() */\n      swap1\n      pop\n        /* \"contracts/PriceConverter.sol\":912:928  uint256 ethInUSD */\n      0x00\n        /* \"contracts/PriceConverter.sol\":950:954  1e18 */\n      0x0de0b6b3a7640000\n        /* \"contracts/PriceConverter.sol\":943:946  eth */\n      dup5\n        /* \"contracts/PriceConverter.sol\":932:940  ethPrice */\n      dup4\n        /* \"contracts/PriceConverter.sol\":932:946  ethPrice * eth */\n      tag_74\n      swap2\n      swap1\n      tag_75\n      jump\t// in\n    tag_74:\n        /* \"contracts/PriceConverter.sol\":931:954  (ethPrice * eth) / 1e18 */\n      tag_76\n      swap2\n      swap1\n      tag_77\n      jump\t// in\n    tag_76:\n        /* \"contracts/PriceConverter.sol\":912:954  uint256 ethInUSD = (ethPrice * eth) / 1e18 */\n      swap1\n      pop\n        /* \"contracts/PriceConverter.sol\":972:980  ethInUSD */\n      dup1\n        /* \"contracts/PriceConverter.sol\":965:980  return ethInUSD */\n      swap3\n      pop\n      pop\n      pop\n        /* \"contracts/PriceConverter.sol\":789:988  function getConversionRate(uint256 eth) internal view returns (uint256) {... */\n      swap2\n      swap1\n      pop\n      jump\t// out\n        /* \"contracts/PriceConverter.sol\":190:510  function getPrice() internal view returns (uint256){... */\n    tag_73:\n        /* \"contracts/PriceConverter.sol\":233:240  uint256 */\n      0x00\n        /* \"contracts/PriceConverter.sol\":308:339  AggregatorV3Interface priceFeed */\n      dup1\n        /* \"contracts/PriceConverter.sol\":364:406  0x5f4eC3Df9cbd43714FE2740f5E3616155c5b8419 */\n      0x5f4ec3df9cbd43714fe2740f5e3616155c5b8419\n        /* \"contracts/PriceConverter.sol\":308:407  AggregatorV3Interface priceFeed = AggregatorV3Interface(0x5f4eC3Df9cbd43714FE2740f5E3616155c5b8419) */\n      swap1\n      pop\n        /* \"contracts/PriceConverter.sol\":420:429  int price */\n      0x00\n        /* \"contracts/PriceConverter.sol\":436:445  priceFeed */\n      dup2\n        /* \"contracts/PriceConverter.sol\":436:461  priceFeed.latestRoundData */\n      0xffffffffffffffffffffffffffffffffffffffff\n      and\n      0xfeaf968c\n        /* \"contracts/PriceConverter.sol\":436:463  priceFeed.latestRoundData() */\n      mload(0x40)\n      dup2\n      0xffffffff\n      and\n      0xe0\n      shl\n      dup2\n      mstore\n      0x04\n      add\n      0xa0\n      mload(0x40)\n      dup1\n      dup4\n      sub\n      dup2\n      dup7\n      dup1\n      extcodesize\n      iszero\n      dup1\n      iszero\n      tag_79\n      jumpi\n      0x00\n      dup1\n      revert\n    tag_79:\n      pop\n      gas\n      staticcall\n      iszero\n      dup1\n      iszero\n      tag_81\n      jumpi\n      returndatasize\n      0x00\n      dup1\n      returndatacopy\n      revert(0x00, returndatasize)\n    tag_81:\n      pop\n      pop\n      pop\n      pop\n      mload(0x40)\n      returndatasize\n      not(0x1f)\n      0x1f\n      dup3\n      add\n      and\n      dup3\n      add\n      dup1\n      0x40\n      mstore\n      pop\n      dup2\n      add\n      swap1\n      tag_82\n      swap2\n      swap1\n      tag_83\n      jump\t// in\n    tag_82:\n        /* \"contracts/PriceConverter.sol\":418:463  (,int price,,,) = priceFeed.latestRoundData() */\n      pop\n      pop\n      pop\n      swap2\n      pop\n      pop\n        /* \"contracts/PriceConverter.sol\":497:501  1e10 */\n      0x02540be400\n        /* \"contracts/PriceConverter.sol\":489:494  price */\n      dup2\n        /* \"contracts/PriceConverter.sol\":489:501  price * 1e10 */\n      tag_84\n      swap2\n      swap1\n      tag_85\n      jump\t// in\n    tag_84:\n        /* \"contracts/PriceConverter.sol\":474:502  return uint256(price * 1e10) */\n      swap3\n      pop\n      pop\n      pop\n        /* \"contracts/PriceConverter.sol\":190:510  function getPrice() internal view returns (uint256){... */\n      swap1\n      jump\t// out\n    tag_45:\n      dup3\n      dup1\n      sload\n      dup3\n      dup3\n      sstore\n      swap1\n      0x00\n      mstore\n      keccak256(0x00, 0x20)\n      swap1\n      dup2\n      add\n      swap3\n      dup3\n      iszero\n      tag_86\n      jumpi\n      swap2\n      0x20\n      mul\n      dup3\n      add\n    tag_87:\n      dup3\n      dup2\n      gt\n      iszero\n      tag_88\n      jumpi\n      dup3\n      mload\n      dup3\n      exp(0x0100, 0x00)\n      dup2\n      sload\n      dup2\n      0xffffffffffffffffffffffffffffffffffffffff\n      mul\n      not\n      and\n      swap1\n      dup4\n      0xffffffffffffffffffffffffffffffffffffffff\n      and\n      mul\n      or\n      swap1\n      sstore\n      pop\n      swap2\n      0x20\n      add\n      swap2\n      swap1\n      0x01\n      add\n      swap1\n      jump(tag_87)\n    tag_88:\n    tag_86:\n      pop\n      swap1\n      pop\n      tag_89\n      swap2\n      swap1\n      tag_90\n      jump\t// in\n    tag_89:\n      pop\n      swap1\n      jump\t// out\n    tag_90:\n    tag_91:\n      dup1\n      dup3\n      gt\n      iszero\n      tag_92\n      jumpi\n      0x00\n      dup2\n      0x00\n      swap1\n      sstore\n      pop\n      0x01\n      add\n      jump(tag_91)\n    tag_92:\n      pop\n      swap1\n      jump\t// out\n        /* \"#utility.yul\":7:84   */\n    tag_93:\n        /* \"#utility.yul\":44:51   */\n      0x00\n        /* \"#utility.yul\":73:78   */\n      dup2\n        /* \"#utility.yul\":62:78   */\n      swap1\n      pop\n        /* \"#utility.yul\":7:84   */\n      swap2\n      swap1\n      pop\n      jump\t// out\n        /* \"#utility.yul\":90:208   */\n    tag_94:\n        /* \"#utility.yul\":177:201   */\n      tag_127\n        /* \"#utility.yul\":195:200   */\n      dup2\n        /* \"#utility.yul\":177:201   */\n      tag_93\n      jump\t// in\n    tag_127:\n        /* \"#utility.yul\":172:175   */\n      dup3\n        /* \"#utility.yul\":165:202   */\n      mstore\n        /* \"#utility.yul\":90:208   */\n      pop\n      pop\n      jump\t// out\n        /* \"#utility.yul\":214:436   */\n    tag_14:\n        /* \"#utility.yul\":307:311   */\n      0x00\n        /* \"#utility.yul\":345:347   */\n      0x20\n        /* \"#utility.yul\":334:343   */\n      dup3\n        /* \"#utility.yul\":330:348   */\n      add\n        /* \"#utility.yul\":322:348   */\n      swap1\n      pop\n        /* \"#utility.yul\":358:429   */\n      tag_129\n        /* \"#utility.yul\":426:427   */\n      0x00\n        /* \"#utility.yul\":415:424   */\n      dup4\n        /* \"#utility.yul\":411:428   */\n      add\n        /* \"#utility.yul\":402:408   */\n      dup5\n        /* \"#utility.yul\":358:429   */\n      tag_94\n      jump\t// in\n    tag_129:\n        /* \"#utility.yul\":214:436   */\n      swap3\n      swap2\n      pop\n      pop\n      jump\t// out\n        /* \"#utility.yul\":523:640   */\n    tag_96:\n        /* \"#utility.yul\":632:633   */\n      0x00\n        /* \"#utility.yul\":629:630   */\n      dup1\n        /* \"#utility.yul\":622:634   */\n      revert\n        /* \"#utility.yul\":769:895   */\n    tag_98:\n        /* \"#utility.yul\":806:813   */\n      0x00\n        /* \"#utility.yul\":846:888   */\n      0xffffffffffffffffffffffffffffffffffffffff\n        /* \"#utility.yul\":839:844   */\n      dup3\n        /* \"#utility.yul\":835:889   */\n      and\n        /* \"#utility.yul\":824:889   */\n      swap1\n      pop\n        /* \"#utility.yul\":769:895   */\n      swap2\n      swap1\n      pop\n      jump\t// out\n        /* \"#utility.yul\":901:997   */\n    tag_99:\n        /* \"#utility.yul\":938:945   */\n      0x00\n        /* \"#utility.yul\":967:991   */\n      tag_135\n        /* \"#utility.yul\":985:990   */\n      dup3\n        /* \"#utility.yul\":967:991   */\n      tag_98\n      jump\t// in\n    tag_135:\n        /* \"#utility.yul\":956:991   */\n      swap1\n      pop\n        /* \"#utility.yul\":901:997   */\n      swap2\n      swap1\n      pop\n      jump\t// out\n        /* \"#utility.yul\":1003:1125   */\n    tag_100:\n        /* \"#utility.yul\":1076:1100   */\n      tag_137\n        /* \"#utility.yul\":1094:1099   */\n      dup2\n        /* \"#utility.yul\":1076:1100   */\n      tag_99\n      jump\t// in\n    tag_137:\n        /* \"#utility.yul\":1069:1074   */\n      dup2\n        /* \"#utility.yul\":1066:1101   */\n      eq\n        /* \"#utility.yul\":1056:1119   */\n      tag_138\n      jumpi\n        /* \"#utility.yul\":1115:1116   */\n      0x00\n        /* \"#utility.yul\":1112:1113   */\n      dup1\n        /* \"#utility.yul\":1105:1117   */\n      revert\n        /* \"#utility.yul\":1056:1119   */\n    tag_138:\n        /* \"#utility.yul\":1003:1125   */\n      pop\n      jump\t// out\n        /* \"#utility.yul\":1131:1270   */\n    tag_101:\n        /* \"#utility.yul\":1177:1182   */\n      0x00\n        /* \"#utility.yul\":1215:1221   */\n      dup2\n        /* \"#utility.yul\":1202:1222   */\n      calldataload\n        /* \"#utility.yul\":1193:1222   */\n      swap1\n      pop\n        /* \"#utility.yul\":1231:1264   */\n      tag_140\n        /* \"#utility.yul\":1258:1263   */\n      dup2\n        /* \"#utility.yul\":1231:1264   */\n      tag_100\n      jump\t// in\n    tag_140:\n        /* \"#utility.yul\":1131:1270   */\n      swap3\n      swap2\n      pop\n      pop\n      jump\t// out\n        /* \"#utility.yul\":1276:1605   */\n    tag_18:\n        /* \"#utility.yul\":1335:1341   */\n      0x00\n        /* \"#utility.yul\":1384:1386   */\n      0x20\n        /* \"#utility.yul\":1372:1381   */\n      dup3\n        /* \"#utility.yul\":1363:1370   */\n      dup5\n        /* \"#utility.yul\":1359:1382   */\n      sub\n        /* \"#utility.yul\":1355:1387   */\n      slt\n        /* \"#utility.yul\":1352:1471   */\n      iszero\n      tag_142\n      jumpi\n        /* \"#utility.yul\":1390:1469   */\n      tag_143\n      tag_96\n      jump\t// in\n    tag_143:\n        /* \"#utility.yul\":1352:1471   */\n    tag_142:\n        /* \"#utility.yul\":1510:1511   */\n      0x00\n        /* \"#utility.yul\":1535:1588   */\n      tag_144\n        /* \"#utility.yul\":1580:1587   */\n      dup5\n        /* \"#utility.yul\":1571:1577   */\n      dup3\n        /* \"#utility.yul\":1560:1569   */\n      dup6\n        /* \"#utility.yul\":1556:1578   */\n      add\n        /* \"#utility.yul\":1535:1588   */\n      tag_101\n      jump\t// in\n    tag_144:\n        /* \"#utility.yul\":1525:1588   */\n      swap2\n      pop\n        /* \"#utility.yul\":1481:1598   */\n      pop\n        /* \"#utility.yul\":1276:1605   */\n      swap3\n      swap2\n      pop\n      pop\n      jump\t// out\n        /* \"#utility.yul\":1611:1733   */\n    tag_102:\n        /* \"#utility.yul\":1684:1708   */\n      tag_146\n        /* \"#utility.yul\":1702:1707   */\n      dup2\n        /* \"#utility.yul\":1684:1708   */\n      tag_93\n      jump\t// in\n    tag_146:\n        /* \"#utility.yul\":1677:1682   */\n      dup2\n        /* \"#utility.yul\":1674:1709   */\n      eq\n        /* \"#utility.yul\":1664:1727   */\n      tag_147\n      jumpi\n        /* \"#utility.yul\":1723:1724   */\n      0x00\n        /* \"#utility.yul\":1720:1721   */\n      dup1\n        /* \"#utility.yul\":1713:1725   */\n      revert\n        /* \"#utility.yul\":1664:1727   */\n    tag_147:\n        /* \"#utility.yul\":1611:1733   */\n      pop\n      jump\t// out\n        /* \"#utility.yul\":1739:1878   */\n    tag_103:\n        /* \"#utility.yul\":1785:1790   */\n      0x00\n        /* \"#utility.yul\":1823:1829   */\n      dup2\n        /* \"#utility.yul\":1810:1830   */\n      calldataload\n        /* \"#utility.yul\":1801:1830   */\n      swap1\n      pop\n        /* \"#utility.yul\":1839:1872   */\n      tag_149\n        /* \"#utility.yul\":1866:1871   */\n      dup2\n        /* \"#utility.yul\":1839:1872   */\n      tag_102\n      jump\t// in\n    tag_149:\n        /* \"#utility.yul\":1739:1878   */\n      swap3\n      swap2\n      pop\n      pop\n      jump\t// out\n        /* \"#utility.yul\":1884:2213   */\n    tag_26:\n        /* \"#utility.yul\":1943:1949   */\n      0x00\n        /* \"#utility.yul\":1992:1994   */\n      0x20\n        /* \"#utility.yul\":1980:1989   */\n      dup3\n        /* \"#utility.yul\":1971:1978   */\n      dup5\n        /* \"#utility.yul\":1967:1990   */\n      sub\n        /* \"#utility.yul\":1963:1995   */\n      slt\n        /* \"#utility.yul\":1960:2079   */\n      iszero\n      tag_151\n      jumpi\n        /* \"#utility.yul\":1998:2077   */\n      tag_152\n      tag_96\n      jump\t// in\n    tag_152:\n        /* \"#utility.yul\":1960:2079   */\n    tag_151:\n        /* \"#utility.yul\":2118:2119   */\n      0x00\n        /* \"#utility.yul\":2143:2196   */\n      tag_153\n        /* \"#utility.yul\":2188:2195   */\n      dup5\n        /* \"#utility.yul\":2179:2185   */\n      dup3\n        /* \"#utility.yul\":2168:2177   */\n      dup6\n        /* \"#utility.yul\":2164:2186   */\n      add\n        /* \"#utility.yul\":2143:2196   */\n      tag_103\n      jump\t// in\n    tag_153:\n        /* \"#utility.yul\":2133:2196   */\n      swap2\n      pop\n        /* \"#utility.yul\":2089:2206   */\n      pop\n        /* \"#utility.yul\":1884:2213   */\n      swap3\n      swap2\n      pop\n      pop\n      jump\t// out\n        /* \"#utility.yul\":2219:2337   */\n    tag_104:\n        /* \"#utility.yul\":2306:2330   */\n      tag_155\n        /* \"#utility.yul\":2324:2329   */\n      dup2\n        /* \"#utility.yul\":2306:2330   */\n      tag_99\n      jump\t// in\n    tag_155:\n        /* \"#utility.yul\":2301:2304   */\n      dup3\n        /* \"#utility.yul\":2294:2331   */\n      mstore\n        /* \"#utility.yul\":2219:2337   */\n      pop\n      pop\n      jump\t// out\n        /* \"#utility.yul\":2343:2565   */\n    tag_29:\n        /* \"#utility.yul\":2436:2440   */\n      0x00\n        /* \"#utility.yul\":2474:2476   */\n      0x20\n        /* \"#utility.yul\":2463:2472   */\n      dup3\n        /* \"#utility.yul\":2459:2477   */\n      add\n        /* \"#utility.yul\":2451:2477   */\n      swap1\n      pop\n        /* \"#utility.yul\":2487:2558   */\n      tag_157\n        /* \"#utility.yul\":2555:2556   */\n      0x00\n        /* \"#utility.yul\":2544:2553   */\n      dup4\n        /* \"#utility.yul\":2540:2557   */\n      add\n        /* \"#utility.yul\":2531:2537   */\n      dup5\n        /* \"#utility.yul\":2487:2558   */\n      tag_104\n      jump\t// in\n    tag_157:\n        /* \"#utility.yul\":2343:2565   */\n      swap3\n      swap2\n      pop\n      pop\n      jump\t// out\n        /* \"#utility.yul\":2571:2751   */\n    tag_36:\n        /* \"#utility.yul\":2619:2696   */\n      0x4e487b7100000000000000000000000000000000000000000000000000000000\n        /* \"#utility.yul\":2616:2617   */\n      0x00\n        /* \"#utility.yul\":2609:2697   */\n      mstore\n        /* \"#utility.yul\":2716:2720   */\n      0x32\n        /* \"#utility.yul\":2713:2714   */\n      0x04\n        /* \"#utility.yul\":2706:2721   */\n      mstore\n        /* \"#utility.yul\":2740:2744   */\n      0x24\n        /* \"#utility.yul\":2737:2738   */\n      0x00\n        /* \"#utility.yul\":2730:2745   */\n      revert\n        /* \"#utility.yul\":2757:2937   */\n    tag_105:\n        /* \"#utility.yul\":2805:2882   */\n      0x4e487b7100000000000000000000000000000000000000000000000000000000\n        /* \"#utility.yul\":2802:2803   */\n      0x00\n        /* \"#utility.yul\":2795:2883   */\n      mstore\n        /* \"#utility.yul\":2902:2906   */\n      0x11\n        /* \"#utility.yul\":2899:2900   */\n      0x04\n        /* \"#utility.yul\":2892:2907   */\n      mstore\n        /* \"#utility.yul\":2926:2930   */\n      0x24\n        /* \"#utility.yul\":2923:2924   */\n      0x00\n        /* \"#utility.yul\":2916:2931   */\n      revert\n        /* \"#utility.yul\":2943:3176   */\n    tag_39:\n        /* \"#utility.yul\":2982:2985   */\n      0x00\n        /* \"#utility.yul\":3005:3029   */\n      tag_161\n        /* \"#utility.yul\":3023:3028   */\n      dup3\n        /* \"#utility.yul\":3005:3029   */\n      tag_93\n      jump\t// in\n    tag_161:\n        /* \"#utility.yul\":2996:3029   */\n      swap2\n      pop\n        /* \"#utility.yul\":3051:3117   */\n      0xffffffffffffffffffffffffffffffffffffffffffffffffffffffffffffffff\n        /* \"#utility.yul\":3044:3049   */\n      dup3\n        /* \"#utility.yul\":3041:3118   */\n      eq\n        /* \"#utility.yul\":3038:3141   */\n      iszero\n      tag_162\n      jumpi\n        /* \"#utility.yul\":3121:3139   */\n      tag_163\n      tag_105\n      jump\t// in\n    tag_163:\n        /* \"#utility.yul\":3038:3141   */\n    tag_162:\n        /* \"#utility.yul\":3168:3169   */\n      0x01\n        /* \"#utility.yul\":3161:3166   */\n      dup3\n        /* \"#utility.yul\":3157:3170   */\n      add\n        /* \"#utility.yul\":3150:3170   */\n      swap1\n      pop\n        /* \"#utility.yul\":2943:3176   */\n      swap2\n      swap1\n      pop\n      jump\t// out\n        /* \"#utility.yul\":3182:3362   */\n    tag_42:\n        /* \"#utility.yul\":3230:3307   */\n      0x4e487b7100000000000000000000000000000000000000000000000000000000\n        /* \"#utility.yul\":3227:3228   */\n      0x00\n        /* \"#utility.yul\":3220:3308   */\n      mstore\n        /* \"#utility.yul\":3327:3331   */\n      0x41\n        /* \"#utility.yul\":3324:3325   */\n      0x04\n        /* \"#utility.yul\":3317:3332   */\n      mstore\n        /* \"#utility.yul\":3351:3355   */\n      0x24\n        /* \"#utility.yul\":3348:3349   */\n      0x00\n        /* \"#utility.yul\":3341:3356   */\n      revert\n        /* \"#utility.yul\":3368:3537   */\n    tag_106:\n        /* \"#utility.yul\":3452:3463   */\n      0x00\n        /* \"#utility.yul\":3486:3492   */\n      dup3\n        /* \"#utility.yul\":3481:3484   */\n      dup3\n        /* \"#utility.yul\":3474:3493   */\n      mstore\n        /* \"#utility.yul\":3526:3530   */\n      0x20\n        /* \"#utility.yul\":3521:3524   */\n      dup3\n        /* \"#utility.yul\":3517:3531   */\n      add\n        /* \"#utility.yul\":3502:3531   */\n      swap1\n      pop\n        /* \"#utility.yul\":3368:3537   */\n      swap3\n      swap2\n      pop\n      pop\n      jump\t// out\n        /* \"#utility.yul\":3543:3704   */\n    tag_107:\n        /* \"#utility.yul\":3683:3696   */\n      0x53656e64204661696c6564000000000000000000000000000000000000000000\n        /* \"#utility.yul\":3679:3680   */\n      0x00\n        /* \"#utility.yul\":3671:3677   */\n      dup3\n        /* \"#utility.yul\":3667:3681   */\n      add\n        /* \"#utility.yul\":3660:3697   */\n      mstore\n        /* \"#utility.yul\":3543:3704   */\n      pop\n      jump\t// out\n        /* \"#utility.yul\":3710:4076   */\n    tag_108:\n        /* \"#utility.yul\":3852:3855   */\n      0x00\n        /* \"#utility.yul\":3873:3940   */\n      tag_168\n        /* \"#utility.yul\":3937:3939   */\n      0x0b\n        /* \"#utility.yul\":3932:3935   */\n      dup4\n        /* \"#utility.yul\":3873:3940   */\n      tag_106\n      jump\t// in\n    tag_168:\n        /* \"#utility.yul\":3866:3940   */\n      swap2\n      pop\n        /* \"#utility.yul\":3949:4042   */\n      tag_169\n        /* \"#utility.yul\":4038:4041   */\n      dup3\n        /* \"#utility.yul\":3949:4042   */\n      tag_107\n      jump\t// in\n    tag_169:\n        /* \"#utility.yul\":4067:4069   */\n      0x20\n        /* \"#utility.yul\":4062:4065   */\n      dup3\n        /* \"#utility.yul\":4058:4070   */\n      add\n        /* \"#utility.yul\":4051:4070   */\n      swap1\n      pop\n        /* \"#utility.yul\":3710:4076   */\n      swap2\n      swap1\n      pop\n      jump\t// out\n        /* \"#utility.yul\":4082:4501   */\n    tag_51:\n        /* \"#utility.yul\":4248:4252   */\n      0x00\n        /* \"#utility.yul\":4286:4288   */\n      0x20\n        /* \"#utility.yul\":4275:4284   */\n      dup3\n        /* \"#utility.yul\":4271:4289   */\n      add\n        /* \"#utility.yul\":4263:4289   */\n      swap1\n      pop\n        /* \"#utility.yul\":4335:4344   */\n      dup2\n        /* \"#utility.yul\":4329:4333   */\n      dup2\n        /* \"#utility.yul\":4325:4345   */\n      sub\n        /* \"#utility.yul\":4321:4322   */\n      0x00\n        /* \"#utility.yul\":4310:4319   */\n      dup4\n        /* \"#utility.yul\":4306:4323   */\n      add\n        /* \"#utility.yul\":4299:4346   */\n      mstore\n        /* \"#utility.yul\":4363:4494   */\n      tag_171\n        /* \"#utility.yul\":4489:4493   */\n      dup2\n        /* \"#utility.yul\":4363:4494   */\n      tag_108\n      jump\t// in\n    tag_171:\n        /* \"#utility.yul\":4355:4494   */\n      swap1\n      pop\n        /* \"#utility.yul\":4082:4501   */\n      swap2\n      swap1\n      pop\n      jump\t// out\n        /* \"#utility.yul\":4507:4654   */\n    tag_109:\n        /* \"#utility.yul\":4608:4619   */\n      0x00\n        /* \"#utility.yul\":4645:4648   */\n      dup2\n        /* \"#utility.yul\":4630:4648   */\n      swap1\n      pop\n        /* \"#utility.yul\":4507:4654   */\n      swap3\n      swap2\n      pop\n      pop\n      jump\t// out\n        /* \"#utility.yul\":4660:4774   */\n    tag_110:\n      pop\n      jump\t// out\n        /* \"#utility.yul\":4780:5178   */\n    tag_111:\n        /* \"#utility.yul\":4939:4942   */\n      0x00\n        /* \"#utility.yul\":4960:5043   */\n      tag_175\n        /* \"#utility.yul\":5041:5042   */\n      0x00\n        /* \"#utility.yul\":5036:5039   */\n      dup4\n        /* \"#utility.yul\":4960:5043   */\n      tag_109\n      jump\t// in\n    tag_175:\n        /* \"#utility.yul\":4953:5043   */\n      swap2\n      pop\n        /* \"#utility.yul\":5052:5145   */\n      tag_176\n        /* \"#utility.yul\":5141:5144   */\n      dup3\n        /* \"#utility.yul\":5052:5145   */\n      tag_110\n      jump\t// in\n    tag_176:\n        /* \"#utility.yul\":5170:5171   */\n      0x00\n        /* \"#utility.yul\":5165:5168   */\n      dup3\n        /* \"#utility.yul\":5161:5172   */\n      add\n        /* \"#utility.yul\":5154:5172   */\n      swap1\n      pop\n        /* \"#utility.yul\":4780:5178   */\n      swap2\n      swap1\n      pop\n      jump\t// out\n        /* \"#utility.yul\":5184:5563   */\n    tag_53:\n        /* \"#utility.yul\":5368:5371   */\n      0x00\n        /* \"#utility.yul\":5390:5537   */\n      tag_178\n        /* \"#utility.yul\":5533:5536   */\n      dup3\n        /* \"#utility.yul\":5390:5537   */\n      tag_111\n      jump\t// in\n    tag_178:\n        /* \"#utility.yul\":5383:5537   */\n      swap2\n      pop\n        /* \"#utility.yul\":5554:5557   */\n      dup2\n        /* \"#utility.yul\":5547:5557   */\n      swap1\n      pop\n        /* \"#utility.yul\":5184:5563   */\n      swap2\n      swap1\n      pop\n      jump\t// out\n        /* \"#utility.yul\":5569:5730   */\n    tag_112:\n        /* \"#utility.yul\":5709:5722   */\n      0x43616c6c204661696c6564000000000000000000000000000000000000000000\n        /* \"#utility.yul\":5705:5706   */\n      0x00\n        /* \"#utility.yul\":5697:5703   */\n      dup3\n        /* \"#utility.yul\":5693:5707   */\n      add\n        /* \"#utility.yul\":5686:5723   */\n      mstore\n        /* \"#utility.yul\":5569:5730   */\n      pop\n      jump\t// out\n        /* \"#utility.yul\":5736:6102   */\n    tag_113:\n        /* \"#utility.yul\":5878:5881   */\n      0x00\n        /* \"#utility.yul\":5899:5966   */\n      tag_181\n        /* \"#utility.yul\":5963:5965   */\n      0x0b\n        /* \"#utility.yul\":5958:5961   */\n      dup4\n        /* \"#utility.yul\":5899:5966   */\n      tag_106\n      jump\t// in\n    tag_181:\n        /* \"#utility.yul\":5892:5966   */\n      swap2\n      pop\n        /* \"#utility.yul\":5975:6068   */\n      tag_182\n        /* \"#utility.yul\":6064:6067   */\n      dup3\n        /* \"#utility.yul\":5975:6068   */\n      tag_112\n      jump\t// in\n    tag_182:\n        /* \"#utility.yul\":6093:6095   */\n      0x20\n        /* \"#utility.yul\":6088:6091   */\n      dup3\n        /* \"#utility.yul\":6084:6096   */\n      add\n        /* \"#utility.yul\":6077:6096   */\n      swap1\n      pop\n        /* \"#utility.yul\":5736:6102   */\n      swap2\n      swap1\n      pop\n      jump\t// out\n        /* \"#utility.yul\":6108:6527   */\n    tag_59:\n        /* \"#utility.yul\":6274:6278   */\n      0x00\n        /* \"#utility.yul\":6312:6314   */\n      0x20\n        /* \"#utility.yul\":6301:6310   */\n      dup3\n        /* \"#utility.yul\":6297:6315   */\n      add\n        /* \"#utility.yul\":6289:6315   */\n      swap1\n      pop\n        /* \"#utility.yul\":6361:6370   */\n      dup2\n        /* \"#utility.yul\":6355:6359   */\n      dup2\n        /* \"#utility.yul\":6351:6371   */\n      sub\n        /* \"#utility.yul\":6347:6348   */\n      0x00\n        /* \"#utility.yul\":6336:6345   */\n      dup4\n        /* \"#utility.yul\":6332:6349   */\n      add\n        /* \"#utility.yul\":6325:6372   */\n      mstore\n        /* \"#utility.yul\":6389:6520   */\n      tag_184\n        /* \"#utility.yul\":6515:6519   */\n      dup2\n        /* \"#utility.yul\":6389:6520   */\n      tag_113\n      jump\t// in\n    tag_184:\n        /* \"#utility.yul\":6381:6520   */\n      swap1\n      pop\n        /* \"#utility.yul\":6108:6527   */\n      swap2\n      swap1\n      pop\n      jump\t// out\n        /* \"#utility.yul\":6533:6693   */\n    tag_114:\n        /* \"#utility.yul\":6673:6685   */\n      0x4e6f7420656e6f75676800000000000000000000000000000000000000000000\n        /* \"#utility.yul\":6669:6670   */\n      0x00\n        /* \"#utility.yul\":6661:6667   */\n      dup3\n        /* \"#utility.yul\":6657:6671   */\n      add\n        /* \"#utility.yul\":6650:6686   */\n      mstore\n        /* \"#utility.yul\":6533:6693   */\n      pop\n      jump\t// out\n        /* \"#utility.yul\":6699:7065   */\n    tag_115:\n        /* \"#utility.yul\":6841:6844   */\n      0x00\n        /* \"#utility.yul\":6862:6929   */\n      tag_187\n        /* \"#utility.yul\":6926:6928   */\n      0x0a\n        /* \"#utility.yul\":6921:6924   */\n      dup4\n        /* \"#utility.yul\":6862:6929   */\n      tag_106\n      jump\t// in\n    tag_187:\n        /* \"#utility.yul\":6855:6929   */\n      swap2\n      pop\n        /* \"#utility.yul\":6938:7031   */\n      tag_188\n        /* \"#utility.yul\":7027:7030   */\n      dup3\n        /* \"#utility.yul\":6938:7031   */\n      tag_114\n      jump\t// in\n    tag_188:\n        /* \"#utility.yul\":7056:7058   */\n      0x20\n        /* \"#utility.yul\":7051:7054   */\n      dup3\n        /* \"#utility.yul\":7047:7059   */\n      add\n        /* \"#utility.yul\":7040:7059   */\n      swap1\n      pop\n        /* \"#utility.yul\":6699:7065   */\n      swap2\n      swap1\n      pop\n      jump\t// out\n        /* \"#utility.yul\":7071:7490   */\n    tag_65:\n        /* \"#utility.yul\":7237:7241   */\n      0x00\n        /* \"#utility.yul\":7275:7277   */\n      0x20\n        /* \"#utility.yul\":7264:7273   */\n      dup3\n        /* \"#utility.yul\":7260:7278   */\n      add\n        /* \"#utility.yul\":7252:7278   */\n      swap1\n      pop\n        /* \"#utility.yul\":7324:7333   */\n      dup2\n        /* \"#utility.yul\":7318:7322   */\n      dup2\n        /* \"#utility.yul\":7314:7334   */\n      sub\n        /* \"#utility.yul\":7310:7311   */\n      0x00\n        /* \"#utility.yul\":7299:7308   */\n      dup4\n        /* \"#utility.yul\":7295:7312   */\n      add\n        /* \"#utility.yul\":7288:7335   */\n      mstore\n        /* \"#utility.yul\":7352:7483   */\n      tag_190\n        /* \"#utility.yul\":7478:7482   */\n      dup2\n        /* \"#utility.yul\":7352:7483   */\n      tag_115\n      jump\t// in\n    tag_190:\n        /* \"#utility.yul\":7344:7483   */\n      swap1\n      pop\n        /* \"#utility.yul\":7071:7490   */\n      swap2\n      swap1\n      pop\n      jump\t// out\n        /* \"#utility.yul\":7496:7801   */\n    tag_68:\n        /* \"#utility.yul\":7536:7539   */\n      0x00\n        /* \"#utility.yul\":7555:7575   */\n      tag_192\n        /* \"#utility.yul\":7573:7574   */\n      dup3\n        /* \"#utility.yul\":7555:7575   */\n      tag_93\n      jump\t// in\n    tag_192:\n        /* \"#utility.yul\":7550:7575   */\n      swap2\n      pop\n        /* \"#utility.yul\":7589:7609   */\n      tag_193\n        /* \"#utility.yul\":7607:7608   */\n      dup4\n        /* \"#utility.yul\":7589:7609   */\n      tag_93\n      jump\t// in\n    tag_193:\n        /* \"#utility.yul\":7584:7609   */\n      swap3\n      pop\n        /* \"#utility.yul\":7743:7744   */\n      dup3\n        /* \"#utility.yul\":7675:7741   */\n      0xffffffffffffffffffffffffffffffffffffffffffffffffffffffffffffffff\n        /* \"#utility.yul\":7671:7745   */\n      sub\n        /* \"#utility.yul\":7668:7669   */\n      dup3\n        /* \"#utility.yul\":7665:7746   */\n      gt\n        /* \"#utility.yul\":7662:7769   */\n      iszero\n      tag_194\n      jumpi\n        /* \"#utility.yul\":7749:7767   */\n      tag_195\n      tag_105\n      jump\t// in\n    tag_195:\n        /* \"#utility.yul\":7662:7769   */\n    tag_194:\n        /* \"#utility.yul\":7793:7794   */\n      dup3\n        /* \"#utility.yul\":7790:7791   */\n      dup3\n        /* \"#utility.yul\":7786:7795   */\n      add\n        /* \"#utility.yul\":7779:7795   */\n      swap1\n      pop\n        /* \"#utility.yul\":7496:7801   */\n      swap3\n      swap2\n      pop\n      pop\n      jump\t// out\n        /* \"#utility.yul\":7807:8155   */\n    tag_75:\n        /* \"#utility.yul\":7847:7854   */\n      0x00\n        /* \"#utility.yul\":7870:7890   */\n      tag_197\n        /* \"#utility.yul\":7888:7889   */\n      dup3\n        /* \"#utility.yul\":7870:7890   */\n      tag_93\n      jump\t// in\n    tag_197:\n        /* \"#utility.yul\":7865:7890   */\n      swap2\n      pop\n        /* \"#utility.yul\":7904:7924   */\n      tag_198\n        /* \"#utility.yul\":7922:7923   */\n      dup4\n        /* \"#utility.yul\":7904:7924   */\n      tag_93\n      jump\t// in\n    tag_198:\n        /* \"#utility.yul\":7899:7924   */\n      swap3\n      pop\n        /* \"#utility.yul\":8092:8093   */\n      dup2\n        /* \"#utility.yul\":8024:8090   */\n      0xffffffffffffffffffffffffffffffffffffffffffffffffffffffffffffffff\n        /* \"#utility.yul\":8020:8094   */\n      div\n        /* \"#utility.yul\":8017:8018   */\n      dup4\n        /* \"#utility.yul\":8014:8095   */\n      gt\n        /* \"#utility.yul\":8009:8010   */\n      dup3\n        /* \"#utility.yul\":8002:8011   */\n      iszero\n        /* \"#utility.yul\":7995:8012   */\n      iszero\n        /* \"#utility.yul\":7991:8096   */\n      and\n        /* \"#utility.yul\":7988:8119   */\n      iszero\n      tag_199\n      jumpi\n        /* \"#utility.yul\":8099:8117   */\n      tag_200\n      tag_105\n      jump\t// in\n    tag_200:\n        /* \"#utility.yul\":7988:8119   */\n    tag_199:\n        /* \"#utility.yul\":8147:8148   */\n      dup3\n        /* \"#utility.yul\":8144:8145   */\n      dup3\n        /* \"#utility.yul\":8140:8149   */\n      mul\n        /* \"#utility.yul\":8129:8149   */\n      swap1\n      pop\n        /* \"#utility.yul\":7807:8155   */\n      swap3\n      swap2\n      pop\n      pop\n      jump\t// out\n        /* \"#utility.yul\":8161:8341   */\n    tag_116:\n        /* \"#utility.yul\":8209:8286   */\n      0x4e487b7100000000000000000000000000000000000000000000000000000000\n        /* \"#utility.yul\":8206:8207   */\n      0x00\n        /* \"#utility.yul\":8199:8287   */\n      mstore\n        /* \"#utility.yul\":8306:8310   */\n      0x12\n        /* \"#utility.yul\":8303:8304   */\n      0x04\n        /* \"#utility.yul\":8296:8311   */\n      mstore\n        /* \"#utility.yul\":8330:8334   */\n      0x24\n        /* \"#utility.yul\":8327:8328   */\n      0x00\n        /* \"#utility.yul\":8320:8335   */\n      revert\n        /* \"#utility.yul\":8347:8532   */\n    tag_77:\n        /* \"#utility.yul\":8387:8388   */\n      0x00\n        /* \"#utility.yul\":8404:8424   */\n      tag_203\n        /* \"#utility.yul\":8422:8423   */\n      dup3\n        /* \"#utility.yul\":8404:8424   */\n      tag_93\n      jump\t// in\n    tag_203:\n        /* \"#utility.yul\":8399:8424   */\n      swap2\n      pop\n        /* \"#utility.yul\":8438:8458   */\n      tag_204\n        /* \"#utility.yul\":8456:8457   */\n      dup4\n        /* \"#utility.yul\":8438:8458   */\n      tag_93\n      jump\t// in\n    tag_204:\n        /* \"#utility.yul\":8433:8458   */\n      swap3\n      pop\n        /* \"#utility.yul\":8477:8478   */\n      dup3\n        /* \"#utility.yul\":8467:8502   */\n      tag_205\n      jumpi\n        /* \"#utility.yul\":8482:8500   */\n      tag_206\n      tag_116\n      jump\t// in\n    tag_206:\n        /* \"#utility.yul\":8467:8502   */\n    tag_205:\n        /* \"#utility.yul\":8524:8525   */\n      dup3\n        /* \"#utility.yul\":8521:8522   */\n      dup3\n        /* \"#utility.yul\":8517:8526   */\n      div\n        /* \"#utility.yul\":8512:8526   */\n      swap1\n      pop\n        /* \"#utility.yul\":8347:8532   */\n      swap3\n      swap2\n      pop\n      pop\n      jump\t// out\n        /* \"#utility.yul\":8538:8643   */\n    tag_117:\n        /* \"#utility.yul\":8574:8581   */\n      0x00\n        /* \"#utility.yul\":8614:8636   */\n      0xffffffffffffffffffff\n        /* \"#utility.yul\":8607:8612   */\n      dup3\n        /* \"#utility.yul\":8603:8637   */\n      and\n        /* \"#utility.yul\":8592:8637   */\n      swap1\n      pop\n        /* \"#utility.yul\":8538:8643   */\n      swap2\n      swap1\n      pop\n      jump\t// out\n        /* \"#utility.yul\":8649:8769   */\n    tag_118:\n        /* \"#utility.yul\":8721:8744   */\n      tag_209\n        /* \"#utility.yul\":8738:8743   */\n      dup2\n        /* \"#utility.yul\":8721:8744   */\n      tag_117\n      jump\t// in\n    tag_209:\n        /* \"#utility.yul\":8714:8719   */\n      dup2\n        /* \"#utility.yul\":8711:8745   */\n      eq\n        /* \"#utility.yul\":8701:8763   */\n      tag_210\n      jumpi\n        /* \"#utility.yul\":8759:8760   */\n      0x00\n        /* \"#utility.yul\":8756:8757   */\n      dup1\n        /* \"#utility.yul\":8749:8761   */\n      revert\n        /* \"#utility.yul\":8701:8763   */\n    tag_210:\n        /* \"#utility.yul\":8649:8769   */\n      pop\n      jump\t// out\n        /* \"#utility.yul\":8775:8916   */\n    tag_119:\n        /* \"#utility.yul\":8831:8836   */\n      0x00\n        /* \"#utility.yul\":8862:8868   */\n      dup2\n        /* \"#utility.yul\":8856:8869   */\n      mload\n        /* \"#utility.yul\":8847:8869   */\n      swap1\n      pop\n        /* \"#utility.yul\":8878:8910   */\n      tag_212\n        /* \"#utility.yul\":8904:8909   */\n      dup2\n        /* \"#utility.yul\":8878:8910   */\n      tag_118\n      jump\t// in\n    tag_212:\n        /* \"#utility.yul\":8775:8916   */\n      swap3\n      swap2\n      pop\n      pop\n      jump\t// out\n        /* \"#utility.yul\":8922:8998   */\n    tag_120:\n        /* \"#utility.yul\":8958:8965   */\n      0x00\n        /* \"#utility.yul\":8987:8992   */\n      dup2\n        /* \"#utility.yul\":8976:8992   */\n      swap1\n      pop\n        /* \"#utility.yul\":8922:8998   */\n      swap2\n      swap1\n      pop\n      jump\t// out\n        /* \"#utility.yul\":9004:9124   */\n    tag_121:\n        /* \"#utility.yul\":9076:9099   */\n      tag_215\n        /* \"#utility.yul\":9093:9098   */\n      dup2\n        /* \"#utility.yul\":9076:9099   */\n      tag_120\n      jump\t// in\n    tag_215:\n        /* \"#utility.yul\":9069:9074   */\n      dup2\n        /* \"#utility.yul\":9066:9100   */\n      eq\n        /* \"#utility.yul\":9056:9118   */\n      tag_216\n      jumpi\n        /* \"#utility.yul\":9114:9115   */\n      0x00\n        /* \"#utility.yul\":9111:9112   */\n      dup1\n        /* \"#utility.yul\":9104:9116   */\n      revert\n        /* \"#utility.yul\":9056:9118   */\n    tag_216:\n        /* \"#utility.yul\":9004:9124   */\n      pop\n      jump\t// out\n        /* \"#utility.yul\":9130:9271   */\n    tag_122:\n        /* \"#utility.yul\":9186:9191   */\n      0x00\n        /* \"#utility.yul\":9217:9223   */\n      dup2\n        /* \"#utility.yul\":9211:9224   */\n      mload\n        /* \"#utility.yul\":9202:9224   */\n      swap1\n      pop\n        /* \"#utility.yul\":9233:9265   */\n      tag_218\n        /* \"#utility.yul\":9259:9264   */\n      dup2\n        /* \"#utility.yul\":9233:9265   */\n      tag_121\n      jump\t// in\n    tag_218:\n        /* \"#utility.yul\":9130:9271   */\n      swap3\n      swap2\n      pop\n      pop\n      jump\t// out\n        /* \"#utility.yul\":9277:9420   */\n    tag_123:\n        /* \"#utility.yul\":9334:9339   */\n      0x00\n        /* \"#utility.yul\":9365:9371   */\n      dup2\n        /* \"#utility.yul\":9359:9372   */\n      mload\n        /* \"#utility.yul\":9350:9372   */\n      swap1\n      pop\n        /* \"#utility.yul\":9381:9414   */\n      tag_220\n        /* \"#utility.yul\":9408:9413   */\n      dup2\n        /* \"#utility.yul\":9381:9414   */\n      tag_102\n      jump\t// in\n    tag_220:\n        /* \"#utility.yul\":9277:9420   */\n      swap3\n      swap2\n      pop\n      pop\n      jump\t// out\n        /* \"#utility.yul\":9426:10397   */\n    tag_83:\n        /* \"#utility.yul\":9529:9535   */\n      0x00\n        /* \"#utility.yul\":9537:9543   */\n      dup1\n        /* \"#utility.yul\":9545:9551   */\n      0x00\n        /* \"#utility.yul\":9553:9559   */\n      dup1\n        /* \"#utility.yul\":9561:9567   */\n      0x00\n        /* \"#utility.yul\":9610:9613   */\n      0xa0\n        /* \"#utility.yul\":9598:9607   */\n      dup7\n        /* \"#utility.yul\":9589:9596   */\n      dup9\n        /* \"#utility.yul\":9585:9608   */\n      sub\n        /* \"#utility.yul\":9581:9614   */\n      slt\n        /* \"#utility.yul\":9578:9698   */\n      iszero\n      tag_222\n      jumpi\n        /* \"#utility.yul\":9617:9696   */\n      tag_223\n      tag_96\n      jump\t// in\n    tag_223:\n        /* \"#utility.yul\":9578:9698   */\n    tag_222:\n        /* \"#utility.yul\":9737:9738   */\n      0x00\n        /* \"#utility.yul\":9762:9825   */\n      tag_224\n        /* \"#utility.yul\":9817:9824   */\n      dup9\n        /* \"#utility.yul\":9808:9814   */\n      dup3\n        /* \"#utility.yul\":9797:9806   */\n      dup10\n        /* \"#utility.yul\":9793:9815   */\n      add\n        /* \"#utility.yul\":9762:9825   */\n      tag_119\n      jump\t// in\n    tag_224:\n        /* \"#utility.yul\":9752:9825   */\n      swap6\n      pop\n        /* \"#utility.yul\":9708:9835   */\n      pop\n        /* \"#utility.yul\":9874:9876   */\n      0x20\n        /* \"#utility.yul\":9900:9963   */\n      tag_225\n        /* \"#utility.yul\":9955:9962   */\n      dup9\n        /* \"#utility.yul\":9946:9952   */\n      dup3\n        /* \"#utility.yul\":9935:9944   */\n      dup10\n        /* \"#utility.yul\":9931:9953   */\n      add\n        /* \"#utility.yul\":9900:9963   */\n      tag_122\n      jump\t// in\n    tag_225:\n        /* \"#utility.yul\":9890:9963   */\n      swap5\n      pop\n        /* \"#utility.yul\":9845:9973   */\n      pop\n        /* \"#utility.yul\":10012:10014   */\n      0x40\n        /* \"#utility.yul\":10038:10102   */\n      tag_226\n        /* \"#utility.yul\":10094:10101   */\n      dup9\n        /* \"#utility.yul\":10085:10091   */\n      dup3\n        /* \"#utility.yul\":10074:10083   */\n      dup10\n        /* \"#utility.yul\":10070:10092   */\n      add\n        /* \"#utility.yul\":10038:10102   */\n      tag_123\n      jump\t// in\n    tag_226:\n        /* \"#utility.yul\":10028:10102   */\n      swap4\n      pop\n        /* \"#utility.yul\":9983:10112   */\n      pop\n        /* \"#utility.yul\":10151:10153   */\n      0x60\n        /* \"#utility.yul\":10177:10241   */\n      tag_227\n        /* \"#utility.yul\":10233:10240   */\n      dup9\n        /* \"#utility.yul\":10224:10230   */\n      dup3\n        /* \"#utility.yul\":10213:10222   */\n      dup10\n        /* \"#utility.yul\":10209:10231   */\n      add\n        /* \"#utility.yul\":10177:10241   */\n      tag_123\n      jump\t// in\n    tag_227:\n        /* \"#utility.yul\":10167:10241   */\n      swap3\n      pop\n        /* \"#utility.yul\":10122:10251   */\n      pop\n        /* \"#utility.yul\":10290:10293   */\n      0x80\n        /* \"#utility.yul\":10317:10380   */\n      tag_228\n        /* \"#utility.yul\":10372:10379   */\n      dup9\n        /* \"#utility.yul\":10363:10369   */\n      dup3\n        /* \"#utility.yul\":10352:10361   */\n      dup10\n        /* \"#utility.yul\":10348:10370   */\n      add\n        /* \"#utility.yul\":10317:10380   */\n      tag_119\n      jump\t// in\n    tag_228:\n        /* \"#utility.yul\":10307:10380   */\n      swap2\n      pop\n        /* \"#utility.yul\":10261:10390   */\n      pop\n        /* \"#utility.yul\":9426:10397   */\n      swap3\n      swap6\n      pop\n      swap3\n      swap6\n      swap1\n      swap4\n      pop\n      jump\t// out\n        /* \"#utility.yul\":10403:11394   */\n    tag_85:\n        /* \"#utility.yul\":10442:10449   */\n      0x00\n        /* \"#utility.yul\":10465:10484   */\n      tag_230\n        /* \"#utility.yul\":10482:10483   */\n      dup3\n        /* \"#utility.yul\":10465:10484   */\n      tag_120\n      jump\t// in\n    tag_230:\n        /* \"#utility.yul\":10460:10484   */\n      swap2\n      pop\n        /* \"#utility.yul\":10498:10517   */\n      tag_231\n        /* \"#utility.yul\":10515:10516   */\n      dup4\n        /* \"#utility.yul\":10498:10517   */\n      tag_120\n      jump\t// in\n    tag_231:\n        /* \"#utility.yul\":10493:10517   */\n      swap3\n      pop\n        /* \"#utility.yul\":10699:10700   */\n      dup3\n        /* \"#utility.yul\":10631:10697   */\n      0x7fffffffffffffffffffffffffffffffffffffffffffffffffffffffffffffff\n        /* \"#utility.yul\":10627:10701   */\n      div\n        /* \"#utility.yul\":10624:10625   */\n      dup3\n        /* \"#utility.yul\":10621:10702   */\n      gt\n        /* \"#utility.yul\":10616:10617   */\n      0x00\n        /* \"#utility.yul\":10613:10614   */\n      dup5\n        /* \"#utility.yul\":10609:10618   */\n      sgt\n        /* \"#utility.yul\":10605:10606   */\n      0x00\n        /* \"#utility.yul\":10602:10603   */\n      dup5\n        /* \"#utility.yul\":10598:10607   */\n      sgt\n        /* \"#utility.yul\":10594:10619   */\n      and\n        /* \"#utility.yul\":10590:10703   */\n      and\n        /* \"#utility.yul\":10587:10726   */\n      iszero\n      tag_232\n      jumpi\n        /* \"#utility.yul\":10706:10724   */\n      tag_233\n      tag_105\n      jump\t// in\n    tag_233:\n        /* \"#utility.yul\":10587:10726   */\n    tag_232:\n        /* \"#utility.yul\":10910:10911   */\n      dup2\n        /* \"#utility.yul\":10842:10908   */\n      0x8000000000000000000000000000000000000000000000000000000000000000\n        /* \"#utility.yul\":10837:10912   */\n      sdiv\n        /* \"#utility.yul\":10834:10835   */\n      dup4\n        /* \"#utility.yul\":10830:10913   */\n      slt\n        /* \"#utility.yul\":10825:10826   */\n      0x00\n        /* \"#utility.yul\":10822:10823   */\n      dup5\n        /* \"#utility.yul\":10818:10827   */\n      slt\n        /* \"#utility.yul\":10814:10815   */\n      0x00\n        /* \"#utility.yul\":10811:10812   */\n      dup5\n        /* \"#utility.yul\":10807:10816   */\n      sgt\n        /* \"#utility.yul\":10803:10828   */\n      and\n        /* \"#utility.yul\":10799:10914   */\n      and\n        /* \"#utility.yul\":10796:10937   */\n      iszero\n      tag_234\n      jumpi\n        /* \"#utility.yul\":10917:10935   */\n      tag_235\n      tag_105\n      jump\t// in\n    tag_235:\n        /* \"#utility.yul\":10796:10937   */\n    tag_234:\n        /* \"#utility.yul\":11121:11122   */\n      dup3\n        /* \"#utility.yul\":11053:11119   */\n      0x8000000000000000000000000000000000000000000000000000000000000000\n        /* \"#utility.yul\":11048:11123   */\n      sdiv\n        /* \"#utility.yul\":11045:11046   */\n      dup3\n        /* \"#utility.yul\":11041:11124   */\n      slt\n        /* \"#utility.yul\":11036:11037   */\n      0x00\n        /* \"#utility.yul\":11033:11034   */\n      dup5\n        /* \"#utility.yul\":11029:11038   */\n      sgt\n        /* \"#utility.yul\":11025:11026   */\n      0x00\n        /* \"#utility.yul\":11022:11023   */\n      dup5\n        /* \"#utility.yul\":11018:11027   */\n      slt\n        /* \"#utility.yul\":11014:11039   */\n      and\n        /* \"#utility.yul\":11010:11125   */\n      and\n        /* \"#utility.yul\":11007:11148   */\n      iszero\n      tag_236\n      jumpi\n        /* \"#utility.yul\":11128:11146   */\n      tag_237\n      tag_105\n      jump\t// in\n    tag_237:\n        /* \"#utility.yul\":11007:11148   */\n    tag_236:\n        /* \"#utility.yul\":11331:11332   */\n      dup3\n        /* \"#utility.yul\":11263:11329   */\n      0x7fffffffffffffffffffffffffffffffffffffffffffffffffffffffffffffff\n        /* \"#utility.yul\":11258:11333   */\n      sdiv\n        /* \"#utility.yul\":11255:11256   */\n      dup3\n        /* \"#utility.yul\":11251:11334   */\n      slt\n        /* \"#utility.yul\":11246:11247   */\n      0x00\n        /* \"#utility.yul\":11243:11244   */\n      dup5\n        /* \"#utility.yul\":11239:11248   */\n      slt\n        /* \"#utility.yul\":11235:11236   */\n      0x00\n        /* \"#utility.yul\":11232:11233   */\n      dup5\n        /* \"#utility.yul\":11228:11237   */\n      slt\n        /* \"#utility.yul\":11224:11249   */\n      and\n        /* \"#utility.yul\":11220:11335   */\n      and\n        /* \"#utility.yul\":11217:11358   */\n      iszero\n      tag_238\n      jumpi\n        /* \"#utility.yul\":11338:11356   */\n      tag_239\n      tag_105\n      jump\t// in\n    tag_239:\n        /* \"#utility.yul\":11217:11358   */\n    tag_238:\n        /* \"#utility.yul\":11386:11387   */\n      dup3\n        /* \"#utility.yul\":11383:11384   */\n      dup3\n        /* \"#utility.yul\":11379:11388   */\n      mul\n        /* \"#utility.yul\":11368:11388   */\n      swap1\n      pop\n        /* \"#utility.yul\":10403:11394   */\n      swap3\n      swap2\n      pop\n      pop\n      jump\t// out\n\n    auxdata: 0xa2646970667358221220ac99cb46b741aa3528ce42fe78fc26fda4ce1e3d46a9d3845028d5e7412e49d164736f6c63430008080033\n}\n",
				"bytecode": {
					"linkReferences": {},
					"object": "60806040526802b5e3af16b188000060005534801561001d57600080fd5b50610dad8061002d6000396000f3fe60806040526004361061004a5760003560e01c80633ccfd60b1461004f57806351b80e4114610066578063600a6ef614610091578063b60d4288146100ce578063dc0d3dff146100d8575b600080fd5b34801561005b57600080fd5b50610064610115565b005b34801561007257600080fd5b5061007b610392565b60405161008891906106a9565b60405180910390f35b34801561009d57600080fd5b506100b860048036038101906100b39190610727565b610398565b6040516100c591906106a9565b60405180910390f35b6100d66103b0565b005b3480156100e457600080fd5b506100ff60048036038101906100fa9190610780565b6104b8565b60405161010c91906107bc565b60405180910390f35b60005b6001805490508110156101c15760006001828154811061013b5761013a6107d7565b5b9060005260206000200160009054906101000a900473ffffffffffffffffffffffffffffffffffffffff1690506000600260008373ffffffffffffffffffffffffffffffffffffffff1673ffffffffffffffffffffffffffffffffffffffff168152602001908152602001600020819055505080806101b990610835565b915050610118565b50600067ffffffffffffffff8111156101dd576101dc61087e565b5b60405190808252806020026020018201604052801561020b5781602001602082028036833780820191505090505b50600190805190602001906102219291906105e9565b503373ffffffffffffffffffffffffffffffffffffffff166108fc479081150290604051600060405180830381858888f19350505050158015610268573d6000803e3d6000fd5b5060003373ffffffffffffffffffffffffffffffffffffffff166108fc479081150290604051600060405180830381858888f193505050509050806102e2576040517f08c379a00000000000000000000000000000000000000000000000000000000081526004016102d99061090a565b60405180910390fd5b60003373ffffffffffffffffffffffffffffffffffffffff16476040516103089061095b565b60006040518083038185875af1925050503d8060008114610345576040519150601f19603f3d011682016040523d82523d6000602084013e61034a565b606091505b505090508061038e576040517f08c379a0000000000000000000000000000000000000000000000000000000008152600401610385906109bc565b60405180910390fd5b5050565b60005481565b60026020528060005260406000206000915090505481565b6000546103bc346104f7565b10156103fd576040517f08c379a00000000000000000000000000000000000000000000000000000000081526004016103f490610a28565b60405180910390fd5b6001339080600181540180825580915050600190039060005260206000200160009091909190916101000a81548173ffffffffffffffffffffffffffffffffffffffff021916908373ffffffffffffffffffffffffffffffffffffffff16021790555034600260003373ffffffffffffffffffffffffffffffffffffffff1673ffffffffffffffffffffffffffffffffffffffff16815260200190815260200160002060008282546104af9190610a48565b92505081905550565b600181815481106104c857600080fd5b906000526020600020016000915054906101000a900473ffffffffffffffffffffffffffffffffffffffff1681565b600080610502610531565b90506000670de0b6b3a7640000848361051b9190610a9e565b6105259190610b27565b90508092505050919050565b600080735f4ec3df9cbd43714fe2740f5e3616155c5b8419905060008173ffffffffffffffffffffffffffffffffffffffff1663feaf968c6040518163ffffffff1660e01b815260040160a06040518083038186803b15801561059357600080fd5b505afa1580156105a7573d6000803e3d6000fd5b505050506040513d601f19601f820116820180604052508101906105cb9190610be5565b5050509150506402540be400816105e29190610c60565b9250505090565b828054828255906000526020600020908101928215610662579160200282015b828111156106615782518260006101000a81548173ffffffffffffffffffffffffffffffffffffffff021916908373ffffffffffffffffffffffffffffffffffffffff16021790555091602001919060010190610609565b5b50905061066f9190610673565b5090565b5b8082111561068c576000816000905550600101610674565b5090565b6000819050919050565b6106a381610690565b82525050565b60006020820190506106be600083018461069a565b92915050565b600080fd5b600073ffffffffffffffffffffffffffffffffffffffff82169050919050565b60006106f4826106c9565b9050919050565b610704816106e9565b811461070f57600080fd5b50565b600081359050610721816106fb565b92915050565b60006020828403121561073d5761073c6106c4565b5b600061074b84828501610712565b91505092915050565b61075d81610690565b811461076857600080fd5b50565b60008135905061077a81610754565b92915050565b600060208284031215610796576107956106c4565b5b60006107a48482850161076b565b91505092915050565b6107b6816106e9565b82525050565b60006020820190506107d160008301846107ad565b92915050565b7f4e487b7100000000000000000000000000000000000000000000000000000000600052603260045260246000fd5b7f4e487b7100000000000000000000000000000000000000000000000000000000600052601160045260246000fd5b600061084082610690565b91507fffffffffffffffffffffffffffffffffffffffffffffffffffffffffffffffff82141561087357610872610806565b5b600182019050919050565b7f4e487b7100000000000000000000000000000000000000000000000000000000600052604160045260246000fd5b600082825260208201905092915050565b7f53656e64204661696c6564000000000000000000000000000000000000000000600082015250565b60006108f4600b836108ad565b91506108ff826108be565b602082019050919050565b60006020820190508181036000830152610923816108e7565b9050919050565b600081905092915050565b50565b600061094560008361092a565b915061095082610935565b600082019050919050565b600061096682610938565b9150819050919050565b7f43616c6c204661696c6564000000000000000000000000000000000000000000600082015250565b60006109a6600b836108ad565b91506109b182610970565b602082019050919050565b600060208201905081810360008301526109d581610999565b9050919050565b7f4e6f7420656e6f75676800000000000000000000000000000000000000000000600082015250565b6000610a12600a836108ad565b9150610a1d826109dc565b602082019050919050565b60006020820190508181036000830152610a4181610a05565b9050919050565b6000610a5382610690565b9150610a5e83610690565b9250827fffffffffffffffffffffffffffffffffffffffffffffffffffffffffffffffff03821115610a9357610a92610806565b5b828201905092915050565b6000610aa982610690565b9150610ab483610690565b9250817fffffffffffffffffffffffffffffffffffffffffffffffffffffffffffffffff0483118215151615610aed57610aec610806565b5b828202905092915050565b7f4e487b7100000000000000000000000000000000000000000000000000000000600052601260045260246000fd5b6000610b3282610690565b9150610b3d83610690565b925082610b4d57610b4c610af8565b5b828204905092915050565b600069ffffffffffffffffffff82169050919050565b610b7781610b58565b8114610b8257600080fd5b50565b600081519050610b9481610b6e565b92915050565b6000819050919050565b610bad81610b9a565b8114610bb857600080fd5b50565b600081519050610bca81610ba4565b92915050565b600081519050610bdf81610754565b92915050565b600080600080600060a08688031215610c0157610c006106c4565b5b6000610c0f88828901610b85565b9550506020610c2088828901610bbb565b9450506040610c3188828901610bd0565b9350506060610c4288828901610bd0565b9250506080610c5388828901610b85565b9150509295509295909350565b6000610c6b82610b9a565b9150610c7683610b9a565b9250827f7fffffffffffffffffffffffffffffffffffffffffffffffffffffffffffffff0482116000841360008413161615610cb557610cb4610806565b5b817f80000000000000000000000000000000000000000000000000000000000000000583126000841260008413161615610cf257610cf1610806565b5b827f80000000000000000000000000000000000000000000000000000000000000000582126000841360008412161615610d2f57610d2e610806565b5b827f7fffffffffffffffffffffffffffffffffffffffffffffffffffffffffffffff0582126000841260008412161615610d6c57610d6b610806565b5b82820290509291505056fea2646970667358221220ac99cb46b741aa3528ce42fe78fc26fda4ce1e3d46a9d3845028d5e7412e49d164736f6c63430008080033",
					"opcodes": "PUSH1 0x80 PUSH1 0x40 MSTORE PUSH9 0x2B5E3AF16B1880000 PUSH1 0x0 SSTORE CALLVALUE DUP1 ISZERO PUSH2 0x1D JUMPI PUSH1 0x0 DUP1 REVERT JUMPDEST POP PUSH2 0xDAD DUP1 PUSH2 0x2D PUSH1 0x0 CODECOPY PUSH1 0x0 RETURN INVALID PUSH1 0x80 PUSH1 0x40 MSTORE PUSH1 0x4 CALLDATASIZE LT PUSH2 0x4A JUMPI PUSH1 0x0 CALLDATALOAD PUSH1 0xE0 SHR DUP1 PUSH4 0x3CCFD60B EQ PUSH2 0x4F JUMPI DUP1 PUSH4 0x51B80E41 EQ PUSH2 0x66 JUMPI DUP1 PUSH4 0x600A6EF6 EQ PUSH2 0x91 JUMPI DUP1 PUSH4 0xB60D4288 EQ PUSH2 0xCE JUMPI DUP1 PUSH4 0xDC0D3DFF EQ PUSH2 0xD8 JUMPI JUMPDEST PUSH1 0x0 DUP1 REVERT JUMPDEST CALLVALUE DUP1 ISZERO PUSH2 0x5B JUMPI PUSH1 0x0 DUP1 REVERT JUMPDEST POP PUSH2 0x64 PUSH2 0x115 JUMP JUMPDEST STOP JUMPDEST CALLVALUE DUP1 ISZERO PUSH2 0x72 JUMPI PUSH1 0x0 DUP1 REVERT JUMPDEST POP PUSH2 0x7B PUSH2 0x392 JUMP JUMPDEST PUSH1 0x40 MLOAD PUSH2 0x88 SWAP2 SWAP1 PUSH2 0x6A9 JUMP JUMPDEST PUSH1 0x40 MLOAD DUP1 SWAP2 SUB SWAP1 RETURN JUMPDEST CALLVALUE DUP1 ISZERO PUSH2 0x9D JUMPI PUSH1 0x0 DUP1 REVERT JUMPDEST POP PUSH2 0xB8 PUSH1 0x4 DUP1 CALLDATASIZE SUB DUP2 ADD SWAP1 PUSH2 0xB3 SWAP2 SWAP1 PUSH2 0x727 JUMP JUMPDEST PUSH2 0x398 JUMP JUMPDEST PUSH1 0x40 MLOAD PUSH2 0xC5 SWAP2 SWAP1 PUSH2 0x6A9 JUMP JUMPDEST PUSH1 0x40 MLOAD DUP1 SWAP2 SUB SWAP1 RETURN JUMPDEST PUSH2 0xD6 PUSH2 0x3B0 JUMP JUMPDEST STOP JUMPDEST CALLVALUE DUP1 ISZERO PUSH2 0xE4 JUMPI PUSH1 0x0 DUP1 REVERT JUMPDEST POP PUSH2 0xFF PUSH1 0x4 DUP1 CALLDATASIZE SUB DUP2 ADD SWAP1 PUSH2 0xFA SWAP2 SWAP1 PUSH2 0x780 JUMP JUMPDEST PUSH2 0x4B8 JUMP JUMPDEST PUSH1 0x40 MLOAD PUSH2 0x10C SWAP2 SWAP1 PUSH2 0x7BC JUMP JUMPDEST PUSH1 0x40 MLOAD DUP1 SWAP2 SUB SWAP1 RETURN JUMPDEST PUSH1 0x0 JUMPDEST PUSH1 0x1 DUP1 SLOAD SWAP1 POP DUP2 LT ISZERO PUSH2 0x1C1 JUMPI PUSH1 0x0 PUSH1 0x1 DUP3 DUP2 SLOAD DUP2 LT PUSH2 0x13B JUMPI PUSH2 0x13A PUSH2 0x7D7 JUMP JUMPDEST JUMPDEST SWAP1 PUSH1 0x0 MSTORE PUSH1 0x20 PUSH1 0x0 KECCAK256 ADD PUSH1 0x0 SWAP1 SLOAD SWAP1 PUSH2 0x100 EXP SWAP1 DIV PUSH20 0xFFFFFFFFFFFFFFFFFFFFFFFFFFFFFFFFFFFFFFFF AND SWAP1 POP PUSH1 0x0 PUSH1 0x2 PUSH1 0x0 DUP4 PUSH20 0xFFFFFFFFFFFFFFFFFFFFFFFFFFFFFFFFFFFFFFFF AND PUSH20 0xFFFFFFFFFFFFFFFFFFFFFFFFFFFFFFFFFFFFFFFF AND DUP2 MSTORE PUSH1 0x20 ADD SWAP1 DUP2 MSTORE PUSH1 0x20 ADD PUSH1 0x0 KECCAK256 DUP2 SWAP1 SSTORE POP POP DUP1 DUP1 PUSH2 0x1B9 SWAP1 PUSH2 0x835 JUMP JUMPDEST SWAP2 POP POP PUSH2 0x118 JUMP JUMPDEST POP PUSH1 0x0 PUSH8 0xFFFFFFFFFFFFFFFF DUP2 GT ISZERO PUSH2 0x1DD JUMPI PUSH2 0x1DC PUSH2 0x87E JUMP JUMPDEST JUMPDEST PUSH1 0x40 MLOAD SWAP1 DUP1 DUP3 MSTORE DUP1 PUSH1 0x20 MUL PUSH1 0x20 ADD DUP3 ADD PUSH1 0x40 MSTORE DUP1 ISZERO PUSH2 0x20B JUMPI DUP2 PUSH1 0x20 ADD PUSH1 0x20 DUP3 MUL DUP1 CALLDATASIZE DUP4 CALLDATACOPY DUP1 DUP3 ADD SWAP2 POP POP SWAP1 POP JUMPDEST POP PUSH1 0x1 SWAP1 DUP1 MLOAD SWAP1 PUSH1 0x20 ADD SWAP1 PUSH2 0x221 SWAP3 SWAP2 SWAP1 PUSH2 0x5E9 JUMP JUMPDEST POP CALLER PUSH20 0xFFFFFFFFFFFFFFFFFFFFFFFFFFFFFFFFFFFFFFFF AND PUSH2 0x8FC SELFBALANCE SWAP1 DUP2 ISZERO MUL SWAP1 PUSH1 0x40 MLOAD PUSH1 0x0 PUSH1 0x40 MLOAD DUP1 DUP4 SUB DUP2 DUP6 DUP9 DUP9 CALL SWAP4 POP POP POP POP ISZERO DUP1 ISZERO PUSH2 0x268 JUMPI RETURNDATASIZE PUSH1 0x0 DUP1 RETURNDATACOPY RETURNDATASIZE PUSH1 0x0 REVERT JUMPDEST POP PUSH1 0x0 CALLER PUSH20 0xFFFFFFFFFFFFFFFFFFFFFFFFFFFFFFFFFFFFFFFF AND PUSH2 0x8FC SELFBALANCE SWAP1 DUP2 ISZERO MUL SWAP1 PUSH1 0x40 MLOAD PUSH1 0x0 PUSH1 0x40 MLOAD DUP1 DUP4 SUB DUP2 DUP6 DUP9 DUP9 CALL SWAP4 POP POP POP POP SWAP1 POP DUP1 PUSH2 0x2E2 JUMPI PUSH1 0x40 MLOAD PUSH32 0x8C379A000000000000000000000000000000000000000000000000000000000 DUP2 MSTORE PUSH1 0x4 ADD PUSH2 0x2D9 SWAP1 PUSH2 0x90A JUMP JUMPDEST PUSH1 0x40 MLOAD DUP1 SWAP2 SUB SWAP1 REVERT JUMPDEST PUSH1 0x0 CALLER PUSH20 0xFFFFFFFFFFFFFFFFFFFFFFFFFFFFFFFFFFFFFFFF AND SELFBALANCE PUSH1 0x40 MLOAD PUSH2 0x308 SWAP1 PUSH2 0x95B JUMP JUMPDEST PUSH1 0x0 PUSH1 0x40 MLOAD DUP1 DUP4 SUB DUP2 DUP6 DUP8 GAS CALL SWAP3 POP POP POP RETURNDATASIZE DUP1 PUSH1 0x0 DUP2 EQ PUSH2 0x345 JUMPI PUSH1 0x40 MLOAD SWAP2 POP PUSH1 0x1F NOT PUSH1 0x3F RETURNDATASIZE ADD AND DUP3 ADD PUSH1 0x40 MSTORE RETURNDATASIZE DUP3 MSTORE RETURNDATASIZE PUSH1 0x0 PUSH1 0x20 DUP5 ADD RETURNDATACOPY PUSH2 0x34A JUMP JUMPDEST PUSH1 0x60 SWAP2 POP JUMPDEST POP POP SWAP1 POP DUP1 PUSH2 0x38E JUMPI PUSH1 0x40 MLOAD PUSH32 0x8C379A000000000000000000000000000000000000000000000000000000000 DUP2 MSTORE PUSH1 0x4 ADD PUSH2 0x385 SWAP1 PUSH2 0x9BC JUMP JUMPDEST PUSH1 0x40 MLOAD DUP1 SWAP2 SUB SWAP1 REVERT JUMPDEST POP POP JUMP JUMPDEST PUSH1 0x0 SLOAD DUP2 JUMP JUMPDEST PUSH1 0x2 PUSH1 0x20 MSTORE DUP1 PUSH1 0x0 MSTORE PUSH1 0x40 PUSH1 0x0 KECCAK256 PUSH1 0x0 SWAP2 POP SWAP1 POP SLOAD DUP2 JUMP JUMPDEST PUSH1 0x0 SLOAD PUSH2 0x3BC CALLVALUE PUSH2 0x4F7 JUMP JUMPDEST LT ISZERO PUSH2 0x3FD JUMPI PUSH1 0x40 MLOAD PUSH32 0x8C379A000000000000000000000000000000000000000000000000000000000 DUP2 MSTORE PUSH1 0x4 ADD PUSH2 0x3F4 SWAP1 PUSH2 0xA28 JUMP JUMPDEST PUSH1 0x40 MLOAD DUP1 SWAP2 SUB SWAP1 REVERT JUMPDEST PUSH1 0x1 CALLER SWAP1 DUP1 PUSH1 0x1 DUP2 SLOAD ADD DUP1 DUP3 SSTORE DUP1 SWAP2 POP POP PUSH1 0x1 SWAP1 SUB SWAP1 PUSH1 0x0 MSTORE PUSH1 0x20 PUSH1 0x0 KECCAK256 ADD PUSH1 0x0 SWAP1 SWAP2 SWAP1 SWAP2 SWAP1 SWAP2 PUSH2 0x100 EXP DUP2 SLOAD DUP2 PUSH20 0xFFFFFFFFFFFFFFFFFFFFFFFFFFFFFFFFFFFFFFFF MUL NOT AND SWAP1 DUP4 PUSH20 0xFFFFFFFFFFFFFFFFFFFFFFFFFFFFFFFFFFFFFFFF AND MUL OR SWAP1 SSTORE POP CALLVALUE PUSH1 0x2 PUSH1 0x0 CALLER PUSH20 0xFFFFFFFFFFFFFFFFFFFFFFFFFFFFFFFFFFFFFFFF AND PUSH20 0xFFFFFFFFFFFFFFFFFFFFFFFFFFFFFFFFFFFFFFFF AND DUP2 MSTORE PUSH1 0x20 ADD SWAP1 DUP2 MSTORE PUSH1 0x20 ADD PUSH1 0x0 KECCAK256 PUSH1 0x0 DUP3 DUP3 SLOAD PUSH2 0x4AF SWAP2 SWAP1 PUSH2 0xA48 JUMP JUMPDEST SWAP3 POP POP DUP2 SWAP1 SSTORE POP JUMP JUMPDEST PUSH1 0x1 DUP2 DUP2 SLOAD DUP2 LT PUSH2 0x4C8 JUMPI PUSH1 0x0 DUP1 REVERT JUMPDEST SWAP1 PUSH1 0x0 MSTORE PUSH1 0x20 PUSH1 0x0 KECCAK256 ADD PUSH1 0x0 SWAP2 POP SLOAD SWAP1 PUSH2 0x100 EXP SWAP1 DIV PUSH20 0xFFFFFFFFFFFFFFFFFFFFFFFFFFFFFFFFFFFFFFFF AND DUP2 JUMP JUMPDEST PUSH1 0x0 DUP1 PUSH2 0x502 PUSH2 0x531 JUMP JUMPDEST SWAP1 POP PUSH1 0x0 PUSH8 0xDE0B6B3A7640000 DUP5 DUP4 PUSH2 0x51B SWAP2 SWAP1 PUSH2 0xA9E JUMP JUMPDEST PUSH2 0x525 SWAP2 SWAP1 PUSH2 0xB27 JUMP JUMPDEST SWAP1 POP DUP1 SWAP3 POP POP POP SWAP2 SWAP1 POP JUMP JUMPDEST PUSH1 0x0 DUP1 PUSH20 0x5F4EC3DF9CBD43714FE2740F5E3616155C5B8419 SWAP1 POP PUSH1 0x0 DUP2 PUSH20 0xFFFFFFFFFFFFFFFFFFFFFFFFFFFFFFFFFFFFFFFF AND PUSH4 0xFEAF968C PUSH1 0x40 MLOAD DUP2 PUSH4 0xFFFFFFFF AND PUSH1 0xE0 SHL DUP2 MSTORE PUSH1 0x4 ADD PUSH1 0xA0 PUSH1 0x40 MLOAD DUP1 DUP4 SUB DUP2 DUP7 DUP1 EXTCODESIZE ISZERO DUP1 ISZERO PUSH2 0x593 JUMPI PUSH1 0x0 DUP1 REVERT JUMPDEST POP GAS STATICCALL ISZERO DUP1 ISZERO PUSH2 0x5A7 JUMPI RETURNDATASIZE PUSH1 0x0 DUP1 RETURNDATACOPY RETURNDATASIZE PUSH1 0x0 REVERT JUMPDEST POP POP POP POP PUSH1 0x40 MLOAD RETURNDATASIZE PUSH1 0x1F NOT PUSH1 0x1F DUP3 ADD AND DUP3 ADD DUP1 PUSH1 0x40 MSTORE POP DUP2 ADD SWAP1 PUSH2 0x5CB SWAP2 SWAP1 PUSH2 0xBE5 JUMP JUMPDEST POP POP POP SWAP2 POP POP PUSH5 0x2540BE400 DUP2 PUSH2 0x5E2 SWAP2 SWAP1 PUSH2 0xC60 JUMP JUMPDEST SWAP3 POP POP POP SWAP1 JUMP JUMPDEST DUP3 DUP1 SLOAD DUP3 DUP3 SSTORE SWAP1 PUSH1 0x0 MSTORE PUSH1 0x20 PUSH1 0x0 KECCAK256 SWAP1 DUP2 ADD SWAP3 DUP3 ISZERO PUSH2 0x662 JUMPI SWAP2 PUSH1 0x20 MUL DUP3 ADD JUMPDEST DUP3 DUP2 GT ISZERO PUSH2 0x661 JUMPI DUP3 MLOAD DUP3 PUSH1 0x0 PUSH2 0x100 EXP DUP2 SLOAD DUP2 PUSH20 0xFFFFFFFFFFFFFFFFFFFFFFFFFFFFFFFFFFFFFFFF MUL NOT AND SWAP1 DUP4 PUSH20 0xFFFFFFFFFFFFFFFFFFFFFFFFFFFFFFFFFFFFFFFF AND MUL OR SWAP1 SSTORE POP SWAP2 PUSH1 0x20 ADD SWAP2 SWAP1 PUSH1 0x1 ADD SWAP1 PUSH2 0x609 JUMP JUMPDEST JUMPDEST POP SWAP1 POP PUSH2 0x66F SWAP2 SWAP1 PUSH2 0x673 JUMP JUMPDEST POP SWAP1 JUMP JUMPDEST JUMPDEST DUP1 DUP3 GT ISZERO PUSH2 0x68C JUMPI PUSH1 0x0 DUP2 PUSH1 0x0 SWAP1 SSTORE POP PUSH1 0x1 ADD PUSH2 0x674 JUMP JUMPDEST POP SWAP1 JUMP JUMPDEST PUSH1 0x0 DUP2 SWAP1 POP SWAP2 SWAP1 POP JUMP JUMPDEST PUSH2 0x6A3 DUP2 PUSH2 0x690 JUMP JUMPDEST DUP3 MSTORE POP POP JUMP JUMPDEST PUSH1 0x0 PUSH1 0x20 DUP3 ADD SWAP1 POP PUSH2 0x6BE PUSH1 0x0 DUP4 ADD DUP5 PUSH2 0x69A JUMP JUMPDEST SWAP3 SWAP2 POP POP JUMP JUMPDEST PUSH1 0x0 DUP1 REVERT JUMPDEST PUSH1 0x0 PUSH20 0xFFFFFFFFFFFFFFFFFFFFFFFFFFFFFFFFFFFFFFFF DUP3 AND SWAP1 POP SWAP2 SWAP1 POP JUMP JUMPDEST PUSH1 0x0 PUSH2 0x6F4 DUP3 PUSH2 0x6C9 JUMP JUMPDEST SWAP1 POP SWAP2 SWAP1 POP JUMP JUMPDEST PUSH2 0x704 DUP2 PUSH2 0x6E9 JUMP JUMPDEST DUP2 EQ PUSH2 0x70F JUMPI PUSH1 0x0 DUP1 REVERT JUMPDEST POP JUMP JUMPDEST PUSH1 0x0 DUP2 CALLDATALOAD SWAP1 POP PUSH2 0x721 DUP2 PUSH2 0x6FB JUMP JUMPDEST SWAP3 SWAP2 POP POP JUMP JUMPDEST PUSH1 0x0 PUSH1 0x20 DUP3 DUP5 SUB SLT ISZERO PUSH2 0x73D JUMPI PUSH2 0x73C PUSH2 0x6C4 JUMP JUMPDEST JUMPDEST PUSH1 0x0 PUSH2 0x74B DUP5 DUP3 DUP6 ADD PUSH2 0x712 JUMP JUMPDEST SWAP2 POP POP SWAP3 SWAP2 POP POP JUMP JUMPDEST PUSH2 0x75D DUP2 PUSH2 0x690 JUMP JUMPDEST DUP2 EQ PUSH2 0x768 JUMPI PUSH1 0x0 DUP1 REVERT JUMPDEST POP JUMP JUMPDEST PUSH1 0x0 DUP2 CALLDATALOAD SWAP1 POP PUSH2 0x77A DUP2 PUSH2 0x754 JUMP JUMPDEST SWAP3 SWAP2 POP POP JUMP JUMPDEST PUSH1 0x0 PUSH1 0x20 DUP3 DUP5 SUB SLT ISZERO PUSH2 0x796 JUMPI PUSH2 0x795 PUSH2 0x6C4 JUMP JUMPDEST JUMPDEST PUSH1 0x0 PUSH2 0x7A4 DUP5 DUP3 DUP6 ADD PUSH2 0x76B JUMP JUMPDEST SWAP2 POP POP SWAP3 SWAP2 POP POP JUMP JUMPDEST PUSH2 0x7B6 DUP2 PUSH2 0x6E9 JUMP JUMPDEST DUP3 MSTORE POP POP JUMP JUMPDEST PUSH1 0x0 PUSH1 0x20 DUP3 ADD SWAP1 POP PUSH2 0x7D1 PUSH1 0x0 DUP4 ADD DUP5 PUSH2 0x7AD JUMP JUMPDEST SWAP3 SWAP2 POP POP JUMP JUMPDEST PUSH32 0x4E487B7100000000000000000000000000000000000000000000000000000000 PUSH1 0x0 MSTORE PUSH1 0x32 PUSH1 0x4 MSTORE PUSH1 0x24 PUSH1 0x0 REVERT JUMPDEST PUSH32 0x4E487B7100000000000000000000000000000000000000000000000000000000 PUSH1 0x0 MSTORE PUSH1 0x11 PUSH1 0x4 MSTORE PUSH1 0x24 PUSH1 0x0 REVERT JUMPDEST PUSH1 0x0 PUSH2 0x840 DUP3 PUSH2 0x690 JUMP JUMPDEST SWAP2 POP PUSH32 0xFFFFFFFFFFFFFFFFFFFFFFFFFFFFFFFFFFFFFFFFFFFFFFFFFFFFFFFFFFFFFFFF DUP3 EQ ISZERO PUSH2 0x873 JUMPI PUSH2 0x872 PUSH2 0x806 JUMP JUMPDEST JUMPDEST PUSH1 0x1 DUP3 ADD SWAP1 POP SWAP2 SWAP1 POP JUMP JUMPDEST PUSH32 0x4E487B7100000000000000000000000000000000000000000000000000000000 PUSH1 0x0 MSTORE PUSH1 0x41 PUSH1 0x4 MSTORE PUSH1 0x24 PUSH1 0x0 REVERT JUMPDEST PUSH1 0x0 DUP3 DUP3 MSTORE PUSH1 0x20 DUP3 ADD SWAP1 POP SWAP3 SWAP2 POP POP JUMP JUMPDEST PUSH32 0x53656E64204661696C6564000000000000000000000000000000000000000000 PUSH1 0x0 DUP3 ADD MSTORE POP JUMP JUMPDEST PUSH1 0x0 PUSH2 0x8F4 PUSH1 0xB DUP4 PUSH2 0x8AD JUMP JUMPDEST SWAP2 POP PUSH2 0x8FF DUP3 PUSH2 0x8BE JUMP JUMPDEST PUSH1 0x20 DUP3 ADD SWAP1 POP SWAP2 SWAP1 POP JUMP JUMPDEST PUSH1 0x0 PUSH1 0x20 DUP3 ADD SWAP1 POP DUP2 DUP2 SUB PUSH1 0x0 DUP4 ADD MSTORE PUSH2 0x923 DUP2 PUSH2 0x8E7 JUMP JUMPDEST SWAP1 POP SWAP2 SWAP1 POP JUMP JUMPDEST PUSH1 0x0 DUP2 SWAP1 POP SWAP3 SWAP2 POP POP JUMP JUMPDEST POP JUMP JUMPDEST PUSH1 0x0 PUSH2 0x945 PUSH1 0x0 DUP4 PUSH2 0x92A JUMP JUMPDEST SWAP2 POP PUSH2 0x950 DUP3 PUSH2 0x935 JUMP JUMPDEST PUSH1 0x0 DUP3 ADD SWAP1 POP SWAP2 SWAP1 POP JUMP JUMPDEST PUSH1 0x0 PUSH2 0x966 DUP3 PUSH2 0x938 JUMP JUMPDEST SWAP2 POP DUP2 SWAP1 POP SWAP2 SWAP1 POP JUMP JUMPDEST PUSH32 0x43616C6C204661696C6564000000000000000000000000000000000000000000 PUSH1 0x0 DUP3 ADD MSTORE POP JUMP JUMPDEST PUSH1 0x0 PUSH2 0x9A6 PUSH1 0xB DUP4 PUSH2 0x8AD JUMP JUMPDEST SWAP2 POP PUSH2 0x9B1 DUP3 PUSH2 0x970 JUMP JUMPDEST PUSH1 0x20 DUP3 ADD SWAP1 POP SWAP2 SWAP1 POP JUMP JUMPDEST PUSH1 0x0 PUSH1 0x20 DUP3 ADD SWAP1 POP DUP2 DUP2 SUB PUSH1 0x0 DUP4 ADD MSTORE PUSH2 0x9D5 DUP2 PUSH2 0x999 JUMP JUMPDEST SWAP1 POP SWAP2 SWAP1 POP JUMP JUMPDEST PUSH32 0x4E6F7420656E6F75676800000000000000000000000000000000000000000000 PUSH1 0x0 DUP3 ADD MSTORE POP JUMP JUMPDEST PUSH1 0x0 PUSH2 0xA12 PUSH1 0xA DUP4 PUSH2 0x8AD JUMP JUMPDEST SWAP2 POP PUSH2 0xA1D DUP3 PUSH2 0x9DC JUMP JUMPDEST PUSH1 0x20 DUP3 ADD SWAP1 POP SWAP2 SWAP1 POP JUMP JUMPDEST PUSH1 0x0 PUSH1 0x20 DUP3 ADD SWAP1 POP DUP2 DUP2 SUB PUSH1 0x0 DUP4 ADD MSTORE PUSH2 0xA41 DUP2 PUSH2 0xA05 JUMP JUMPDEST SWAP1 POP SWAP2 SWAP1 POP JUMP JUMPDEST PUSH1 0x0 PUSH2 0xA53 DUP3 PUSH2 0x690 JUMP JUMPDEST SWAP2 POP PUSH2 0xA5E DUP4 PUSH2 0x690 JUMP JUMPDEST SWAP3 POP DUP3 PUSH32 0xFFFFFFFFFFFFFFFFFFFFFFFFFFFFFFFFFFFFFFFFFFFFFFFFFFFFFFFFFFFFFFFF SUB DUP3 GT ISZERO PUSH2 0xA93 JUMPI PUSH2 0xA92 PUSH2 0x806 JUMP JUMPDEST JUMPDEST DUP3 DUP3 ADD SWAP1 POP SWAP3 SWAP2 POP POP JUMP JUMPDEST PUSH1 0x0 PUSH2 0xAA9 DUP3 PUSH2 0x690 JUMP JUMPDEST SWAP2 POP PUSH2 0xAB4 DUP4 PUSH2 0x690 JUMP JUMPDEST SWAP3 POP DUP2 PUSH32 0xFFFFFFFFFFFFFFFFFFFFFFFFFFFFFFFFFFFFFFFFFFFFFFFFFFFFFFFFFFFFFFFF DIV DUP4 GT DUP3 ISZERO ISZERO AND ISZERO PUSH2 0xAED JUMPI PUSH2 0xAEC PUSH2 0x806 JUMP JUMPDEST JUMPDEST DUP3 DUP3 MUL SWAP1 POP SWAP3 SWAP2 POP POP JUMP JUMPDEST PUSH32 0x4E487B7100000000000000000000000000000000000000000000000000000000 PUSH1 0x0 MSTORE PUSH1 0x12 PUSH1 0x4 MSTORE PUSH1 0x24 PUSH1 0x0 REVERT JUMPDEST PUSH1 0x0 PUSH2 0xB32 DUP3 PUSH2 0x690 JUMP JUMPDEST SWAP2 POP PUSH2 0xB3D DUP4 PUSH2 0x690 JUMP JUMPDEST SWAP3 POP DUP3 PUSH2 0xB4D JUMPI PUSH2 0xB4C PUSH2 0xAF8 JUMP JUMPDEST JUMPDEST DUP3 DUP3 DIV SWAP1 POP SWAP3 SWAP2 POP POP JUMP JUMPDEST PUSH1 0x0 PUSH10 0xFFFFFFFFFFFFFFFFFFFF DUP3 AND SWAP1 POP SWAP2 SWAP1 POP JUMP JUMPDEST PUSH2 0xB77 DUP2 PUSH2 0xB58 JUMP JUMPDEST DUP2 EQ PUSH2 0xB82 JUMPI PUSH1 0x0 DUP1 REVERT JUMPDEST POP JUMP JUMPDEST PUSH1 0x0 DUP2 MLOAD SWAP1 POP PUSH2 0xB94 DUP2 PUSH2 0xB6E JUMP JUMPDEST SWAP3 SWAP2 POP POP JUMP JUMPDEST PUSH1 0x0 DUP2 SWAP1 POP SWAP2 SWAP1 POP JUMP JUMPDEST PUSH2 0xBAD DUP2 PUSH2 0xB9A JUMP JUMPDEST DUP2 EQ PUSH2 0xBB8 JUMPI PUSH1 0x0 DUP1 REVERT JUMPDEST POP JUMP JUMPDEST PUSH1 0x0 DUP2 MLOAD SWAP1 POP PUSH2 0xBCA DUP2 PUSH2 0xBA4 JUMP JUMPDEST SWAP3 SWAP2 POP POP JUMP JUMPDEST PUSH1 0x0 DUP2 MLOAD SWAP1 POP PUSH2 0xBDF DUP2 PUSH2 0x754 JUMP JUMPDEST SWAP3 SWAP2 POP POP JUMP JUMPDEST PUSH1 0x0 DUP1 PUSH1 0x0 DUP1 PUSH1 0x0 PUSH1 0xA0 DUP7 DUP9 SUB SLT ISZERO PUSH2 0xC01 JUMPI PUSH2 0xC00 PUSH2 0x6C4 JUMP JUMPDEST JUMPDEST PUSH1 0x0 PUSH2 0xC0F DUP9 DUP3 DUP10 ADD PUSH2 0xB85 JUMP JUMPDEST SWAP6 POP POP PUSH1 0x20 PUSH2 0xC20 DUP9 DUP3 DUP10 ADD PUSH2 0xBBB JUMP JUMPDEST SWAP5 POP POP PUSH1 0x40 PUSH2 0xC31 DUP9 DUP3 DUP10 ADD PUSH2 0xBD0 JUMP JUMPDEST SWAP4 POP POP PUSH1 0x60 PUSH2 0xC42 DUP9 DUP3 DUP10 ADD PUSH2 0xBD0 JUMP JUMPDEST SWAP3 POP POP PUSH1 0x80 PUSH2 0xC53 DUP9 DUP3 DUP10 ADD PUSH2 0xB85 JUMP JUMPDEST SWAP2 POP POP SWAP3 SWAP6 POP SWAP3 SWAP6 SWAP1 SWAP4 POP JUMP JUMPDEST PUSH1 0x0 PUSH2 0xC6B DUP3 PUSH2 0xB9A JUMP JUMPDEST SWAP2 POP PUSH2 0xC76 DUP4 PUSH2 0xB9A JUMP JUMPDEST SWAP3 POP DUP3 PUSH32 0x7FFFFFFFFFFFFFFFFFFFFFFFFFFFFFFFFFFFFFFFFFFFFFFFFFFFFFFFFFFFFFFF DIV DUP3 GT PUSH1 0x0 DUP5 SGT PUSH1 0x0 DUP5 SGT AND AND ISZERO PUSH2 0xCB5 JUMPI PUSH2 0xCB4 PUSH2 0x806 JUMP JUMPDEST JUMPDEST DUP2 PUSH32 0x8000000000000000000000000000000000000000000000000000000000000000 SDIV DUP4 SLT PUSH1 0x0 DUP5 SLT PUSH1 0x0 DUP5 SGT AND AND ISZERO PUSH2 0xCF2 JUMPI PUSH2 0xCF1 PUSH2 0x806 JUMP JUMPDEST JUMPDEST DUP3 PUSH32 0x8000000000000000000000000000000000000000000000000000000000000000 SDIV DUP3 SLT PUSH1 0x0 DUP5 SGT PUSH1 0x0 DUP5 SLT AND AND ISZERO PUSH2 0xD2F JUMPI PUSH2 0xD2E PUSH2 0x806 JUMP JUMPDEST JUMPDEST DUP3 PUSH32 0x7FFFFFFFFFFFFFFFFFFFFFFFFFFFFFFFFFFFFFFFFFFFFFFFFFFFFFFFFFFFFFFF SDIV DUP3 SLT PUSH1 0x0 DUP5 SLT PUSH1 0x0 DUP5 SLT AND AND ISZERO PUSH2 0xD6C JUMPI PUSH2 0xD6B PUSH2 0x806 JUMP JUMPDEST JUMPDEST DUP3 DUP3 MUL SWAP1 POP SWAP3 SWAP2 POP POP JUMP INVALID LOG2 PUSH5 0x6970667358 0x22 SLT KECCAK256 0xAC SWAP10 0xCB CHAINID 0xB7 COINBASE 0xAA CALLDATALOAD 0x28 0xCE TIMESTAMP INVALID PUSH25 0xFC26FDA4CE1E3D46A9D3845028D5E7412E49D164736F6C6343 STOP ADDMOD ADDMOD STOP CALLER "
				},
				"gasEstimates": {
					"creation": {
						"codeDepositCost": "700200",
						"executionCost": "22840",
						"totalCost": "723040"
					},
					"external": {
						"Amount(address)": "2836",
						"fund()": "infinite",
						"funders(uint256)": "5022",
						"minUsd()": "2429",
						"withdraw()": "infinite"
					}
				},
				"methodIdentifiers": {
					"Amount(address)": "600a6ef6",
					"fund()": "b60d4288",
					"funders(uint256)": "dc0d3dff",
					"minUsd()": "51b80e41",
					"withdraw()": "3ccfd60b"
				}
			},
			"storageLayout": {
				"storage": [
					{
						"astId": 57,
						"contract": "contracts/FundMe.sol:FundMe",
						"label": "minUsd",
						"offset": 0,
						"slot": "0",
						"type": "t_uint256"
					},
					{
						"astId": 60,
						"contract": "contracts/FundMe.sol:FundMe",
						"label": "funders",
						"offset": 0,
						"slot": "1",
						"type": "t_array(t_address)dyn_storage"
					},
					{
						"astId": 64,
						"contract": "contracts/FundMe.sol:FundMe",
						"label": "Amount",
						"offset": 0,
						"slot": "2",
						"type": "t_mapping(t_address,t_uint256)"
					}
				],
				"types": {
					"t_address": {
						"encoding": "inplace",
						"label": "address",
						"numberOfBytes": "20"
					},
					"t_array(t_address)dyn_storage": {
						"base": "t_address",
						"encoding": "dynamic_array",
						"label": "address[]",
						"numberOfBytes": "32"
					},
					"t_mapping(t_address,t_uint256)": {
						"encoding": "mapping",
						"key": "t_address",
						"label": "mapping(address => uint256)",
						"numberOfBytes": "32",
						"value": "t_uint256"
					},
					"t_uint256": {
						"encoding": "inplace",
						"label": "uint256",
						"numberOfBytes": "32"
					}
				}
			},
			"userdoc": {
				"kind": "user",
				"methods": {},
				"version": 1
			}
		}
	}
}